:100000000C9406030C9423030C9423030C942303F5
:100010000C9423030C9423030C9423030C942303C8
:100020000C9423030C9423030C946E1F0C94422015
:100030000C94931A0C9423030C9423030C94230321
:100040000C9423030C9423030C9423030C94230398
:100050000C9423030C941A1B0C9423030C94230379
:100060000C9423030C9423030C9423030C94230378
:100070000C9423030C9423030C9423030C94230368
:100080000C9423030C9423030C9423030C94230358
:100090000C9423030C9423030C9423030C94230348
:1000A0000C9423030C9423030C94230335001E00AB
:1000B0001F0020002100220023002400250026002C
:1000C00027002D002E0029002B0014001A00080024
:1000D00015001700615284521C0018000C00120019
:1000E00013006400390004001600070009000A002C
:1000F000000000000B000D000E000F003300870011
:10010000E1001D001B0006001900050062520007F7
:1001100011001000360037003800E500E000000054
:10012000E200655283520000000000000000000061
:100130005000510052004F000000E2002A002C0045
:100140004C004A0000004D0046004B002800E30030
:10015000E000000001003A003B003C003D003E0092
:10016000230001003F0040004100420043004400E2
:1001700001001E021F022F023002310261520100F3
:10018000520024002500260025024500010020021F
:100190002102260227023500000000005100210044
:1001A000220023002E0201000100220223022F0060
:1001B000300035020100010024021E001F00200053
:1001C00031000100000001000100010001000000F9
:1001D0000000000000000100370027002E00010091
:1001E0000000010001000100010001000100010008
:1001F00001000100010001000100000001001E00DB
:100200001F002000210022002300240025002600DA
:1002100027002D002D000100010014001A00080025
:100220001500010000000100000000005200000065
:100230000000010001000400160007000900010091
:10024000000000000000500051004F0000000100BD
:100250000100010001000100010001000100010096
:10026000000000000000000000000100010001008B
:10027000010001000100000000000000000001007A
:100280000100010001000100000001000100010067
:100290000100010001000100010001000100010056
:1002A000010000000000000000000000000000004D
:1002B000000000000000000000000000000000003E
:1002C000000000000000000000000000000000002E
:1002D00000000000000035022F00000000000000B8
:1002E000000000000000000000000000000000000E
:1002F0000000350034000000010000000000000094
:1003000000000000000000000000000000000000ED
:1003100000000000000000000000000001000000DC
:1003200000000000000000000000000000000000CD
:1003300000000000000000000000000000000000BD
:1003400000000000000000000000000000001E028D
:100350001F022002210222022402000000000000ED
:1003600000000000000000000000380236023702E2
:100370003002310200000100000000000000000017
:100380000000000000002D0226022702300031008C
:10039000000000000000000000000000000000005D
:1003A000000000000000000000000000000000004D
:1003B000000000000000000000000000000000003D
:1003C000000000000000000000000000000000002D
:1003D000000000000000000000000000000000001D
:1003E000000000000000000000000000000000000D
:1003F0000000000001001E001F002000210022005C
:1004000023000000000000000000000000000000C9
:10041000010014001A000800150017000000000079
:1004200000000000000000000000000001000400C7
:100430001600070009000A0000000000000000008C
:10044000000000000000000001001D001B0006006D
:10045000190005000000000000000000000000007E
:100460000000000001000000010001000000000089
:10047000000000000000000000000000000000007C
:100480000000010001000100010001000100000066
:100490000000000000000000000000001203450002
:1004A000720067006F0064006F006E00650000005E
:1004B00012034B002E0054002E0045002E00430076
:1004C0002E0000000403090409023B00020100A001
:1004D000FA090400000103010100092111010001D2
:1004E00022400007058103080001090401000103FF
:1004F00000000009211101000122B6000705820356
:100500002000011201000200000008091228230146
:10051000000102000105010902A10185020901A1F2
:1005200000050919012908150025019508750181A3
:10053000020501093009311581257F950275088171
:100540000609381581257F950175088106050C0A75
:1005500038021581257F950175088106C0C0050107
:100560000980A101850319012AB700150126B700EA
:10057000950175108100C0050C0901A101850419C0
:10058000012AA002150126A002950175108100C064
:1005900005010906A1018506050719E029E71500EF
:1005A00025019508750181020507190029EF15003D
:1005B000250195F0750181020508190129059505A8
:1005C00075019102950175039101C005010906A10C
:1005D00001050719E029E715002501950875018136
:1005E000029501750881010507190029FF150026EC
:1005F000FF00950675088100050819012905950574
:1006000075019102950175039101C00011241FBE6F
:10061000CFEFDAE0DEBFCDBF11E0A0E0B1E0EEEC5D
:10062000F5E402C005900D92AE37B107D9F722E08C
:10063000AEE7B1E001C01D92A63BB207E1F70E9410
:1006400063130C94A6220C94000080918001811108
:100650000EC00E94A2172FEF83ED90E3215080403F
:100660009040E1F700C0000081E080938001089590
:10067000A1E0B0E0EEE3F3E00C9423224983F82EEE
:10068000FF0C81E09DE0E92E611103C080E02CE0C9
:10069000E22E04E610E021E030E0AE014F5F5F4F54
:1006A000682F8F2D0E948818892B61F421E030E09B
:1006B000AE014F5F5F4F6E2D8F2D0E94881821E095
:1006C000892B09F020E0822F2196E6E00C943F224E
:1006D0000F931F93880F61110FC062E104E610E0D1
:1006E00021E030E00E94AF1821E0892B09F020E0E2
:1006F000822F1F910F91089563E1F0CF80918301C4
:1007000081110CC04FEF61E080E20E94380391E05C
:10071000892790918301980F909383010895CF9337
:100720004FEF60E080E20E943803C1E08C27909197
:100730008301980F909383014FEF61E080E20E9464
:1007400038038C27C0918301C80FC0938301CF91D8
:10075000089580E20E9425032198299822982A98DA
:1007600084988C9885988D9886988E9887988F987D
:1007700029982A988C988D988E988F980E947E033D
:100780006E98769A52985A9A53985B9A54985C9AB3
:1007900057985F9A3E98469A24982C9A0E948F0305
:1007A0000895A1E0B0E0E7EDF3E00C9417228C018E
:1007B00080918301882371F0809181019091820161
:1007C0000196811520E2920708F0A6C0909382015D
:1007D000809381014801512C412C00E0142DF4013B
:1007E000219031904F01129212925F01133009F45F
:1007F000ACC008F09CC0113009F4A1C0123009F45B
:10080000A1C0849A8C988091830192012F5F3F4F01
:100810002901882309F49FC08FE891E00197F1F73F
:1008200000C0000080918301712C612C81111FC0D8
:100830009FEF9983AE014F5F5F4F60E080E20E94BF
:10084000680391E0892790918301980F9093830129
:10085000898180950E944406982F96959C77837095
:10086000892B782E7594682E6794662467944B992B
:1008700085C080E4C82ED12C4A9983C0A0E2B0E0A4
:100880004C9982C0E0E1F0E0369981C068E070E008
:100890004F9980C044E050E066997FC022E030E08C
:1008A00083B182958F7091E0892780FBEE24E0F878
:1008B000F12CC701862997298C299D298A2B9B2BEE
:1008C0008E2B9F2B682B792B462B572B242B352BCC
:1008D000F50131832083133009F473C008F060C040
:1008E000113009F466C0123009F467C084988C98FE
:1008F0008C9881E0F501208131812215330509F4BE
:1009000080E0082BF6E04F16510409F067CF802FE6
:100910002196E2E10C94332210928201109281011F
:10092000109283010E947E030E948F0353CF1430E4
:1009300079F0153009F065CF229A2A9864CF859A0C
:100940008D9861CF869A8E985ECF879A8F985BCF6D
:10095000219A299858CF41E050E001C0440F2A95D0
:10096000EAF7409561E080E20E94380391E0892730
:1009700090918301980F9093830154CFD12CC12C77
:100980007BCFB0E0A0E07CCFF0E0E0E07DCF70E096
:1009900060E07ECF50E040E07FCF30E020E080CFCD
:1009A000143099F0153009F0A1CF22982A982A988E
:1009B000A0CF85988D988D989CCF86988E988E988C
:1009C00098CF87988F988F9894CF219829982998B5
:1009D00090CF259A2D980895269A2E980895239AB7
:1009E0002B980895559A5D9A08950E94E9040E94F3
:1009F000EC040E94EF040E94F204559A5D982FEFD8
:100A000080E792E0215080409040E1F700C0000074
:100A1000259A2D9A2FEF80E792E021508040904058
:100A2000E1F700C00000269A2E9A2FEF80E792E0AF
:100A3000215080409040E1F700C00000239A2B9A9B
:100A40002FEF80E792E0215080409040E1F700C016
:100A500000000E94E9042FEF80E792E021508040DF
:100A60009040E1F700C000000E94EC042FEF80E707
:100A700092E0215080409040E1F700C000000E94C9
:100A8000EF042FEF80E792E0215080409040E1F7A3
:100A900000C000000E94F2040E94E9040E94EC04DD
:100AA0000E94EF040E94F2040E940C100895863008
:100AB000B8F46630A8F44E3098F450E09EE0699F98
:100AC000400D511D1124FA0194E5899FE00DF11D9F
:100AD0001124EE0FFF1FE455FF4F85919491089567
:100AE00080E090E008950E945705089581E0089500
:100AF00081E008950E947805089508950E947D057B
:100B00000895A5E0B0E0E7E8F5E00C9426224983DB
:100B10005A833091890189819A81311119C06623E4
:100B200099F0222389F00E944B0B182F682F89819E
:100B30009A810E94270B69817A81812F0E94A911D5
:100B40002596E3E00C9442220E94390B182FF3CF34
:100B50000E944B0B69817A81F1CFFC01262F4081E5
:100B600051816281738184810E948105089581E0B1
:100B70000895CF93DF93EC0160E00E94AD05BE01C4
:100B80000E947E05DF91CF9108950E94DD120895A5
:100B90000E94E112089508950E94F6090E94CB0573
:100BA0002FEF84E39CE0215080409040E1F700C0AB
:100BB000000008950E94CC050E943E1B08950E94EB
:100BC000CC050E944F1B08950F931F93CF93DF9383
:100BD0008C0161E00E94AD05EC01B8010E947A052C
:100BE000811106C080E0DF91CF911F910F91089590
:100BF000B801CE010E945E178823A1F3B801CE018F
:100C00000E94F415882371F3B801CE010E94D0161A
:100C1000882341F3F8018281882361F0C330FCE727
:100C2000DF07E9F058F4C115ECE7DE07A9F0C130A1
:100C3000DC47B9F0C8010E947605D5CFCB358CE7EB
:100C4000D807A9F0CC35ECE7DE0771F0CA35DC47F0
:100C500089F70E944D0FEECF0E94DA05C3CF0E94A4
:100C6000550F0E94DF05BECF0E94430FE3CF0E94C5
:100C7000510FE0CF0E946F1A0E94910608950E94C2
:100C800095060E94741A0895829590E09C01220FA7
:100C9000331F220F331F2C7C95958795959587954B
:100CA0008373282B30E0C901880F991F8A7A359504
:100CB00027952575822B089508950E945C06089556
:100CC00081E0089580FF08C02D9A81FF07C02E9A09
:100CD00082FF06C02B9A08952D98F7CF2E98F8CF53
:100CE0002B980895CF93DF93D82F0E946006C82FCA
:100CF000882319F08D2F0E9462068C2FDF91CF91EF
:100D00000895259A2D98269A2E98239A2B9808951F
:100D1000CF93C82F0E945D068C2F0E947206CF9140
:100D2000089580E00E94880608950E9402190E949A
:100D300088060895CF930E940219C82F80918401DC
:100D40008C1779F0C09384010E94FF1A609385018B
:100D50007093860180938701909388018C2F0E9465
:100D60008806CF910895ABE0B0E0E9EBF6E00C9493
:100D700027224F83588769877A878B8761110E9462
:100D80008E0E1E821D8285E0FE013796DE011196D1
:100D900001900D928A95E1F78C819D81892B61F4F8
:100DA00049815A816B817C818D819E810E94B70D22
:100DB0002B96E2E00C94432289819A8189238F3F0C
:100DC00079F3CE0101960E94B7058111E9CFF0CFEA
:100DD000FC01808191810E947D0B0895662329F09A
:100DE0000E94E7130E94BA1408950E944114FACF9A
:100DF000CF93C82F8823B9F08CEF8C0F813AA8F4D9
:100E00006C2F80910001909101010E949519882317
:100E100029F08C2F0E944E0E0E94AF0E8C2F0E9444
:100E2000460E0E94AF0ECF91089580E28C0F88305D
:100E300048F4C77081E001C0880FCA95EAF70E94A4
:100E4000710EEFCFEBE5EC0FE33040F4F0E0EB5B3D
:100E5000FE4F808190E00E943719E5CFE8E5EC0F66
:100E6000E93150F4F0E0EE0FFF1FED5EFE4F8081A0
:100E700091810E945C19D7CF83E38C0F833198F660
:100E800061E08C2F0E94EE06CECF882381F19CEF8B
:100E9000980F913A28F40E944E0E0E94AF0E0895CA
:100EA00090E2980F983050F4877091E001C0990F4C
:100EB0008A95EAF7892F0E94770EEFCF9BE5980F6E
:100EC000933028F490E080E00E943719089598E567
:100ED000980F993128F490E080E00E945C19089501
:100EE00093E3980F933118F460E00E94EE060895A2
:100EF0001F93CF93DF93182FEB010E94F8062097E2
:100F000039F4812F0E944507DF91CF911F910895F9
:100F10008FE99FE00197F1F700C000002197EFCF24
:100F200070E060E0893311F460E570E00E947807BA
:100F30000895882321F00E94710E0E94AF0E08953B
:100F4000882321F00E94770E0E94AF0E0895B0E032
:100F5000A0E0EDEAF7E00C9420226C01D62FC72F19
:100F6000FC011281F580F2949FE0F9220E94670E45
:100F7000E82E8823B9F0E12E1123A1F08C2F807F79
:100F8000803421F080E28D0F8830D0F080918C0287
:100F900082FF16C082E00E94120F0E94670E91E04D
:100FA000E82EE926BC2EB2948FE0B822FBE0FB15B8
:100FB00008F468C0EB2DF0E0E855FD4D0C941122CB
:100FC000E12CF0CF0C2F0F70C07F11F00295007F45
:100FD000112399F0002359F080E28D0F883010F032
:100FE000D11107C0802F0E94710E0E94AF0E8D2F6D
:100FF00041C0802F0E94810EF8CF8D2F0E9445079F
:10100000002309F43FC080E28D0F883010F0D11129
:1010100004C0802F0E94770E03C0802F0E94870E8D
:101020000E94AF0E2FC00C2F0F70C07FC03211F086
:101030000295007FDD2381F0D13009F468C01123CF
:1010400009F472C0FF2009F468C0F601858180FFB1
:10105000CECF8F70858361C080918C0282FD33C0BA
:10106000112359F0002329F0802F0E94710E0E9455
:10107000AF0E80E00E94F80605C080E00E944507A0
:101080000111C7CFEB2DE850FF0B349720F40E94DD
:1010900002190E948806EE2089F00E94630E80FDEE
:1010A0000DC0F60112820E945D0E0E94850AC601E3
:1010B0000E94B6090E945D0E0E94950ACDB7DEB768
:1010C000E9E00C943C22112389F0F11006C00E9443
:1010D000910E802B0E949907D5CF21E0F212F7CF15
:1010E0000E94910E802B0E94980ECCCFF11006C06A
:1010F0000E94A50E802F0E94A007C4CF31E0F316F6
:1011000009F2802F0E94A0070E94A50EBBCF1123D9
:1011100031F085E08F1508F4B5CF802FDBCF94E058
:101120009F1508F4AFCFE6CFFF2021F3D93349F460
:10113000FFEF27EE33E0F15020403040E1F700C0F0
:1011400000008D2F0E9445079DCF8C2F8695869598
:10115000837069F0813009F095CF8D2F9C2F9370AB
:10116000111102C080E090E00E945C198BCF8D2F9E
:101170009C2F9370111102C080E090E00E943719FB
:1011800081CF612F8D2F0E94EE067CCF8C2F837034
:10119000A1F5111177CF4D2F429546954770440F19
:1011A000440F2D2F2F7030E0042E02C0220F331F6A
:1011B0000A94E2F790E080E0D4FF09C08FE090E06D
:1011C00002C0880F991F4A95E2F780959095C695C1
:1011D000C695C370822B932BC23049F058F4C130AE
:1011E00019F00E94550A4ECF0E944C0A4BCF0E9424
:1011F0005E0A48CF0E94490A45CF8695112311F017
:101200008C2F8170882309F43DCF4D2F4295469550
:101210004770440F440F2D2F2F7030E0042E02C072
:10122000220F331F0A94E2F790E080E0D4FF09C058
:101230008FE090E002C0880F991F4A95E2F78095F1
:101240009095C695C695C370822B932BC23049F0FA
:1012500058F4C13019F00E94C00A14CF0E94B70A96
:1012600011CF0E94C90A0ECF0E946D0A0BCFCF701A
:10127000112329F08C2F0E94850A8D2F2BCF8D2FC3
:101280000E94A0078C2F0E94950AFCCED23F51F1FC
:1012900060F4D03FB9F0D13F81F0112309F449C087
:1012A000F110A5CE8C2F8F7121C0D33F11F1D43F07
:1012B000A1F780918C0282FD26C08C2F8F711123A3
:1012C00011F314C0112349F084E08F1508F4DACE2D
:1012D0008C2F8F710E94A70AD5CE95E09F1508F438
:1012E000D1CEF6CF8C2F8F711111CDCF0E94850AF0
:1012F000C9CE112329F08C2F8F710E94790AC2CE9A
:101300000E94740ABFCE112349F0CF718C2F0E9426
:10131000850A63E08C2F0E94F40EB4CE81E00E9417
:10132000120FE1E0EF1508F0ADCE82E00E94120F3F
:10133000A9CEF110FBCE8C2F8F71A5CF0F931F93E9
:10134000CF93DF93EC01688179818A810E94880BB9
:101350008C010E94D20A0E94480AB801CE010E9464
:10136000A707DF91CF911F910F910895CF93DF933E
:10137000EC018B819C81892B29F0888199818923BB
:101380008F3F51F4DF91CF910895CE010E949E09C5
:10139000CE010E94B905F6CFCE010E94E40581116D
:1013A000F4CF0E94670E882369F38A81882351F362
:1013B00080918C0282FFE6CF82E00E94120FE2CF82
:1013C00090E080E00E94371990E080E00E945C1974
:1013D0000E948E0E0E94AF0E0E94D6140E94BA1474
:1013E00008950E94560E0E94E00908950E947E0E04
:1013F0000E94F109089592959F70963091F058F4EB
:10140000925F9F70923058F4803F19F030F4883E1C
:1014100030F481E008959A5FF4CF843FD1F380E007
:101420000895883EB0F3813FD1F7F3CFFC0183816B
:101430009481892B29F08081918189238F3F11F438
:1014400080E00895808191810E947D0B0E94FB09BC
:101450000895A5E0B0E0EFE2FAE00C94272225968B
:10146000E2E00C944322A6E0B0E0E9E3FAE00C9459
:1014700027222696E2E00C94432208950E943D0A1A
:1014800008950E943E0A9093B9018093B80108958F
:1014900008950E94410A08952091B8013091B90140
:1014A000822B932B0E94410A08952091B80130911C
:1014B000B901822393230E94410A08952091B80123
:1014C0003091B901822793270E94410A08950E9412
:1014D0003D0A08950E94670A08950E946A0A90933F
:1014E000B7018093B601089590E080E00E946D0AF4
:1014F000089521E030E0A90102C0440F551F8A95EC
:10150000E2F7CA010E946D0A089521E030E002C0AE
:10151000220F331F8A95E2F78091B6019091B701AF
:10152000822B932B0E946D0A089521E030E002C0C7
:10153000220F331F8A95E2F7209530958091B601EE
:101540009091B701822393230E946D0A089521E0B0
:1015500030E002C0220F331F8A95E2F78091B60176
:101560009091B701822793270E946D0A08952091D8
:10157000B6013091B701822B932B0E946D0A08951A
:101580002091B6013091B701822393230E946D0A06
:1015900008952091B6013091B701822793270E94C8
:1015A0006D0A08950895262F277091E001C0990FC4
:1015B0002A95EAF723E0769567952A95E1F7660F75
:1015C000771F660F771FFA01E60FF71F50E040E024
:1015D000682F70E08191DF0111979B01042E02C0FA
:1015E000369527950A94E2F721702195282729231B
:1015F00028272C934F5F5F4F4430510559F70895CA
:10160000A82FA77023E0969587952A95E1F7880F74
:10161000991F880F991FFB01E80FF91F50E040E068
:1016200080E0219130E00A2E02C0369527950A9479
:10163000E2F721703327042E01C0220F0A94EAF743
:10164000822B4F5F5F4F4430510559F70895262F85
:10165000963070F48E3060F4682F70E08EE0989FC2
:10166000600D711D11244AE851E0822F0E94D30AB7
:101670000895292F963068F48E3058F490E06AE887
:1016800071E03EE0239F800D911D11240E94000B0C
:10169000089580E00895B0E0A0E0E1E5FBE00C945F
:1016A00020227C010091B6011091B7018091B80110
:1016B0009091B901082B192BCFE0D0E0CC24C39432
:1016C000D12CBC2EC6010C2E02C0880F991F0A9483
:1016D000E2F780239123892B49F4219790F7B12CCD
:1016E0008B2DCDB7DEB7E9E00C943C22B7018C2FEF
:1016F0000E94B511019789F3F3CFCF93DF93EC01EB
:101700000E944B0BBE010E94B511DF91CF9108954D
:101710001F93CF93DF93EB0190918901992339F0C7
:10172000CB010E947D0BDF91CF911F9108958823FB
:1017300069F0CB010E944B0B182F682FCE010E943D
:10174000270BBE01812F0E94B511EDCFCB010E9466
:10175000390B182FF6CF1F93CF93DF93C091BA01A7
:1017600016E08091BB018C1304C0DF91CF911F91D3
:101770000895D0E01C9FF0011D9FF00D1124E4544A
:10178000FE4F4081518162817381848195810E94E5
:10179000330A2196C770E5CF4091EC015091ED01DD
:1017A0006091EE017091EF018091F0019091F10153
:1017B0000E94330A08951F93CF93DF938091F10124
:1017C000807F09F049C08091EE01882309F444C06C
:1017D0008091BA01C091BB016091EC017091ED0163
:1017E000A091EF01B091F001D62FD72316E0C817D2
:1017F00099F190E0109711F0DF3F19F4019687708E
:10180000F6CF189F9001199F300D1124F901E4546F
:10181000FE4F41814713F2CF40814613EFCF428103
:101820004111ECCF438154814A1B5B0B483C51056D
:1018300028F78091F1018F7080618093F101F901A7
:10184000EF53FE4F80818F70806180838CEE91E03A
:101850000E94B6090E94AB0BDF91CF911F910895B2
:10186000A1E1B0E0E6E3FCE00C941F228C0185E0EE
:10187000F801DE011D9601900D928A95E1F7F801BD
:10188000E2808CEEC82E81E0D82E6091EF0170913D
:10189000F0016115710509F44EC19091EC012091A0
:1018A000ED01892F82238F3F09F445C14081518189
:1018B000A380B480F090EE01F501E61BF70BFF204A
:1018C00009F4EAC08091F101382F307FE83CF1053E
:1018D00008F0A3C031116DC0FE2C251316C094135F
:1018E00014C0E11012C08F7080618093F1010E94DA
:1018F000CC0BC6010E94B6098091F101F8018583E5
:101900008F2D6196EAE00C943B22A114B10429F0DA
:10191000842F85238F3F09F027C180E0F82FF170D5
:10192000DF2E80FF3CC08091BA012091BB0136E0E0
:10193000821315C04D875E878D859E850E947D0B25
:10194000292F22952F702230F0F0243018F59F7047
:10195000F1F0F8019581907FD1F4D12C1EC090E078
:10196000389FF001399FF00D1124E454FE4F61813E
:10197000651306C06081641303C06281E6120FC064
:1019800001968770D5CF9F7011F0882331F3805E68
:10199000883018F3C8010E94B609FD2CB1CFEE20A3
:1019A00009F4AECF8091F10181608093F101F12CB7
:1019B000A7CF251306C0941304C0F801EE2009F444
:1019C00087C0C8010E94160A882319F1EE2009F188
:1019D0008091F101803270F02091EC013091ED01A5
:1019E00038872F831986BB86AA868C87CE010796F7
:1019F0000E94B60986E0F801ACEEB1E001900D92CC
:101A00008A95E1F70E94DB0B0E94CC0BFF24F39434
:101A100077CFC8010E94B609F9CF311113C07A2DD2
:101A2000B98AA88A6E2D89890E94290A8CEE91E0D4
:101A30000E94B60986E0F60111928A95E9F70E94A4
:101A4000CC0BB5CF25130FC094130DC0E1100BC004
:101A5000F8018583C8010E94B60986E0F60111925B
:101A60008A95E9F74DCFC8010E94160A882389F2AA
:101A7000EE2079F28091F101803208F4BBCF209101
:101A8000EC013091ED013A8329831B82BD82AC8247
:101A90008E83CE010196ACCFE83CF10508F03EC044
:101AA000FE2CEE2009F4B5CF25132AC0941328C0CC
:101AB0008091F10180FD1BC0982F907FC1F0F8014B
:101AC0008583903F31F0982F907F905F8F70892BA6
:101AD0008583C8010E94B60986E0F801ACEEB1E04A
:101AE00001900D928A95E1F70E94CC0B09CF86E018
:101AF000F801ACEEB1E001900D928A95E1F700CFCC
:101B0000C8010E94160A811175CF8091F101816090
:101B10008093F101C8010E94B609F2CE7A2DB98AEC
:101B2000A88A6E2D89890E94290A86E0F601119201
:101B30008A95E9F7D9CFEE2009F46BCFC8010E944E
:101B4000160AF82E882309F464CF86E0F801ACEE7B
:101B5000B1E001900D928A95E1F78CEE91E00E9440
:101B6000E8060E94DB0BC0CF81E08E25D7CEACE02B
:101B7000B0E0EDEBFDE00C9426224F835887698797
:101B80007A878B879C87CE0107960E94300C88232A
:101B900069F08A859B85892B39F04F815885842F80
:101BA00085238F3F09F06BC016E05FC086E0FE0121
:101BB0003796DE01119601900D928A95E1F78A859C
:101BC0009B85892B89F388859F8189238F3F61F3CA
:101BD0002091BB0130E0C90101968770992740919F
:101BE000BA014817190671F40E94F6091092BB0158
:101BF0001092BA0186E0ECEEF1E0DF011D928A95C9
:101C0000E9F7D2CF96E0929FD001939FB00D1124B7
:101C1000A454BE4FFE01319601900D929A95E1F7C2
:101C20008093BB010E94AB0BBFCF819FC0011124E9
:101C300084549E4F0E94300C8823E9F0E091BA0151
:101C40001E9FF0011124E454FE4F408151816281B6
:101C50007381848195810E94330A8091BA0190E05A
:101C60000196877099278093BA018091BA0190916B
:101C7000BB018913DACF2C96E3E00C9442226985EC
:101C80007A858B859C850E94330A8ECF682F809140
:101C90000001909101010E94151A0895682F80910A
:101CA0000001909101010E94231A08958091000182
:101CB000909101010E94311A089580911202859538
:101CC0008595859508958091120287700895909169
:101CD0001202977081E009F480E008958091350246
:101CE000089590913502892B80933502089580954F
:101CF0009091350298239093350208951092350201
:101D0000089590913402892B809334020895809530
:101D100090913402982390933402089510923402E3
:101D2000089580911302089508950E94940E0895D5
:101D300090918C0292FF08C090911302981721F0A5
:101D4000809313020E94950E0895809113028823B8
:101D500029F01092130280E00E94950E0895CF930F
:101D6000DF93E0910001F0910101809135028083C1
:101D7000E0910001F0910101808190913402892B62
:101D8000808390911302992381F0E0910001F091FA
:101D900001018081892B8083809100019091010154
:101DA0000E94811981110E94A50EC0910001D0915D
:101DB000010140E250E062EF71E0CE010E944E224C
:101DC000892B59F080E2FE01A2EFB1E001900D9263
:101DD0008A95E1F7CE010E940F19DF91CF91089506
:101DE00008950E94F00E089590918C0292FF11C008
:101DF00098E0899F90011124622B609312020E9447
:101E0000850A809112028595859585950E94F10E2F
:101E100008950E94850A08951092120280E00E949F
:101E2000F10E0895909112028095892380931202F9
:101E3000282F277091F4282F082E000C330B9217AF
:101E4000130659F090918C0292FF07C085958595F5
:101E500085950E94950A0E940C0F089590918C021E
:101E600092FB222720F9281769F080FB92F99093C2
:101E70008C0280918B0290918C020E94760F82E0FE
:101E80000E94120F089580918C0282FB882780F9AE
:101E900091E089270E942E0F089581E00E942E0F65
:101EA000089580E00E942E0F08956FEF7FEF90E07D
:101EB00080E00E949022089590E080E00E946C22D1
:101EC00021E0873E9E4F09F020E0822F089582E0B6
:101ED00090E00E946422089583E090E00E946422D2
:101EE000089584E090E00E946C220895BC0184E093
:101EF00090E00E9490220895AB01BC018FE090E039
:101F00000E9484220895AB01BC0183E190E00E940D
:101F10008422089560E070E0CB010E94830F089551
:101F200060E070E0CB010E947C0F0E948A0F089550
:101F300067EE7EEF90E080E00E94902260E082E019
:101F400090E00E94722260E083E090E00E947222A2
:101F50001092B9011092B80160E074E184E090E061
:101F60000E94902260E086E090E00E9472226FEF73
:101F700087E090E00E94722240E050E0BA0188E0E1
:101F800090E00E94842260E08DE090E00E94722246
:101F900040E050E0BA0188E190E00E94842260E0D5
:101FA00087E190E00E94722240E050E0BA018CE1AB
:101FB00090E00E94842270E060E080E290E00E9465
:101FC000902240E050E0BA0188E190E00E94842233
:101FD0000E94900F08950E94980F0895682F8EE038
:101FE00090E00E94722208950E94FF1A60934802B6
:101FF0007093490280934A0290934B02609344028B
:102000007093450280934602909347020895089585
:1020100008950E940810089508958FE992E10E94A2
:10202000F8180E9407100E940910089581E0089591
:102030000E9416100895089508950E941B100E9492
:102040001C1008950E94BE120E94810608950E94ED
:10205000EA1A0E94EE120E9422100E94F5040895CE
:10206000AAE0B0E0E6E3F0E10C941C220E94021327
:1020700028E3822E22E0922E640110E0F601E19026
:10208000F1906F01812F0E94E4121F5F163009F456
:1020900049C0E816F90691F380914C0281FD0E9437
:1020A000ED120E941810782E10E0812F0E94E41289
:1020B0007C01F401A190B1904F018A159B0561F15B
:1020C00000E0CC24C394D12CAE24BF24C5018C21C4
:1020D0009D21892BC1F07720B1F00E831F8321E071
:1020E000C7018C219D21892B09F420E028870E94BB
:1020F000F31A8160782F9A8789874E815F8168857E
:102100008A850E94B3060F5FCC0CDD1C0E30F1F601
:10211000F4013297F182E0821F5F163031F60E949F
:10212000F40F22C0E816F90609F0B6CF0E94F31AA0
:102130008C01809136029091370208171907A1F09F
:102140008FEF89838A831B820E94F31A8160782F24
:102150009D838C8349815A816B818D810E94B30656
:1021600010933702009336020E94F8140E949A06D8
:102170002A96EDE00C943822CF93DF930E94BA1197
:10218000EC01811520E59207D0F5811530E4930725
:1021900008F086C0803E910518F58D3C910508F049
:1021A0007DC0883A910570F4853A910508F06EC0BB
:1021B0008130910501F10097F1F00497E0F4D0E04F
:1021C000C0E019C0813C9105D0F7C85AD0E0CC0FCF
:1021D000DD1FC85BDE4F0990D881C02DD4640BC0D1
:1021E0008115904208F0A8C0C11581E0D80718F405
:1021F000C83ED10520F7CE01DF91CF9108958036FA
:1022000022E5920710F5803432E5930708F052C0BA
:102210008032924508F047C0C11582E5D80708F41E
:102220007DC02C2F2695269540E2249F90011124F5
:102230008C2F8370C1E0D0E002C0CC0FDD1F8A95E7
:10224000E2F7C22BD32BDD68D6CF803A22E5920786
:1022500060F4803832E5930708F441C0CF71D0E0D4
:10226000DC2FCC27C46FD06AC6CF803C42E59407F0
:1022700008F449C0C03E82E5D80708F0A0CFDC2FA3
:10228000CC27CC27DF71C06FD06AB5CFC55AD0E05C
:10229000C658DE4FC881D0E0D064ADCFD065ABCF9B
:1022A000DF70D06AA8CFCF71D0E0DC2FCC27C16F10
:1022B000D06AA1CF282F26952695277080E2289FE7
:1022C000900111248C2F8370C1E0D0E002C0CC0FAC
:1022D000DD1F8A95E2F7C22BD32BDC688CCF282F29
:1022E00026952695277040E2249F90011124837043
:1022F000C1E0D0E002C0CC0FDD1F8A95E2F7C22B0F
:10230000D32BDA6878CF8F710E945C12C82FD0E08F
:10231000DC2FCC27CC27DF71D0626DCF8C2F8F7153
:102320000E945C1235E0D695C7953A95E1F7CF70DB
:102330009C2FEC01D0695FCF8D2F8F710E945C12B2
:1023400090E0982F882788279F719C012C2BE9010A
:10235000E3CF462F763030F46E3020F4672F0E94A2
:102360007305089590E080E008950E94A9110E94ED
:10237000BC10089582389105B9F1B0F4813391050C
:1023800009F47DC048F48932910509F46DC08A32A0
:10239000910509F47BC008958533910509F45FC068
:1023A0008933910509F10895833E9105D9F138F4F7
:1023B000803E910529F1823E910579F10895863E8E
:1023C0009105D9F1873E910509F43EC0843E9105FF
:1023D00041F520918C0221FF24C080918B0284FD65
:1023E00019C087EE90E0089520918B02237009F0C8
:1023F0005AC020918C0223FF14C089E290E0089516
:1024000020918B0220FD38C030918C0230FF09C032
:1024100024FF43C090E080E0089520918B0222FDCC
:10242000F7CF089520918B0222FD3AC030918C02A3
:1024300030FD39C024FFF5CFEDCF20918B0223FF73
:10244000F0CF24FDE7CFCDCF20918B0223FD2EC00E
:1024500030918C0231FFEECF84EE90E00895209110
:102460008B0225FFDECFC9CF20918B0225FD21C035
:1024700020918C0223FFD5CF89E390E0D2CF209129
:102480008B0226FFCECF8AE290E0089520918B0246
:1024900026FFC7CF81E390E0089583EE90E0089592
:1024A00082EE90E0089580EE90E0089586EE90E050
:1024B000089585E390E0089590918B0292FF06C005
:1024C000282F28712830F9F4877F846093FF06C095
:1024D000282F28712831F1F4877E846120918C02A5
:1024E00020FF06C0382F38713830D9F4877F8160DB
:1024F00021FF06C0282F28712831D1F4877E816101
:1025000094FD877E0895282F24712430F9F68B7F5F
:102510008860DCCF282F2471243101F78B7E8861FD
:10252000DDCF382F3171313019F78E7F8860E0CFE1
:10253000282F2171213121F78E7E8861E1CF80E043
:1025400008950E94550F08950E9402132FEF86E709
:1025500091E0215080409040E1F700C000000E94CF
:10256000021380E00E94E41280FF04C00E94A112C6
:102570000E943E1B08950E94A41208950E945C0FC1
:10258000811102C00E94EB0F0E94670F80934C02E2
:102590000E94710F90938C0280938B020E94BB1259
:1025A0000E946C0F90E00E94490A8091B6019091C0
:1025B000B7010E946A0A089508950E94DC120895E6
:1025C00008950E94E0120895E82FF0E0EE0FFF1F3B
:1025D000E756FD4F80819181089508950E94A903D7
:1025E000EDE8F2E0A9E9B2E0119211921D921D927C
:1025F00082E0E939F807C1F786E00E9415130E94CE
:10260000C5050895CF938DE892E00E94D103282F4D
:1026100046E069E972E08DE892E00E941613C82F47
:102620000E94C8058C2FCF9108950895CF92DF9214
:10263000EF92FF921F93CF93DF936C017B01C42F26
:10264000222349F081E080934F020E94F31A909375
:102650004E0280934D0210914F0211110AC010E0FA
:10266000812FDF91CF911F91FF90EF90DF90CF905E
:10267000089580914D0290914E020E940B1B059788
:1026800070F3D0E0CC0FDD1FAE01B601C7010E9490
:102690004E22892B41F0AE01B601C7010E945B2298
:1026A00010924F02DDCF10E0FBCF0E94C41C0E94AD
:1026B00027100E94D11C08950E94D61C0E94301041
:1026C0000E94F01C08950E948C1A0E94AA1C0E946D
:1026D0000D100E9455130E945C130E941D10FBCF29
:1026E0008091560280FF0DC06091070170E0660F77
:1026F000771F6038710570F56115710569F1862FD6
:10270000089581FF07C06091070184E0689FB001D0
:102710001124EFCF6091070182FD0AC0809155021C
:102720008823A9F02091060160910701821710F01B
:1027300088E0ECCF869FC001112433E0880F991FF9
:102740003A95E1F7622F70E00E94FD21D2CF68E058
:1027500070E0D5CF8FE7089581E00895809156020B
:1027600080FF0CC06091030170E0759567957595C9
:1027700067956115710549F1862F089581FF06C09F
:102780006091030170E075956795F3CF6091030147
:1027900082FD0BC0909154029923A1F06091020137
:1027A00080910301961738F0682F70E0603871054A
:1027B00000F38FE70895899FC001112470E00E9403
:1027C000FD21F4CF61E070E0D7CF81E008958D3C2A
:1027D00031F40E947013819580935A0208958E3CC3
:1027E00019F40E947013F8CF8F3C31F40E947013DB
:1027F0008195809359020895803D19F40E947013C9
:10280000F8CF893D29F40E94AE1380935B020895AE
:102810008A3D21F40E94AE138195F7CF8B3D31F4B0
:102820000E94AE13819580935C0208958C3D19F44B
:102830000E94AE13F8CF9FE2980F983070F4815D3C
:10284000990B21E030E001C0220F8A95EAF78091D0
:102850005802822B8093580208958D3D31F4809167
:10286000560281608093560208958E3D21F4809136
:1028700056028260F7CF8F3DB9F78091560284608F
:10288000F1CF409159028D3C59F480915A0287FF53
:102890000DC010925A0241110BC01092550208C08F
:1028A0008E3C81F480915A0218169CF3442381F0E7
:1028B00080915B0290915C02892B09F05AC01092C2
:1028C000540208958F3C49F447FFF0CF109259020B
:1028D00080915A028111ECCFE0CF803D19F414169B
:1028E000ACF3E4CF90915B02893D29F41916F4F61C
:1028F00010925B02DBCF8A3D19F497FFD7CFF8CF58
:1029000090915C028B3D29F497FFD0CF10925C022E
:10291000CDCF8C3D19F41916CCF3C8CF9FE2980F98
:10292000983090F4815D990B21E030E0B90102C04C
:10293000660F771F8A95E2F7CB0180959091580238
:10294000892380935802B2CF8D3D31F48091560295
:102950008E7F80935602AACF8E3D21F4809156023D
:102960008D7FF7CF8F3D09F0A1CF809156028B7FED
:10297000F0CF08950E94F31A9C0190915902809122
:102980005A02982B21F030935302209352029091D7
:102990005B0280915C02982B21F0309351022093CE
:1029A000500287E592E00E942919089586E0E7E544
:1029B000F2E0DF011D928A95E9F71092550210921C
:1029C0005402109256020895FC01828181110EC0BA
:1029D000838181110BC08481811108C091E08581C0
:1029E000811101C090E0892F8170089581E0FCCFB2
:1029F000A6E0B0E0EEEFF4E10C94262286E0E7E5F5
:102A0000F2E0DE01119601900D928A95E1F71092A5
:102A1000590210925A0210925B0210925C028B8152
:102A20009C81892B89F080915202909153020E94DF
:102A30000B1BAC01909155029923C9F180910801BB
:102A40008417150608F440C08D819E81892B91F072
:102A500080915002909151020E940B1BAC01909109
:102A60005402992309F471C080910401841715065A
:102A700008F479C0BE016F5F7F4F87E592E00E9446
:102A8000431A811105C087E592E00E94E414811188
:102A90000E94BA1486E0FE013196A7E5B2E00190EB
:102AA0000D928A95E1F72696E3E00C94422220915C
:102AB00009018AE0289F900111242417350720F688
:102AC0009F5F9093550202C09F3FD1F71B81112356
:102AD00059F00E9470139FEF11160CF491E0899F3A
:102AE000802D1124809359021C81112359F00E94DA
:102AF00070139FEF11160CF491E0899F802D112423
:102B000080935A0230915902332309F49DCF2091CA
:102B10005A02222309F498CF45EB3403C001112453
:102B2000992359F09093590245EB24039001112405
:102B3000332339F030935A0287CF81E080935902D2
:102B4000F3CF81E080935A027FCF209105018AE084
:102B5000289F900111242417350708F08BCF9F5F21
:102B60009093540202C09F3FD1F71D81112359F069
:102B70000E94AE139FEF11160CF491E0899F802DF7
:102B8000112480935B021E81112359F00E94AE1321
:102B90009FEF11160CF491E0899F802D11248093F2
:102BA0005C0230915B02332309F464CF20915C0214
:102BB000222309F45FCF45EB3403C001112499238C
:102BC00059F090935B0245EB2403900111243323C9
:102BD00039F030935C024ECF81E080935B02F3CFFB
:102BE00081E080935C0246CFCF93DF93EC01FB0141
:102BF0008281882309F4D2C09E01305723323105E7
:102C000008F0B2C00E94710F90938C0280938B02E7
:102C1000FE01E150F047E232F10520F4EC54FD4DA5
:102C20000C94112280918B02816080938B0293C05F
:102C300080918C02886080938C028DC080918B0281
:102C40008260F3CF80918B028460EFCF80918B0202
:102C50008860EBCF80918C028160EDCF80918C02F7
:102C60008260E9CF80918B028061DFCF80918B02FF
:102C70008062DBCF80918B028064D7CF0E94F609FF
:102C800080918B028068D1CF80918B028C60CDCFF8
:102C900080918C028360CFCF80918B028E7FC5CFD5
:102CA00080918C02877FC7CF80918B028D7FBDCFB3
:102CB00080918B028B7FB9CF80918B02877FB5CFBC
:102CC00080918C028E7FB7CF80918C028D7FB3CFA5
:102CD00080918B028F7EA9CF80918B028F7DA5CFB3
:102CE00080918B028F7BA1CF0E94F60980918B028D
:102CF0008F779BCF80918B02837F97CF80918C02BF
:102D00008C7F99CF80918B0282FB992790F921E0EB
:102D1000922790FB82F990FB83F987CF80918C02F8
:102D2000982F909591708E7F892B90FB81F983CF9E
:102D300090918B02892F8F7B96FF806476CF0E94C3
:102D4000F60990918B02892F97FB87F980586DCFF8
:102D500081E00E94EE0F80918B0290918C020E9484
:102D6000760F0E94F60980E0DF91CF91089580E010
:102D7000F0CF90918B02892F8F7E94FF806155CF89
:102D800090918B02892F8E7F90FF81604ECF909122
:102D90008C02892F877F93FF88604DCF81E0E4CF3D
:102DA000CF93DF93EB0186319C4711F50E946E0EA5
:102DB0009A81992399F08A7A91E009F490E09093AE
:102DC0005D02811109C089E20E94460E0E94AF0E89
:102DD00080E0DF91CF91089585E3F6CF80915D0289
:102DE000811104C089E20E944E0EF0CF85E3FBCF33
:102DF00081E0EFCF0F931F93CF93DF93C42FD22F98
:102E0000FC0182818823C9F0409360020E94F31A7A
:102E100090935F0280935E0280E28C0F883040F4D2
:102E2000C77081E001C0880FCA95EAF70E94990730
:102E3000DF91CF911F910F910895109160021413AB
:102E400032C080915E0290915F020E940B1B883C11
:102E5000910548F5C0E2CD0F1D17B9F080E2810F52
:102E6000883040F4177081E001C0880F1A95EAF7A6
:102E70000E94A007C83048F481E09D2F977001C0E0
:102E8000880F9A95EAF70E949907802F0E94900771
:102E9000C83070F6D77081E001C0880FDA95EAF784
:102EA0000E94A007C5CF80E28C0F883008F6C7705B
:102EB00081E001C0880FCA95EAF7F2CF0F93DB01DA
:102EC00088519C4787309105A0F5FC01EA52FD4DE1
:102ED0000C94112206E221EE41EE6AE17CE7CD017D
:102EE0000E94FA1680E00F91089507E225EE45EE64
:102EF0006BE17CE7F4CF06E221EE40EE68E17CE78F
:102F0000EECF07E225EE44EE69E17CE7E8CF06E28A
:102F100021EE42EE6CE17CE7E2CF07E225EE46EEE1
:102F20006DE17CE7DCCF08E221E045EE6EE17CE775
:102F3000D6CF12968C91882319F010926002D3CFCD
:102F400081E0D1CF1092B9008CE08093B800089551
:102F5000B0E0A0E0EEEAF7E10C941E22B82EEB01FF
:102F60000E94F31A6C01EE24E394F12CC431D105D4
:102F700060F025E0E22EF12CCF3FDC0731F0CE01EE
:102F800064E170E00E94E9217B0184EAA82E94E8C4
:102F9000992E1092BC00A092BC000E94F31A8C01E2
:102FA0008091BC0087FF0DC08091B900887F883078
:102FB000F9F08091B900887F8031D1F00FEF1FEFD9
:102FC00008C0C8010E940B1BE816F90648F70EEF6F
:102FD0001FEFCF3FDC07E9F2C6010E940B1BC817A9
:102FE000D907B8F6C801CDB7DEB7EBE00C943A22AA
:102FF000B092BB009092BC000E94F31A8C018091A9
:10300000BC0087FF0AC08091B900887F883111F029
:103010008034A1F610E000E0E5CFC8010E940B1B50
:10302000E816F90660F7D3CF0F931F93CF93DF9382
:10303000EB018093BB0084E88093BC000E94F31AEC
:103040008C018091BC0087FF11C02091B900287FBE
:1030500081E090E0283211F490E080E09195819534
:103060009109DF91CF911F910F910895CF3FDC0718
:1030700041F3C8010E940B1BC817D90710F78EEF48
:103080009FEFEFCF0F931F93CF93DF93EC0184EC6F
:103090008093BC000E94F31A8C018091BC0087FFD2
:1030A00008C08091BB0090E0DF91CF911F910F91FC
:1030B0000895CF3FDC0789F3C8010E940B1BC81796
:1030C000D90758F78EEF9FEFEFCF0F931F93CF9352
:1030D000DF93EC0184E88093BC000E94F31A8C011A
:1030E0008091BC0087FF08C08091BB0090E0DF9119
:1030F000CF911F910F910895CF3FDC0789F3C8014D
:103100000E940B1BC817D90758F78EEF9FEFEFCF20
:10311000B0E0A0E0EEE8F8E10C942122C62F6A01AD
:103120007901B8010E94A81797FD0CC0B8018C2F37
:103130000E941418E601EC0CFD1CCE15DF0511F001
:1031400097FF08C024E92093BC00CDB7DEB7E8E0C4
:103150000C943D22B80189910E941418EECFB0E082
:10316000A0E0E5EBF8E10C942122F82EE62EEA012E
:103170006901B8010E94A81797FD15C0B8018E2DEE
:103180000E94141897FD0FC0B8018F2D81600E9416
:10319000A817F12CE12C21E0C21AD108EC14FD048F
:1031A000E0F497FF0DC024E92093BC00181619061F
:1031B00014F490E080E0CDB7DEB7E8E00C943D2257
:1031C000C8010E94421897FD04C0FE01EE0DFF1DCC
:1031D00080832FEFE21AF20AE1CF97FDE4CFC80116
:1031E0000E94651897FDDFCFCC0DDD1D8883DBCFF6
:1031F00090937F0180937E0108959093660280935F
:1032000065020895E0916502F0916602309729F019
:103210000190F081E02D0995089580E00895E091F6
:103220006502F0916602309799F0209112012223F5
:1032300059F020918B0227FF07C0DC012C911196D9
:103240002C93119726E02C930280F381E02D0995B1
:103250000895E0916502F0916602309739F022E01E
:10326000DC012C930480F581E02D09950895A3E0FD
:10327000B0E0EDE3F9E10C94272220916302309154
:10328000640228173907A1F09093640280936302C7
:10329000E0916502F0916602309751F023E02983B6
:1032A0009B838A830680F781E02DCE0101960995E4
:1032B0002396E2E00C944322A3E0B0E0E2E6F9E1D9
:1032C0000C9427222091610230916202281739075D
:1032D000A1F09093620280936102E0916502F09107
:1032E0006602309751F024E029839B838A8306800D
:1032F000F781E02DCE01019609952396E2E00C942A
:103300004322FC01329680911201882321F08091A2
:103310008B029EE187FF96E080E0915008F40895CB
:1033200021912223D1F38F5FF8CF662301F1209101
:1033300012012223F1F020918B0227FF1AC0462FA1
:103340004695469546954E3190F4677021E030E001
:1033500002C0220F331F6A95E2F7840F911DFC0112
:10336000828190E02823392381E0232B69F480E0D7
:103370000895FC01329608962191261721F0E8174E
:10338000F907D1F7F4CF81E008959C01FC01329652
:103390009FEF80E04191461751F09F3F19F4411192
:1033A00001C0982F8F5F8630A9F79F3F09F40895D9
:1033B000290F311D97FD3A95F90162830895FC01AB
:1033C000329608962191261303C0DF0111971C92B3
:1033D000E817F907B9F70895E62FE695E695E6951B
:1033E000EE3168F4E80FF92FF11D677021E030E04D
:1033F00001C0220F6A95EAF78281822B82830895A9
:10340000E62FE695E695E695EE3170F4E80FF92F94
:10341000F11D677021E030E001C0220F6A95EAF7E4
:10342000209582812823228308952091120122234E
:1034300039F020918B0227FF03C00E94EC190895F8
:103440000E94C519089520911201222339F020917C
:103450008B0227FF03C00E94001A08950E94DF1903
:103460000895FC01329680911201882351F08091D9
:103470008B0287FF06C08EE1DF011D928A95E9F776
:10348000089586E0F9CF46E050E00E944E2221E008
:10349000892B09F420E0822F089508950E944D1A87
:1034A0000895811106C081E0809367020E944E1A40
:1034B000089582E0F9CF83E0809367020E944E1A5C
:1034C00008950E94511A089581E0809367020E9436
:1034D0004E1A08950E94641A0895089508950E944E
:1034E0006E1A0895089508950E946D1A0895CF9355
:1034F0000E94721A0E9402130E94731AC0E08C2F5D
:103500000E94E412892B31F4CF5FC630C1F780E00E
:10351000CF91089581E0FCCF85B7806885BF85B7DE
:10352000806885BF08951F921FB61F9211248F9344
:103530009F93AF93BF9380916802811113C08091D4
:10354000A5029091A602A091A702B091A80241966F
:10355000A11DB11D8093A5029093A602A093A7027E
:10356000B093A802BF91AF919F918F911F901FBE02
:103570001F9018958091AD02843031F10E943A0677
:103580001092680288E190E020E40FB6F894A895C4
:10359000809360000FBE2093600083B7817F8460BA
:1035A00083BF83B7816083BF7894889583B78E7F0C
:1035B00083BF0FB6F894A8958091600088618093CE
:1035C0006000109260000FBE08950E94F6090E94EC
:1035D0003F06089582E084BD93E095BD9AEF97BDC4
:1035E00080936E0008952FB7F8948091A502909172
:1035F000A602A091A702B091A8022FBF08952FB7ED
:10360000F8946091A5027091A6028091A702909112
:10361000A8022FBF08959C014FB7F8948091A5028E
:103620009091A602A091A702B091A8024FBF821B61
:10363000930B089578941F921FB61F9211248F93B5
:103640009F93AF93BF938091A5029091A602A09102
:10365000A702B091A8020196A11DB11D8093A502F9
:103660009093A602A093A702B093A802BF91AF9136
:103670009F918F911F901FBE1F90189587E797E726
:10368000909301088093000888E19AE00FB6F894BF
:10369000A895809360000FBE90936000FFCF88E1F3
:1036A0009AE00FB6F894A895809360000FBE9093AF
:1036B0006000FFCF8091890208959B01BA0190912B
:1036C000AD029430E9F48F708093E9009FEF809110
:1036D000E800915085FD06C085ED8A95F1F7000060
:1036E0009111F5CF8091E80085FF0AC050E040E0DD
:1036F000C9010E94621D8091E8008E778093E800E6
:10370000089543E050E0BC0182E00E945D1B0895F3
:1037100046E050E0BC0182E00E945D1B0895CF931B
:10372000DF93EC0180911201811111C048E050E05B
:10373000BE0181E00E945D1B80E2FE01A9E6B2E0CD
:1037400001900D928A95E1F7DF91CF9108958091D4
:103750008B0287FF05C040E282E050E0BE01EACF65
:1037600048E081E0FACF8091AC02811109C00E944B
:10377000F21E0E944F1F8091E20084608093E2005D
:1037800008951092AC0208950E94641A0895609101
:10379000A90281E0611101C080E00E945B1A0895D6
:1037A0009091AD0281E0943009F080E06091A9022F
:1037B0000E94611A089542E061EC81E00E946E1E51
:1037C00042E261EC82E00E946E1E9091AD0281E0C7
:1037D000943009F080E06091A9020E94511A089586
:1037E0008091AF02833009F461C030F48130D1F1AF
:1037F000823009F49EC008958A3009F48AC08B3063
:1038000009F46FC0893009F050C08091AE02813256
:1038100009F04BC08091B2029091B302029708F078
:1038200044C08091E800877F8093E8008091E800A1
:1038300082FF37C09091F3008091F200029731F43B
:103840008091F100813011F0863021F48091F100F7
:10385000809389028091E8008B778093E8000E9432
:10386000A21E23C08091AE02813AF9F48091E80053
:10387000877F8093E8008091B2029091B302892BF8
:1038800061F460E289E692E070E00E94B11D8091EF
:10389000E8008B778093E800089560E090E080E096
:1038A000F3CF8091AD028111C1CF08958091AE0216
:1038B000813AD9F78091B2029091B302892BA9F78E
:1038C0008091E800877F8093E8008091E80080FF86
:1038D000FCCF809112018093F1008091E8008E77F7
:1038E000BCCF8091AE02813201F78091B2029091FB
:1038F000B302892BD1F68091E800877F8093E8009E
:103900000E94A21E8091B002809312010E94F609CB
:1039100008958091AE02813241F68091E800877F60
:103920008093E8000E94A21E8091B10280938A02D7
:1039300008958091AE02813A09F0B7CF8091E800F6
:10394000877F8093E8008091E80080FFFCCF809122
:103950008A02C1CF84B7877F84BF0FB6F894A89539
:1039600080916000886180936000109260000FBEBB
:1039700080E890E00FB6F894809361009093610026
:103980000FBE0E946A1A08950E94F21E0E944F1FE5
:10399000E2EEF0E080818460808378940E94CE2102
:1039A00008958AE091E00E94FD1808958091AD028B
:1039B000853031F48091AD02853019F00E94E51A0E
:1039C00008950E94BA1A8091AB02882399F30E944D
:1039D000771A882379F30E944C1D0E94F609EACFDA
:1039E00008950E94F41C0895292F332723303105B0
:1039F00019F168F42130310509F444C02230310551
:103A000009F445C090E080E030E020E025C021329C
:103A1000310549F122323105A9F780E490E02BEC21
:103A200035E061157105C1F086EB90E025E135E0E8
:103A30006130710589F0E6CF99278130910581F0D9
:103A4000009729F00297F1F6ECE9F4E002C0E4EC0B
:103A5000F4E0849190E09F01FA013183208308957E
:103A6000E0EBF4E0F6CF89E090E02AED34E0611578
:103A7000710591F389E090E023EF34E06130710546
:103A800059F3C0CF82E190E023E035E0E5CF8BE34E
:103A900090E028EC34E0E0CF80E189BD82E189BD8F
:103AA00009B400FEFDCF8091D8008F7D8093D800AF
:103AB0008091E00082608093E0008091E00081FDD1
:103AC000FCCF0895AF92BF92CF92DF92FF920F93F7
:103AD0001F93CF93DF936C01EB018A010E94C11EFB
:103AE000F82E811123C00115110539F0F8018081EC
:103AF0009181C81BD90BC80ED91EB12CA12C2097BF
:103B0000A9F08091E80085FD22C08091E8008E77C1
:103B10008093E80001151105A1F0F80180819181E1
:103B2000A80EB91EB182A08285E0F82E8F2DDF91FC
:103B3000CF911F910F91FF90DF90CF90BF90AF90EA
:103B400008950E94C11E8823D1F2F82EEFCFF6010E
:103B500081916F018093F1002197FFEFAF1ABF0AA7
:103B6000CECFFC018091B4029091B50286179707E1
:103B7000A0F06115710529F49091E8009E7790936B
:103B8000E80090E06115710551F4911108C0809131
:103B9000E80082FF34C080E00895BC01F2CF80913C
:103BA000AD028823C1F18530C1F18091E80083FD29
:103BB00030C08091E80082FDEACF8091E80080FF6C
:103BC000E1CF8091F3002091F200382F611571054B
:103BD00019F02830310558F091E02830310509F00E
:103BE00090E02091E8002E772093E800CBCF8191E0
:103BF0008093F100615071092F5F3F4FE7CF8091B3
:103C0000AD02882341F0853041F08091E80083FFC8
:103C1000BECF81E0089582E0089583E00895FC011D
:103C20008091B4029091B50286179707A0F06115B4
:103C3000710529F48091E8008E778093E80090E088
:103C40006115710551F4911108C08091E80082FF5F
:103C500035C080E00895BC01F2CF8091AD02882389
:103C6000C9F18530C9F18091E80083FD31C08091B0
:103C7000E80082FDEACF8091E80080FFE1CF8091EB
:103C8000F3002091F200382F6115710519F02830EA
:103C9000310558F091E02830310509F090E080912D
:103CA000E8008E778093E800CBCF84918093F10079
:103CB0003196615071092F5F3F4FE6CF8091AD0281
:103CC000882341F0853041F08091E80083FFBDCF2B
:103CD00081E0089582E0089583E00895982F973059
:103CE00028F08F708093E90081E008959093E900B7
:103CF000242F762F50E0981731F07091EC0020912E
:103D0000ED005091F00021FD02C09F5FE8CF30919F
:103D1000EB003E7F3093EB003091ED003D7F309320
:103D2000ED003091EB0031603093EB007093EC00CC
:103D30002093ED005093F0002091EE0027FDE5CF99
:103D400080E008958091AE0287FF13C08091E80063
:103D500082FF06C08091E8008B778093E80004C062
:103D60008091AD028111F2CF08958091AD02882338
:103D7000D9F38091E80080FFF8CF8091E8008E773A
:103D8000ECCF2091E4003091E50095E6A901209167
:103D9000EC00822F817020FF06C08091E80080FF38
:103DA00006C080E008952091E80022FD1AC08091AD
:103DB000AD02882389F0853089F08091EB0085FD84
:103DC0000FC02091E4003091E50042175307F9F24B
:103DD0009150E1F684E0089582E0089583E008952B
:103DE00081E008950E94611F0E94691FE0EEF0E0EB
:103DF000808181608083E8EDF0E080818F7780832F
:103E000019BCA7EDB0E08C918E7F8C9380818F7E62
:103E100080831092AC0208950F931F93CF93DF938A
:103E20000E94611F0E94691FC8EDD0E088818F77D2
:103E3000888388818068888388818F7D888319BC86
:103E40001092AD021092A9021092AB021092AA0237
:103E500000EE10E0F80180818B7F80838881816093
:103E6000888342E060E080E00E946E1EE1EEF0E0B8
:103E700080818E7F8083E2EEF0E0808181608083AC
:103E8000808188608083F80180818E7F8083888133
:103E900080618883DF91CF911F910F910895E8EDA4
:103EA000F0E080818F7E8083E7EDF0E080818160AB
:103EB000808384E082BF81E08093AC020E940C1F6B
:103EC0000895E8EDF0E080818E7F80831092E2001B
:103ED00008951092DA001092E10008951F920F9257
:103EE0000FB60F9211242F933F934F935F936F93CD
:103EF0007F938F939F93AF93BF93EF93FF938091A3
:103F0000E10082FF0BC08091E20082FF07C0809138
:103F1000E1008B7F8093E1000E94CD218091DA0047
:103F200080FF19C08091D80080FF15C08091DA0011
:103F30008E7F8093DA008091D90080FF96C080E167
:103F400089BD82E189BD09B400FEFDCF81E0809387
:103F5000AD020E94B31B8091E10080FF19C08091E7
:103F6000E20080FF15C08091E2008E7F8093E20026
:103F70008091E20080618093E2008091D8008062AD
:103F80008093D80019BC85E08093AD020E94C71BC6
:103F90008091E10084FF2BC08091E20084FF27C064
:103FA00080E189BD82E189BD89B5982F917080FF3C
:103FB000FBCF8091D8008F7D8093D8008091E10065
:103FC0008F7E8093E1008091E2008F7E8093E200FB
:103FD0008091E20081608093E2008091A9028823B1
:103FE00009F449C084E08093AD020E94D01B809107
:103FF000E10083FF29C08091E20083FF25C080910A
:10400000E100877F8093E10082E08093AD0210920F
:10401000A9028091E1008E7F8093E1008091E2000F
:104020008E7F8093E2008091E20080618093E200C5
:1040300042E060E080E00E946E1E8091F0008860A7
:104040008093F0000E94C41BFF91EF91BF91AF914C
:104050009F918F917F916F915F914F913F912F91A0
:104060000F900FBE0F901F90189519BC1092AD02C3
:104070000E94C11B70CF8091E30087FD93E0909375
:10408000AD02B3CF1F920F920FB60F9211242F9350
:104090003F934F935F936F937F938F939F93AF93D0
:1040A000BF93CF93DF93EF93FF93D091E900DF703D
:1040B0008091EC00C82FC17080FDC0E81092E9002B
:1040C0008091F000877F8093F00078940E94862092
:1040D0001092E9008091F00088608093F000CD2B71
:1040E000CF70C093E900FF91EF91DF91CF91BF9125
:1040F000AF919F918F917F916F915F914F913F9180
:104100002F910F900FBE0F901F901895AAE2B0E06C
:10411000ECE8F0E20C9426228EEA92E02091F10085
:10412000FC012193CF01F2E0863B9F07B9F70E9483
:10413000F01B8091E80083FF1EC18091AE02909138
:10414000AF029A3008F017C1E92FF0E0E352FD4DBD
:104150000C941122803899F0823809F00CC18091BA
:10416000B2028F70873008F006C18093E900809119
:10417000EB0085FB882780F91092E90006C080914A
:10418000AA029091AB02911182609091E800977F12
:104190009093E8008093F1001092F1008091E80084
:1041A0008E77E5C0882309F4D3C0823009F0E3C0DC
:1041B0008091B0028111D6C08091B2028F702FEF32
:1041C000280F263008F0D7C08093E9002091EB003B
:1041D00020FFC8C0933031F48091EB00806280935F
:1041E000EB00C0C09091EB0090619093EB0021E058
:1041F00030E001C0220F8A95EAF72093EA0010927E
:10420000EA008091EB008860EACF8111B4C0109180
:10421000B0021F778091E3008078812B8093E300C8
:104220008091E800877F8093E8000E94A21E809121
:10423000E80080FFFCCF8091E30080688093E3007A
:1042400082E0111183E08093AD0295C080588230E6
:1042500008F091C08091B0029091B1028C3D23E0B2
:104260009207A1F583E08A838AE289834FB7F894A5
:10427000DE01139620E03EE051E2E32FF0E05093A0
:104280005700E49120FF03C0E295EF703F5FEF70AD
:104290008E2F90E0EA30C0F0C7968D939D932F5FEC
:1042A000243159F74FBF8091E800877F8093E80061
:1042B0006AE270E0CE0101960E94B11D8091E80093
:1042C0008B778093E80057C0C096E7CF6091B20229
:1042D0007091B302AE014F5F5F4F0E94F11CBC01B1
:1042E000892B09F448C09091E800977F9093E800EB
:1042F00089819A810E940F1EE1CF8038E1F580917B
:10430000E800877F8093E8008091A9028093F10004
:1043100045CF811130C09091B002923060F580910C
:10432000E800877F8093E8009093A9020E94A21E74
:104330008091A902882311F084E005C08091E300F8
:1043400087FDFACF81E08093AD020E94DB1B13C092
:104350008091B002813079F481E0933009F080E0FF
:104360008093AB021092E9008091E800877F8093F0
:10437000E8000E94A21E8091E80083FF0AC080919D
:10438000E800877F8093E8008091EB008062809353
:10439000EB00AA96E3E00C9442220895CF9380911B
:1043A000AD028823A1F0C091E900CF709091EC009C
:1043B000892F817090FD80E8C82B1092E9008091D0
:1043C000E80083FD0E948620CF70C093E900CF9162
:1043D0000895AA1BBB1B51E107C0AA1FBB1FA6174C
:1043E000B70710F0A61BB70B881F991F5A95A9F79E
:1043F00080959095BC01CD01089597FB072E16F48A
:10440000009407D077FD09D00E94E92107FC05D070
:104410003EF4909581959F4F0895709561957F4FDB
:104420000895EE0FFF1F0590F491E02D09942F924F
:104430003F924F925F926F927F928F929F92AF9234
:10444000BF92CF92DF92EF92FF920F931F93CF9381
:10445000DF93CDB7DEB7CA1BDB0B0FB6F894DEBF18
:104460000FBECDBF09942A88398848885F846E843E
:104470007D848C849B84AA84B984C884DF80EE8088
:10448000FD800C811B81AA81B981CE0FD11D0FB691
:10449000F894DEBF0FBECDBFED010895FB01DC0136
:1044A00004C08D910190801921F441505040C8F70B
:1044B000881B990B0895FB01DC0102C001900D924D
:1044C00041505040D8F70895F999FECF92BD81BD73
:1044D000F89A992780B50895A8E1B0E042E050E04D
:1044E0000C949822262FF999FECF92BD81BDF89A9F
:1044F000019700B4021639F01FBA20BD0FB6F89428
:10450000FA9AF99A0FBE08950396272F0E947322F4
:104510000E947222252F0E947322242F0C94732252
:104520000196272F0E9473220C947222DC01CB018A
:10453000FC01F999FECF06C0F2BDE1BDF89A3196B3
:1045400000B40D9241505040B8F70895F894FFCF51
:10455000E207E20713081308A508C1084208420849
:10456000C6083709460946094C16C01654161E16C9
:104570002216581626165C1668163216B916361606
:104580006C163A16701698163E1674169F16441638
:104590007A1682162A1660162E16641648167E168D
:1045A0008E16A816B71618165016C7167B17811741
:1045B0006A17751787178D179317AA20D220BB216A
:0E45C000D220BB2105212621BB217D2189218E
:1045CE001402280850011E0A14015A1B8F1B881B47
:1045DE00811B01E200E900EA00B500B600B700CD8C
:1045EE00008301CC008A019201940121022302244E
:1045FE00022502260227022A02B300B4006F0070C1
:10460E00009F01CB01818283E200E900EA00B50040
:10461E00B600B700CD008301CC008A01920194014F
:10462E002102230224022502260227022A02B300B7
:0E463E00B4006F0070009F01CB0181828300E9
:00000001FF
