:100000000C9458040C9475040C9475040C947504A9
:100010000C9475040C9475040C9475040C9475047C
:100020000C9475040C9475040C9473210C94472261
:100030000C943D1B0C9475040C9475040C9475047D
:100040000C9475040C9475040C9475040C9475044C
:100050000C9475040C94C41B0C9475040C947504D6
:100060000C9475040C9475040C9475040C9475042C
:100070000C9475040C9475040C9475040C9475041C
:100080000C9475040C9475040C9475040C9475040C
:100090000C9475040C9475040C9475040C947504FC
:1000A0000C9475040C9475040C94750435001E00B2
:1000B0001F0020002100220023002400250026002C
:1000C00027002D002E0029002B0014001A00080024
:1000D00015001700300031001C0018000C00120041
:1000E00013006400390004001600070009000A002C
:1000F000000000000B000D000E000F003300870011
:10010000E1001D001B0006001900050062520007F7
:1001100011001000360037003800E500E000815281
:10012000E200E20083520000000000000000845260
:10013000665265523E01440000004A002A002C002D
:100140004C005000510052004F0046002800E300D0
:10015000A152000001003A003B003C003D003E007F
:100160003F004000410042004300440045000100C0
:1001700001001E021F022F023002310261520100F3
:100180005200240025002600250201000100200263
:100190002102260227023500000000005100210044
:1001A000220023002E0201000100220223022F0060
:1001B000300035020100010024021E001F00200053
:1001C00031000100010001000100010001000000F8
:1001D0000000000000000100370027002E00010091
:1001E0000000010001000100010001000100010008
:1001F00001000100010001000100000001001E00DB
:100200001F002000210022002300240025002600DA
:1002100027002D002D000100010014001A00080025
:100220001500010000000100000000005200000065
:100230000000010001000400160007000900010091
:10024000000000000000500051004F0000000100BD
:100250000100010001000100010001000100010096
:10026000000000000000000000000100010001008B
:10027000010001000100000000000000000001007A
:100280000100010001000100000001000100010067
:100290000100010001000100010001000100010056
:1002A000010000000000000000000000000000004D
:1002B000000000000000000000000000000000003E
:1002C000000000000000000000000000000000002E
:1002D00000000000000035022F00000000000000B8
:1002E000000000000000000000000000000000000E
:1002F0000000350034000000010000000000000094
:1003000000000000000000000000000000000000ED
:1003100000000000000000000000000001000000DC
:1003200000000000000000000000000000000000CD
:1003300000000000000000000000000000000000BD
:1003400000000000000000000000000000001E028D
:100350001F022002210222022402000000000000ED
:1003600000000000000001000000380236023702E1
:100370003002310200000100000000000000000017
:100380000000000000002D0226022702300031008C
:10039000000000000000000000000000000000005D
:1003A000000000000000000000000000000000004D
:1003B000000000000000000000000000000000003D
:1003C000000000000000000000000000000001002C
:1003D000000000000000000000000000000000001D
:1003E000000000000000000000000000000000000D
:1003F0000000000001001E001F002000210022005C
:1004000023000000000000000000000000000100C8
:10041000010014001A000800150017000000000079
:1004200000000000000000000000000001000400C7
:100430001600070009000A0000000000000000008C
:10044000000000000000000001001D001B0006006D
:10045000190005000000000000000000000000007E
:100460000000000001000000010001000000000089
:10047000000000000000000000000100000000007B
:100480000000010001000100010001000100000066
:10049000000000000000000000000000010001005A
:1004A0000100010001000100010001000100010044
:1004B0000100010001000100010001000100010034
:1004C0000100010001000100010001000100010024
:1004D0000100010001000100010001000100010014
:1004E0000000000001000100010001000100010006
:1004F000E200010001000100010001000100010013
:1005000001000100010001000100010001000100E3
:10051000E1000100010000000000000000000100F7
:1005200001000100010001000000010001000100C4
:1005300001000100010001000100010001000100B3
:1005400001000000010001000100010001000100A4
:100550000100010001000100010001000100010093
:100560000100010001000100010001000100010083
:100570000100010001000100010001000100010073
:100580000100010001000100000000000100010065
:100590000100010001000100010001000100010053
:1005A0000100010001000100010001000100010043
:1005B0000100010001000100010001000100000034
:1005C0000000000000000100010001000100010026
:1005D0000000010001000100010001000100010014
:1005E0000100010001000100010000000100010004
:1005F00001000100010001000100010001000100F3
:1006000001000100010001000100010001000100E2
:1006100001000100010001000100010001000100D2
:1006200001000100010001000100010001000100C2
:1006300000000000010001000100010001000100B4
:1006400001000100010001000100010001000100A2
:100650000100010001000100010001000100010092
:100660000100010001000000000000000000010086
:100670000100010001000100000001000100010073
:100680000100010001000100010001000100010062
:100690000100000000000000000000000000000059
:1006A000000000000000000000000000000000004A
:1006B000000000000000000000000000000000003A
:1006C000000000000000000000000000000000002A
:1006D000000000000000000000000000000000001A
:1006E000000000000000000000000000000000000A
:1006F00000000000000000000000000000000000FA
:1007000000000000000000000000000000000000E9
:1007100000000000000000000100000000000000D8
:1007200000000000000000000000000000000000C9
:10073000000000000000000000000000120345005F
:10074000720067006F0064006F006E0065000000BB
:1007500012034B002E0054002E0045002E004300D3
:100760002E0000000403090409023B00020100A05E
:10077000FA0904000001030101000921110100012F
:100780002244000705810308000109040100010358
:1007900000000009211101000122B60007058203B3
:1007A00020000112010002000000080912282301A4
:1007B000000102000105010902A10185020901A150
:1007C0000005091901290815002501950875018101
:1007D000020501093009311581257F9502750881CF
:1007E0000609381581257F950175088106050C0AD3
:1007F00038021581257F950175088106C0C0050165
:100800000980A101850319012AB700150126B70047
:10081000950175108100C0050C0901A1018504191D
:10082000012AA002150126A002950175108100C0C1
:1008300005010906A1018506050719E029E715004C
:1008400025019508750181020507190029EF15009A
:10085000250195F075018102050819012905950505
:1008600075019102950175039101C005010906A169
:1008700001050719E029E715002501950875018193
:10088000029501750881010507190029FF15002649
:10089000FF00950675088100050819012905150056
:1008A0002501950575019102950175039101C0001F
:1008B00011241FBECFEFDAE0DEBFCDBF11E0A0E014
:1008C000B1E0E8EFF9E402C005900D92A638B10757
:1008D000D9F722E0A6E8B1E001C01D92A83CB2071A
:1008E000E1F70E9440150C94BB240C940000809109
:1008F000880181110EC00E94041C2FEF83ED90E34C
:10090000215080409040E1F700C0000081E08093DA
:1009100088010895A1E0B0E0E0E9F4E00C94282417
:100920004983F82EFF0C81E09DE0E92E611103C0A0
:1009300080E02CE0E22E04E610E021E030E0AE01A1
:100940004F5F5F4F682F8F2D0E94EA1C892B61F447
:1009500021E030E0AE014F5F5F4F6E2D8F2D0E9482
:10096000EA1C21E0892B09F020E0822F2196E6E0A5
:100970000C9444240F931F93880F61110FC062E100
:1009800004E610E021E030E00E94111D21E0892BF7
:1009900009F020E0822F1F910F91089563E1F0CFBD
:1009A00080918B0181110CC04FEF61E080E20E94C9
:1009B0008A0491E0892790918B01980F90938B0185
:1009C0000895CF934FEF60E080E20E948A04C1E077
:1009D0008C2790918B01980F90938B014FEF61E0E2
:1009E00080E20E948A048C27C0918B01C80FC093BB
:1009F0008B01CF91089580E20E9477042198299875
:100A000022982A9884988C9885988D9886988E98A4
:100A100087988F9829982A988C988D988E988F9877
:100A20000E94D0046E98769A52985A9A53985B9A7C
:100A300054985C9A57985F9A3E98469A24982C9AB4
:100A40000E94E1040895A1E0B0E0E9E2F5E00C9431
:100A50001C248C0180918B01882371F08091890185
:100A600090918A010196811520E2920708F0A6C0B4
:100A700090938A01809389014801512C412C00E018
:100A8000142DF401219031904F01129212925F01C6
:100A9000133009F4ACC008F09CC0113009F4A1C0B7
:100AA000123009F4A1C0849A8C9880918B01920134
:100AB0002F5F3F4F2901882309F49FC08FE891E001
:100AC0000197F1F700C0000080918B01712C612C1F
:100AD00081111FC09FEF9983AE014F5F5F4F60E0B0
:100AE00080E20E94BA0491E0892790918B01980FCF
:100AF00090938B01898180950E94A307982F9695EA
:100B00009C778370892B782E7594682E6794662461
:100B100067944B9985C080E4C82ED12C4A9983C034
:100B2000A0E2B0E04C9982C0E0E1F0E0369981C0EB
:100B300068E070E04F9980C044E050E066997FC063
:100B400022E030E083B182958F7091E0892780FBAD
:100B5000EE24E0F8F12CC701862997298C299D29DC
:100B60008A2B9B2B8E2B9F2B682B792B462B572B5D
:100B7000242B352BF50131832083133009F473C006
:100B800008F060C0113009F466C0123009F467C083
:100B900084988C988C9881E0F50120813181221510
:100BA000330509F480E0082BF6E04F16510409F0F4
:100BB00067CF802F2196E2E10C94382410928A01AD
:100BC0001092890110928B010E94D0040E94E104CE
:100BD00053CF143079F0153009F065CF229A2A9856
:100BE00064CF859A8D9861CF869A8E985ECF879ACA
:100BF0008F985BCF219A299858CF41E050E001C0EF
:100C0000440F2A95EAF7409561E080E20E948A0449
:100C100091E0892790918B01980F90938B0154CF8D
:100C2000D12CC12C7BCFB0E0A0E07CCFF0E0E0E0A5
:100C30007DCF70E060E07ECF50E040E07FCF30E0DD
:100C400020E080CF143099F0153009F0A1CF229820
:100C50002A982A98A0CF85988D988D989CCF8698B1
:100C60008E988E9898CF87988F988F9894CF219848
:100C70002998299890CF259A2D980895269A2E98EC
:100C80000895239A2B980895559A5D9A08950E9485
:100C90003B060E943E060E9441060E944406559A69
:100CA0005D982FEF80E792E0215080409040E1F77F
:100CB00000C00000259A2D9A2FEF80E792E0215086
:100CC00080409040E1F700C00000269A2E9A2FEF56
:100CD00080E792E0215080409040E1F700C00000A2
:100CE000239A2B9A2FEF80E792E02150804090408A
:100CF000E1F700C000000E943B062FEF80E792E082
:100D0000215080409040E1F700C000000E943E0664
:100D10002FEF80E792E0215080409040E1F700C043
:100D200000000E9441062FEF80E792E021508040B2
:100D30009040E1F700C000000E9444060E943B067C
:100D40000E943E060E9441060E9444060E94BE1177
:100D500008958A30B8F46630A8F44E3098F450E024
:100D60009EE0699F400D511D1124FA0194E5899F71
:100D7000E00DF11D1124EE0FFF1FE455FF4F85918B
:100D80009491089581E090E008950E94A906089545
:100D900081E008950E94C806089581E008950E94A8
:100DA000C80608950E94CF06089508950E94D506AA
:100DB0000895A6E0B0E0EFEDF6E00C942B24498313
:100DC0005A839E833091910189819A8131111AC091
:100DD0003E81332399F0222389F00E94960C182F2C
:100DE000682F89819A810E94720C69817A81812F92
:100DF0000E947A132696E3E00C9447240E94840C08
:100E0000182FF3CF0E94960C69817A81F1CFFC01F3
:100E1000262F4081518162817381848195810E9456
:100E2000D9060895CF93DF93EC0161E00E94070794
:100E3000BE010E94CA06DF91CF910895CF93DF9340
:100E4000EC0160E00E940707BE010E94D606DF9118
:100E5000CF91089508950E94470B0E942A072FEF13
:100E600084E39CE0215080409040E1F700C0000006
:100E700008950E942B070E94E81B08950E942B07EB
:100E80000E94F91B08950F931F93CF93DF938C015A
:100E900061E00E940707EC01B8010E94D2068111AF
:100EA00006C080E0DF91CF911F910F910895B801A6
:100EB000CE010E9440198823A1F3B801CE010E94FF
:100EC000D617882371F3B801CE010E94B218882387
:100ED00041F3F8018581882361F0C330FCE7DF0727
:100EE000E9F058F4C115ECE7DE07A9F0C130DC47A2
:100EF000B9F0C8010E94CD06D5CFCB358CE7D80715
:100F0000A9F0CC35ECE7DE0771F0CA35DC4789F78C
:100F10000E94CC10EECF0E943907C3CF0E94D4109C
:100F20000E943E07BECF0E94C210E3CF0E94D010A5
:100F3000E0CF0E94191B0E94ED0708950E94F1075F
:100F40000E941E1B0895829590E09C01220F331F82
:100F5000220F331F2C7C95958795959587958373E4
:100F6000282B30E0C901880F991F8A7A359527957B
:100F70002575822B0895089581E0089580FF08C0AB
:100F80002D9A81FF07C02E9A82FF06C02B9A0895E2
:100F90002D98F7CF2E98F8CF2B980895CF93DF9305
:100FA000D82F0E94BC07C82F882319F08D2F0E94CC
:100FB000BE078C2FDF91CF910895259A2D98269A00
:100FC0002E98239A2B980895CF93C82F0E94BB0781
:100FD0008C2F0E94CE07CF91089580E00E94E407F5
:100FE00008950E9489190E94E4070895CF930E94F2
:100FF0008919C82F80918C018C1779F0C0938C01CE
:101000000E94A91B60938D0170938E0180938F01C4
:10101000909390018C2F0E94E407CF910895ADE04A
:10102000B0E0E5E1F8E00C942C24488759876A8702
:101030007B878C879D8791110E94FA0F1F8286E023
:10104000FE013896DE01119601900D928A95E1F726
:101050008D8181110DC029813A814B815C816D8127
:101060007E818F810E942D0F2D96E2E00C94482402
:10107000CE0101960E9412078111EDCFF5CFFC0140
:101080002481213021F4808191810E94C80C08952F
:10109000662329F00E94D7150E94AA1608950E947F
:1010A0003116FACFCF93C82F8823B9F08CEF8C0F6D
:1010B000813AA8F46C2F80910001909101010E9467
:1010C0001C1A882329F08C2F0E94BA0F0E9433101B
:1010D0008C2F0E94B20F0E943310CF91089580E2AE
:1010E0008C0F883048F4C77081E001C0880FCA9522
:1010F000EAF70E94DD0FEFCFEBE5EC0FE33040F4B1
:10110000F0E0E75BFE4F808190E00E94BE19E5CFE2
:10111000E8E5EC0FEB3150F4F0E0EE0FFF1FED5E71
:10112000FE4F808191810E94E319D7CF83E38C0F1A
:10113000833198F661E08C2F0E944808CECF882337
:1011400081F19CEF980F913A28F40E94BA0F0E9407
:101150003310089590E2980F983050F4877091E022
:1011600001C0990F8A95EAF7892F0E94E30FEFCF0C
:101170009BE5980F933028F490E080E00E94BE1920
:10118000089598E5980F9B3128F490E080E00E9444
:10119000E319089593E3980F933118F460E00E94E7
:1011A000480808951F93CF93DF93182FEB010E94F7
:1011B0005208209739F4812F0E949F08DF91CF9128
:1011C0001F9108958FE99FE00197F1F700C000009B
:1011D0002197EFCF70E060E0893311F460E570E0B3
:1011E0000E94D2080895882321F00E94DD0F0E94FA
:1011F00033100895882321F00E94E30F0E943310DA
:101200000895B0E0A0E0E7E0F9E00C9425246C013B
:10121000D62FC72FFC011581068102950F700E9401
:10122000D30FE82E8823E9F0E12E1123D1F08C2F83
:10123000807F803451F080E28D0F8830F8F001110A
:1012400004C08C2F807E8032C9F080919E0282FF84
:1012500015C082E00E9496100E94D30F91E0E82E04
:10126000E926BC2EB2949FE0B922FBE0FB15B8F151
:10127000EB2DF0E0E354FB4D0C941624E12CF1CF60
:101280000C2F0F70C07F11F00295007F112399F091
:10129000002359F080E28D0F883010F0D11107C083
:1012A000802F0E94DD0F0E9433108D2F5AC0802F97
:1012B0000E94ED0FF8CF8D2F0E949F08002379F038
:1012C00080E28D0F883010F0D11104C0802F0E9471
:1012D000E30F03C0802F0E94F30F0E943310EB2D09
:1012E000E850FF0B349720F40E9489190E94E4070C
:1012F000EE2089F00E94CF0F80FD0DC0F60115820F
:101300000E94C90F0E94D00BC6010E940E0B0E94C2
:10131000C90F0E94E00BCDB7DEB7E9E00C94412481
:101320002C2F2F70F22EC07FC03219F0F29480EF74
:10133000F822DD2341F0D130D1F1112309F444C06A
:101340000023F1F0B2CF80919E0282FD15C01123DF
:1013500059F0FF2029F08F2D0E94DD0F0E943310DD
:1013600080E00E945208BBCF80E00E949F08FF20CF
:1013700009F4B5CF8F2DABCF112369F0011104C053
:101380008F2D0E94F308ABCF013009F0A8CF8F2D2D
:101390000E941110A4CF0111A2CF8F2D0E94FA0834
:1013A0008F2D0E941D108F2D0E94011098CF1123A8
:1013B00021F0063008F093CFE3CF053008F08FCF4F
:1013C0008F2D0E94FA088BCF0023D1F3D93349F433
:1013D0003FEF87EE93E0315080409040E1F700C04E
:1013E00000008D2F0E949F087ACF8C2F86958695BE
:1013F000837069F0813009F072CF8D2F9C2F93702C
:10140000111102C080E090E00E94E31968CF8D2F97
:101410009C2F9370111102C080E090E00E94BE19D1
:101420005ECF612F8D2F0E94480859CF8C2F83707B
:10143000A1F5111154CF4D2F429546954770440F99
:10144000440F2D2F2F7030E0042E02C0220F331FC7
:101450000A94E2F790E080E0D4FF09C08FE090E0CA
:1014600002C0880F991F4A95E2F780959095C6951E
:10147000C695C370822B932BC23049F058F4C1300B
:1014800019F00E94A00B2BCF0E94970B28CF0E942F
:10149000A90B25CF0E94940B22CF8695112311F022
:1014A0008C2F8170882309F41ACF4D2F42954695D1
:1014B0004770440F440F2D2F2F7030E0042E02C0D0
:1014C000220F331F0A94E2F790E080E0D4FF09C0B6
:1014D0008FE090E002C0880F991F4A95E2F780954F
:1014E0009095C695C695C370822B932BC23049F058
:1014F00058F4C13019F00E940B0CF1CE0E94020C7E
:10150000EECE0E94140CEBCE0E94B80BE8CECF704A
:10151000112329F08C2F0E94D00B8D2F32CF8D2FCD
:101520000E94FA088C2F0E94E00BD9CED23F41F1E5
:1015300060F4D03FB9F0D13F81F0112309F446C0E7
:101540000111B3CE8C2F8F711FC0D33F01F1D43F57
:10155000A1F780919E0282FD24C08C2F8F711123F0
:1015600011F312C0112341F0053008F0B8CE8C2FD2
:101570008F710E94F20BB3CE063008F0B0CEF7CFD9
:101580008C2F8F711111CFCF0E94D00BA8CE1123B9
:1015900029F08C2F8F710E94C40BA1CE0E94BF0B2B
:1015A0009ECE112349F0CF718C2F0E94D00B63E0A7
:1015B0008C2F0E94781093CE81E00E94961002300A
:1015C00008F48DCE82E00E94961089CE002359F057
:1015D000D93309F006CFEFEFF7EE23E0E150F0400A
:1015E0002040E1F7FCCE8C2F8F719DCF0F931F937E
:1015F000CF93DF93EC01688179818D810E94D30CB8
:101600008C010E941D0C0E94930BB801CE010E9418
:101610000109DF91CF911F910F910895CF93DF932F
:10162000EC018C81882399F0CE010E94430781113F
:1016300011C00E94D30F882351F08D81882339F087
:1016400080919E0282FF03C082E00E949610DF918B
:10165000CF910895CE010E94F60ACE010E941E0786
:10166000F6CF90E080E00E94BE1990E080E00E94FA
:10167000E3190E94FA0F0E9433100E94C6160E94BE
:10168000AA1608950E94C20F0E94310B08950E946D
:10169000EA0F0E94420B089592959F70963091F048
:1016A00058F4925F9F70923058F4803F19F030F4F4
:1016B000883E30F481E008959A5FF4CF843FD1F3FF
:1016C00080E00895883EB0F3813FD1F7F3CFFC016D
:1016D0002481222339F0808191810E94C80C0E94CC
:1016E0004C0B089580E00895A6E0B0E0EAE7FBE047
:1016F0000C942C242696E2E00C944824A7E0B0E059
:10170000E4E8FBE00C942C242796E2E00C944824B7
:1017100008950E94880B08950E94890B9093C1013F
:101720008093C001089508950E948C0B0895209124
:10173000C0013091C101822B932B0E948C0B089524
:101740002091C0013091C101822393230E948C0B10
:1017500008952091C0013091C101822793270E94F2
:101760008C0B08950E94880B08950E94B20B089577
:101770000E94B50B9093BF018093BE01089590E045
:1017800080E00E94B80B089521E030E0A90102C07A
:10179000440F551F8A95E2F7CA010E94B80B0895BD
:1017A00021E030E002C0220F331F8A95E2F78091DA
:1017B000BE019091BF01822B932B0E94B80B08951C
:1017C00021E030E002C0220F331F8A95E2F7209516
:1017D00030958091BE019091BF01822393230E9496
:1017E000B80B089521E030E002C0220F331F8A9524
:1017F000E2F78091BE019091BF01822793270E945A
:10180000B80B08952091BE013091BF01822B932B1C
:101810000E94B80B08952091BE013091BF01822330
:1018200093230E94B80B08952091BE013091BF010F
:10183000822793270E94B80B08950895262F2770BA
:1018400091E001C0990F2A95EAF723E07695679514
:101850002A95E1F7660F771F660F771FFA01E60FEB
:10186000F71F50E040E0682F70E08191DF01119791
:101870009B01042E02C0369527950A94E2F7217049
:1018800021952827292328272C934F5F5F4F443029
:10189000510559F70895A82FA77023E096958795CD
:1018A0002A95E1F7880F991F880F991FFB01E80F10
:1018B000F91F50E040E080E0219130E00A2E02C0A4
:1018C000369527950A94E2F721703327042E01C03C
:1018D000220F0A94EAF7822B4F5F5F4F4430510585
:1018E00059F70895262F963070F48E3060F4682FE3
:1018F00070E08EE0989F600D711D112442E951E067
:10190000822F0E941E0C0895292F963068F48E3085
:1019100058F490E062E971E03EE0239F800D911D54
:1019200011240E944B0C089580E00895B0E0A0E0DF
:10193000ECE9FCE00C9425247C010091BE0110919F
:10194000BF018091C0019091C101082B192BCFE0FC
:10195000D0E0CC24C394D12CBC2EC6010C2E02C0E6
:10196000880F991F0A94E2F780239123892B49F469
:10197000219790F7B12C8B2DCDB7DEB7E9E00C9411
:101980004124B7018C2F0E948613019789F3F3CF6E
:10199000CF93DF93EC010E94960CBE010E94861348
:1019A000DF91CF9108951F93CF93DF93EB01909137
:1019B0009101992339F0CB010E94C80CDF91CF919E
:1019C0001F910895882369F0CB010E94960C182F6F
:1019D000682FCE010E94720CBE01812F0E948613D7
:1019E000EDCFCB010E94840C182FF6CF1F93CF931D
:1019F000DF93C091C20117E08091C3018C1304C032
:101A0000DF91CF911F910895D0E01C9FF0011D9FA1
:101A1000F00D1124EC53FE4F20813181428153811E
:101A20006481758186810E947E0B2196C770E4CF08
:101A30002091FC013091FD014091FE015091FF0188
:101A40006091000270910102809102020E947E0B5F
:101A50000895CF93DF9380910202807F09F04DC0FB
:101A600080910102882309F448C0E091C20150919D
:101A7000C301C091FD01D091FC016091FE01709104
:101A8000FF0147E05E17C9F18E2F90E0E49FF0015F
:101A90001124EC53FE4F2481222391F1489FF00141
:101AA000499FF00D1124DF01AC53BE4F11962C91CC
:101AB00011972C1325C02C912D1322C015962C9113
:101AC000159721111DC012962D913C91261B370BA5
:101AD000283C3105A8F4809102028F7080618093C8
:101AE0000202E653FE4F80818F70806180838CEF0D
:101AF00091E00E940E0B0E94F60CDF91CF910895A9
:101B0000FC013196E770BECF482F2091C201909121
:101B1000C30157E0291302C080E0089530E0529FCE
:101B2000F001539FF00D1124EC53FE4F8181681397
:101B300006C08081481303C085818111EECF2F5FDD
:101B40003F4F2770E7CFA4E1B0E0E9EAFDE00C9455
:101B500022248C0186E0F801DE011F9601900D928F
:101B60008A95E1F7F8018481E5809CEFA92E91E048
:101B7000B92E9091000291111FC08823D1F0EE2060
:101B8000A9F0C8010E94670BF82E882379F087E03E
:101B9000F801D50101900D928A95E1F7C5010E94E7
:101BA0003F080E94290D0E94180D5FC0C8010E94C5
:101BB0000E0BFF24F39459C0C080D18082809380A3
:101BC000F09001022091FE013091FF01A401421B1F
:101BD000530BFF2009F4F9C0483C510508F0A7C099
:101BE000882309F442C09091FD0180910202282FC0
:101BF000207F09F05CC09D1116C09091FC01C912B4
:101C000012C0E1104EC08F708061809302020E946A
:101C1000180D8CEF91E00E940E0B80910202F801EA
:101C20008683F12C22C0E1103CC06D2D8C2D0E94CA
:101C3000840D6D2D8C2D0E94840DE82E8111F1CF25
:101C4000CF86D88A8F8598890E94C80C292F229523
:101C50002F70243078F49F702230A8F09923B9F0C7
:101C6000F8019681907F99F4FE2C8F2D6496ECE01C
:101C70000C943E242A5F2F70223068F0C8010E9425
:101C80000E0BEF2CF1CF992311F0882369F3805EBE
:101C9000883050F3F3CF803F38F3815F833070F7A3
:101CA000E3CF80910202816080930202BACF9D113E
:101CB00013C09091FC01C9120FC0E1100DC08683C2
:101CC000C8010E940E0B87E0F801ACEFB1E0019073
:101CD0000D928A95E1F767CFC8010E94670B8823B0
:101CE00009F464CFEE2009F461CF809102028032C2
:101CF00088F02091FC013091FD01398728879B866F
:101D00008A86909100029C871D868E87CE01089658
:101D10000E940E0B87E0F801ACEFB1E001900D924C
:101D20008A95E1F70E94290D0E94180D42CF9091EB
:101D30000202292F207FA1F4682D9A8A898AA601A0
:101D40007A899E2D0E94740B8CEF91E00E940E0BFD
:101D500087E0F50111928A95E9F70E94180D61CF8D
:101D6000882309F482CF8091FD018D1110C08091EC
:101D7000FC01C8120CC0E1100AC09683C8010E9481
:101D80000E0B87E0F50111928A95E9F76ECFC80135
:101D90000E94670B882309F409CFEE2009F406CFCF
:101DA00080910202803208F4B5CF2091FC0130917D
:101DB000FD013A8329839C828B82909100029D834E
:101DC0001E828F83CE010196A3CF483C5105B8F502
:101DD000882309F4EECEFE2CEE2009F4E7CE8091A4
:101DE000FD018D111EC08091FC01C8121AC08091A6
:101DF000020280FD0DC0982F907F51F08683903FA6
:101E000009F45ECF982F907F905F8F70892B57CF0A
:101E100087E0F801ACEFB1E001900D928A95E1F70F
:101E200024CFC8010E94670B811174CF80910202F8
:101E3000816080930202C8010E940E0B16CF682DAC
:101E40009A8A898AA6017A899E2D0E94740B87E05E
:101E5000F50111928A95E9F7A6CEAEE0B0E0E3E392
:101E6000FFE00C942B24288739874A875B876C878F
:101E70007D878E87CE0108960E94A30D8823B1F03E
:101E80006C85662341F0288539854A855B857D858B
:101E90008E850E947E0B17E08091C2019091C30154
:101EA00089133DC02E96E3E00C94472487E0FE01A1
:101EB0003896DE01119601900D928A95E1F78C8596
:101EC000882349F32091C30130E0C901019687704E
:101ED00099274091C2014817190699F097E0929FFF
:101EE000D001939FB00D1124AC53BE4FFE0131962B
:101EF00001900D929A95E1F78093C3010E94F60C30
:101F0000CACF0E94470B1092C3011092C20187E012
:101F1000ECEFF1E0DF011D928A95E9F7BCCF819FDC
:101F2000C00111248C539E4F0E94A30D882309F4F5
:101F3000B9CFE091C2011E9FF0011124EC53FE4F76
:101F400020813181428153816481758186810E9423
:101F50007E0B8091C20190E0019687709927809353
:101F6000C2019ACF682F80910001909101010E94D7
:101F70009C1A0895682F80910001909101010E94A0
:101F8000AA1A089580910001909101010E94B81A47
:101F9000089580912302869586958695089580916F
:101FA00023028770089590912302977081E009F4CD
:101FB00080E0089580914702089590914702892B0F
:101FC00080934702089580959091470298239093BB
:101FD0004702089510924702089590914602892B76
:101FE000809346020895809590914602982390939D
:101FF0004602089510924602089508950E94FD0F2A
:10200000089590912402292F282331F08095892367
:10201000809324020E94FE0F089508950E940D10DF
:10202000089590912502292F2823281729F0982B0D
:10203000909325020E940E10089590912502292F59
:10204000282331F080958923809325020E940E1069
:10205000089580912502882329F01092250280E0BE
:102060000E940E100895CF93DF93E0910001F0914C
:102070000101809147028083E0910001F09101010C
:10208000808190914602892B80839091250299232B
:1020900081F0E0910001F09101018081892B808322
:1020A00080910001909101010E94081A81110E9403
:1020B0002910C0910001D091010140E250E063E09D
:1020C00072E0CE010E945324892B59F080E2FE0178
:1020D000A3E0B2E001900D928A95E1F7CE010E9453
:1020E0009619DF91CF91089508950E947410089574
:1020F00090919E0292FF11C098E0899F9001112457
:10210000622B609323020E94D00B8091230286955C
:10211000869586950E94751008950E94D00B0895AB
:102120001092230280E00E9475100895909123027E
:102130008095892380932302282F277069F48917BB
:1021400059F090919E0292FF07C0869586958695DC
:102150000E94E00B0E949010089590919E0292FBC5
:10216000222720F9281769F080FB92F990939E02AC
:1021700080919D0290919E020E94F51082E00E9443
:102180009610089580919E0282FB882780F991E045
:1021900089270E94AD10089581E00E94AD10089536
:1021A00080E00E94AD1008956FEF7FEF90E080E037
:1021B0000E94A524089590E080E00E94712421E00F
:1021C000863E9E4F09F020E0822F089582E090E045
:1021D0000E946924089583E090E00E946924089594
:1021E00084E090E00E9471240895BC0184E090E0B6
:1021F0000E94A5240895AB01BC018FE090E00E94ED
:1022000099240895AB01BC0183E190E00E949924D8
:10221000089560E070E0CB010E940211089560E033
:1022200070E0CB010E94FB100E9409110895A8E004
:10223000B0E0EDE1F1E10C942C2466EE7EEF90E04D
:1022400080E00E94A52460E082E090E00E94872464
:1022500060E083E090E00E9487241092C101109218
:10226000C00160E074E184E090E00E94A52460E099
:1022700086E090E00E9487246FEF87E090E00E9464
:10228000872440E050E0BA0188E090E00E94992461
:1022900060E084E290E00E94872460E087E190E0C3
:1022A0000E94872460E08CE090E00E94872460E038
:1022B0008DE090E00E94872419821A821B821C8282
:1022C0001D821E821F82188648E050E068E170E09F
:1022D000CE0101960E94772440E050E0BA0180E2EE
:1022E00090E00E9499240E940F112896E2E00C943D
:1022F00048240E9417110895682F8EE090E00E94F4
:1023000087240895A6E0B0E0E8E8F1E10C942A24DF
:102310000E949D1B8C018091480290914902801778
:10232000910781F019821A820E949D1B682F4981B2
:102330005A81792F80E090E00E940F0810934902A3
:10234000009348022696E4E00C9446240E94A91BC0
:1023500060935A0270935B0280935C0290935D02DB
:1023600060935602709357028093580290935902DB
:102370000895089508950E94B911089508958CE76D
:1023800094E10E944D150E94BA110E94BB1108955C
:1023900081E008950E94C81108950E94C81108950F
:1023A000089508950E94D0110E94D11108950E94AD
:1023B0009B140E94DD0708950E94941B0E94CB1479
:1023C0000E94D7110E9447060895A6E0B0E0EBEE08
:1023D000F1E10C9420240E94CA1181110AC00E94CC
:1023E00082110E94E8160E94F6072696EEE00C94F1
:1023F0003C240E94DF142AE4822E22E0922E640103
:1024000010E0F601E190F1906F01812F0E94C1145C
:102410001F5F163009F44BC0E816F90691F380915E
:102420005E0281FD0E94CA140E94CD11782E10E038
:1024300066246394812F0E94C1147C01F401A19051
:10244000B1904F018A159B0561F100E0CC24C39443
:10245000D12CAE24BF24C5018C219D21892BC1F034
:102460007720B1F009831A830E949D1B9C838B8384
:102470006D8221E0C7018C219D21892B09F420E088
:1024800049815A816B817C818D81922F0E940F0836
:102490000F5FCC0CDD1C0E30F1F6F4013297F182A7
:1024A000E0821F5F163031F60E94A6119ACFE8161F
:1024B000F90609F0B4CF93CF1F93CF93DF930E9417
:1024C0008B13EC01C11580E5D807F0F5C11580E448
:1024D000D80708F09CC0C03ED10520F5CD3CD10501
:1024E00008F082C0C83AD10578F4C53AD10508F0A1
:1024F00073C0C130D10519F1209709F1C430D1055D
:10250000F0F4D0E0C0E01BC0C33CD105D0F7C85AFE
:10251000D0E0CC0FDD1FC45BDE4F0990D881C02D09
:10252000D4640DC0C11580E2D80708F0D1C0C11530
:1025300081E0D80708F05AC0C83ED10510F7CE0197
:10254000DF91CF911F910895C03682E5D80718F525
:10255000C03482E5D80708F06BC0C03282E5D807E6
:1025600008F05FC0C11582E5D80708F497C02C2F8A
:102570002695269580E2289F900111248C2F837048
:10258000C1E0D0E002C0CC0FDD1F8A95E2F7C22B7C
:10259000D32BDD68D4CFC03A82E5D80760F4C038C9
:1025A00082E5D80708F459C0CF71D0E0DC2FCC27E2
:1025B000C46FD06AC4CFC03C82E5D80708F462C0BB
:1025C000C03E82E5D80708F09CCFDC2FCC27CC2773
:1025D000DF71C06FD06AB3CFC55AD0E0CE57DE4F9F
:1025E000C881D0E0D064ABCFD065A9CF8D2F0E9439
:1025F0002D14182FCE0199270E948B13C12FD0E0E4
:10260000DC2FCC27CC27DF71C82BD92B98CFCE015C
:1026100099270E948B13CC27DF70C82BD92BD06A47
:102620008ECFCF71D0E0DC2FCC27C16FD06A87CF9F
:102630002C2F26952695277080E2289F9001112443
:102640008C2F8370C1E0D0E002C0CC0FDD1F8A95D3
:10265000E2F7C22BD32BDC6872CF2C2F2695269560
:10266000277080E2289F900111248C2F8370C1E095
:10267000D0E002C0CC0FDD1F8A95E2F7C22BD32B2E
:10268000DA685DCF8C2F8F710E942D14C82FD0E097
:10269000DC2FCC27CC27DF71D06251CF8C2F8F71EC
:1026A0000E942D1455E0D695C7955A95E1F7CF7045
:1026B000D0E0DC2FCC27282F30E084FF05C044E099
:1026C000220F331F4A95E1F7C22BD32BD06937CFA6
:1026D0008D2F8F710E942D14182FCE0199270E94E3
:1026E0008B13C12FD0E0DC2FCC27CC27DF71C82B78
:1026F000D92BD2CF462F763030F46E3020F4672FAE
:102700000E94C506089590E080E008950E947A1323
:102710000E945C12089582389105B9F1B0F48133BA
:10272000910509F47DC048F48932910509F46DC022
:102730008A32910509F47BC008958533910509F427
:102740005FC08933910509F10895833E9105D9F160
:1027500038F4803E910529F1823E910579F1089582
:10276000863E9105D9F1873E910509F43EC0843E2D
:10277000910541F520919E0221FF24C080919D0288
:1027800084FD19C087EE90E0089520919D0223708A
:1027900009F05AC020919E0223FF14C089E290E004
:1027A000089520919D0220FD38C030919E0230FF97
:1027B00009C024FF43C090E080E0089520919D026D
:1027C00022FDF7CF089520919D0222FD3AC030915D
:1027D0009E0230FD39C024FFF5CFEDCF20919D0240
:1027E00023FFF0CF24FDE7CFCDCF20919D0223FD25
:1027F0002EC030919E0231FFEECF84EE90E008951E
:1028000020919D0225FFDECFC9CF20919D0225FD9D
:1028100021C020919E0223FFD5CF89E390E0D2CF43
:1028200020919D0226FFCECF8AE290E0089520916C
:102830009D0226FFC7CF81E390E0089583EE90E0EC
:10284000089582EE90E0089580EE90E0089586EE7F
:1028500090E0089585E390E0089590919D0292FFA5
:1028600010C041E0282F2471243009F040E031E00D
:10287000282F2871283009F030E0431711F02CE0A0
:10288000822793FF10C041E0282F2471243109F0E2
:1028900040E031E0282F2871283109F030E043175B
:1028A00011F02CE0822730919E0230FF10C051E0E1
:1028B000282F2171213009F050E041E0282F2871A4
:1028C000283009F040E0541711F029E0822731FF49
:1028D00010C041E0282F2171213109F040E031E0A2
:1028E000282F2871283109F030E0431711F029E032
:1028F000822794FD877E089580E008950E94D41079
:1029000008950E94DF142FEF86E791E02150804068
:102910009040E1F700C000000E94DF1480E00E94B8
:10292000C11480FF04C00E947E140E94E81B089519
:102930000E94811408950E94DB10811102C00E9440
:1029400079110E94E61080935E020E94F01090932D
:102950009E0280939D020E9498140E94EB1090E0CA
:102960000E94940B8091BE019091BF010E94B50B13
:10297000089508950E94B914089508950E94BD1401
:102980000895E82FF0E0EE0FFF1FE555FD4F808121
:102990009181089508950E94FB04EFE9F2E0ABEA0B
:1029A000B2E0119211921D921D9282E0EB3AF8076B
:1029B000C1F786E00E94F2140E94BA140895CF93E2
:1029C0008FE992E00E942305282F46E06BEA72E02F
:1029D0008FE992E00E94F314C82F0E94BE148C2F3E
:1029E000CF9108950895CF92DF92EF92FF921F93B7
:1029F000CF93DF936C017B01C42F222349F081E048
:102A0000809361020E949D1B9093600280935F02FD
:102A10001091610211110AC010E0812FDF91CF9156
:102A20001F91FF90EF90DF90CF90089580915F020B
:102A3000909160020E94B51B059770F3D0E0CC0F17
:102A4000DD1FAE01B601C7010E945324892B41F05E
:102A5000AE01B601C7010E94602410926102DDCF71
:102A600010E0FBCF0E94C41E0E94DC110E94D11E08
:102A700008950E94D61E0E94E5110E94F01E08953E
:102A80000E94361B0E94AA1E0E94BF110E9432158E
:102A90000E9439150E94D211FBCF90938701809339
:102AA00086010895282F35EB2303C001112497FFD9
:102AB00004C080589109892F089580589F4FFBCFFB
:102AC0008091680280FF0DC06091070170E0660F81
:102AD000771F6038710570F56115710569F1862FF2
:102AE000089581FF07C06091070184E0689FB001ED
:102AF0001124EFCF6091070182FD0AC08091670227
:102B00008823A9F02091060160910701821710F037
:102B100088E0ECCF869FC001112433E0880F991F15
:102B20003A95E1F7622F70E00E940224D2CF68E06C
:102B300070E0D5CF8FE7089581E008958091680215
:102B400080FF0CC06091030170E0759567957595E5
:102B500067956115710549F1862F089581FF06C0BB
:102B60006091030170E075956795F3CF6091030163
:102B700082FD0BC0909166029923A1F06091020141
:102B800080910301961738F0682F70E06038710566
:102B900000F38FE70895899FC001112470E00E941F
:102BA0000224F4CF61E070E0D7CF81E008958D3C3E
:102BB00031F40E946015819580936C0208958E3CDB
:102BC00019F40E946015F8CF8F3C31F40E94601513
:102BD000819580936B020895803D19F40E946015E1
:102BE000F8CF893D29F40E949E1580936D020895C7
:102BF0008A3D21F40E949E158195F7CF8B3D31F4DB
:102C00000E949E15819580936E0208958C3D19F463
:102C10000E949E15F8CF9FE2980F983070F4815D66
:102C2000990B21E030E001C0220F8A95EAF78091EC
:102C30006A02822B80936A0208958D3D31F480915F
:102C4000680281608093680208958E3D21F480912E
:102C500068028260F7CF8F3DB9F780916802846087
:102C6000F1CF40916B028D3C59F480916C0287FF4B
:102C70000DC010926C0241110BC01092670208C087
:102C80008E3C81F480916C0218169CF3442381F0F1
:102C900080916D0290916E02892B09F05AC01092BA
:102CA000660208958F3C49F447FFF0CF10926B0203
:102CB00080916C028111ECCFE0CF803D19F41416A5
:102CC000ACF3E4CF90916D02893D29F41916F4F626
:102CD00010926D02DBCF8A3D19F497FFD7CFF8CF62
:102CE00090916E028B3D29F497FFD0CF10926E0227
:102CF000CDCF8C3D19F41916CCF3C8CF9FE2980FB5
:102D0000983090F4815D990B21E030E0B90102C068
:102D1000660F771F8A95E2F7CB01809590916A0242
:102D2000892380936A02B2CF8D3D31F4809168028D
:102D30008E7F80936802AACF8E3D21F48091680235
:102D40008D7FF7CF8F3D09F0A1CF809168028B7FF7
:102D5000F0CF08950E949D1B9C0190916B02809181
:102D60006C02982B21F030936502209364029091BD
:102D70006D0280916E02982B21F0309363022093B4
:102D8000620289E692E00E94B019089586E0E9E6C1
:102D9000F2E0DF011D928A95E9F710926702109226
:102DA0006602109268020895FC01828181110EC0B2
:102DB000838181110BC08481811108C091E08581DC
:102DC000811101C090E0892F8170089581E0FCCFCE
:102DD000A6E0B0E0EEEEF6E10C942B2486E0E9E606
:102DE000F2E0DE01119601900D928A95E1F71092C2
:102DF0006B0210926C0210926D0210926E028B8127
:102E00009C81892B89F080916402909165020E94D7
:102E1000B51BAC01909167029923C9F1809108011B
:102E20008417150608F440C08D819E81892B91F08E
:102E300080916202909163020E94B51BAC01909157
:102E40006602992309F46AC080910401841715066B
:102E500008F472C0BE016F5F7F4F89E692E00E9466
:102E6000CA1A811105C089E692E00E94D416811128
:102E70000E94AA1686E0FE013196A9E6B2E0019012
:102E80000D928A95E1F72696E3E00C944724209171
:102E900009018AE0289F900111242417350720F6A4
:102EA0009F5F9093670202C09F3FD1F71B81112360
:102EB00059F00E9460159FEF11160CF491E0899F64
:102EC000802D112480936B021C81112359F00E94E4
:102ED00060159FEF11160CF491E0899F802D11244D
:102EE00080936C0280916B02882309F49DCF10912E
:102EF0006C02112309F498CF0E945215882351F0D7
:102F000080936B02812F0E945215882329F08093B1
:102F10006C028ACF81E0F4CF81E0F9CF20910501E6
:102F20008AE0289F900111242417350708F092CFDA
:102F30009F5F9093660202C09F3FD1F71D811123CE
:102F400059F00E949E159FEF11160CF491E0899F95
:102F5000802D112480936D021E81112359F00E944F
:102F60009E159FEF11160CF491E0899F802D11247E
:102F700080936E0280916D02882309F46BCF1091CB
:102F80006E02112309F466CF0E945215882351F076
:102F900080936D02812F0E945215882329F080931F
:102FA0006E0258CF81E0F4CF81E0F9CFCF93DF9369
:102FB000EC01FB018581882309F4D2C09E013057C2
:102FC0002332310508F0B2C00E94F01090939E02A7
:102FD00080939D02FE01E150F047E232F10520F4BA
:102FE000E753FB4D0C94162480919D0281608093E1
:102FF0009D0293C080919E02886080939E028DC046
:1030000080919D028260F3CF80919D028460EFCF1A
:1030100080919D028860EBCF80919E028160EDCF10
:1030200080919E028260E9CF80919D028061DFCF16
:1030300080919D028062DBCF80919D028064D7CF1A
:103040000E94470B80919D028068D1CF80919D02A4
:103050008C60CDCF80919E028360CFCF80919D0206
:103060008E7FC5CF80919E02877FC7CF80919D02C2
:103070008D7FBDCF80919D028B7FB9CF80919D02C6
:10308000877FB5CF80919E028E7FB7CF80919E02C1
:103090008D7FB3CF80919D028F7EA9CF80919D02BD
:1030A0008F7DA5CF80919D028F7BA1CF0E94470B82
:1030B00080919D028F779BCF80919D02837F97CFD8
:1030C00080919E028C7F99CF80919D0282FB9927EF
:1030D00090F921E0922790FB82F990FB83F987CF4A
:1030E00080919E02982F909591708E7F892B90FBF6
:1030F00081F983CF90919D02892F8F7B96FF806409
:1031000076CF0E94470B90919D02892F97FB87F9FC
:1031100080586DCF81E00E947C1180919D0290913A
:103120009E020E94F5100E94470B80E0DF91CF9134
:10313000089580E0F0CF90919D02892F8F7E94FFBB
:10314000806155CF90919D02892F8E7F90FF816085
:103150004ECF90919E02892F877F93FF88604DCF3D
:1031600081E0E4CFCF93DF93EB0186319C4711F5EB
:103170000E94DA0F9D81992399F08A7A91E009F4EF
:1031800090E090936F02811109C089E20E94B20F12
:103190000E94331080E0DF91CF91089585E3F6CF50
:1031A00080916F02811104C089E20E94BA0FF0CFB2
:1031B00085E3FBCF81E0EFCF0F931F93CF93DF9396
:1031C000C42FD22FFC0185818823C9F0409372025D
:1031D0000E949D1B909371028093700280E28C0F7D
:1031E000883040F4C77081E001C0880FCA95EAF7C3
:1031F0000E94F308DF91CF911F910F9108951091D4
:103200007202141332C080917002909171020E9478
:10321000B51B883C910548F5C0E2CD0F1D17B9F0EC
:1032200080E2810F883040F4177081E001C0880F80
:103230001A95EAF70E94FA08C83048F481E09D2FF9
:10324000977001C0880F9A95EAF70E94F308802FC3
:103250000E94EA08C83070F6D77081E001C0880F7C
:10326000DA95EAF70E94FA08C5CF80E28C0F883021
:1032700008F6C77081E001C0880FCA95EAF7F2CF5F
:103280000F93DB0188519C4787309105A0F5FC0125
:10329000E551FB4D0C94162406E221EE41EE6AE165
:1032A0007CE7CD010E94DC1880E00F91089507E2D1
:1032B00025EE45EE6BE17CE7F4CF06E221EE40EE31
:1032C00068E17CE7EECF07E225EE44EE69E17CE7BA
:1032D000E8CF06E221EE42EE6CE17CE7E2CF07E2C6
:1032E00025EE46EE6DE17CE7DCCF08E221E045EE1D
:1032F0006EE17CE7D6CF15968C91882319F0109259
:103300007202D3CF81E0D1CF90937802809377027D
:103310000895E0917702F0917802309729F00190BA
:10332000F081E02D0995089580E00895E0917702FD
:10333000F0917802309799F020911201222359F0F0
:1033400020919D0227FF07C0DC012C9111962C9340
:10335000119726E02C930280F381E02D09950895C2
:10336000E0917702F0917802309739F022E0DC01A9
:103370002C930480F581E02D09950895A3E0B0E039
:10338000E4ECF9E10C942C24209175023091760242
:1033900028173907A1F09093760280937502E09187
:1033A0007702F0917802309751F023E029839B83D4
:1033B0008A830680F781E02DCE0101960995239638
:1033C000E2E00C944824A3E0B0E0E9EEF9E10C94CB
:1033D0002C24209173023091740228173907A1F030
:1033E0009093740280937302E0917702F0917802D7
:1033F000309751F024E029839B838A830680F781EC
:10340000E02DCE01019609952396E2E00C94482424
:10341000FC01329680911201882321F080919D0257
:103420009EE187FF96E080E0915008F40895219195
:103430002223D1F38F5FF8CF662301F1209112018F
:103440002223F1F020919D0227FF1AC0462F4695B6
:10345000469546954E3190F4677021E030E002C009
:10346000220F331F6A95E2F7840F911DFC018281C0
:1034700090E02823392381E0232B69F480E008952C
:10348000FC01329608962191261721F0E817F907DA
:10349000D1F7F4CF81E008959C01FC0132969FEFB3
:1034A00080E04191461751F09F3F19F4411101C04E
:1034B000982F8F5F8630A9F79F3F09F40895290F51
:1034C000311D97FD3A95F90162830895FC0132960A
:1034D00008962191261303C0DF0111971C92E8176B
:1034E000F907B9F70895E62FE695E695E695EE31EA
:1034F00068F4E80FF92FF11D677021E030E001C09A
:10350000220F6A95EAF78281822B82830895E62F43
:10351000E695E695E695EE3170F4E80FF92FF11D8A
:10352000677021E030E001C0220F6A95EAF720952C
:10353000828128232283089520911201222339F0C9
:1035400020919D0227FF03C00E94731A08950E94D4
:103550004C1A089520911201222339F020919D02E6
:1035600027FF03C00E94871A08950E94661A0895D3
:10357000FC01329680911201882351F080919D02C6
:1035800087FF06C08EE1DF011D928A95E9F7089555
:1035900086E0F9CFDC01FB0111969C9111978181A6
:1035A000981322C012968C911297882319F0928159
:1035B00089131AC013968C911397882319F093815D
:1035C000891312C015968C911597882319F095814F
:1035D00089130AC014969C91992321F081E02481DB
:1035E000291303C080E001C081E08170089508952F
:1035F0000E94F71A0895811106C081E08093790234
:103600000E94F81A089582E0F9CF83E0809379024E
:103610000E94F81A08950E94FB1A089581E0809391
:1036200079020E94F81A08950E940E1B08950895C9
:1036300008950E94181B0895089508950E94171B6D
:103640000895CF930E941C1B0E94DF140E941D1B33
:10365000C0E08C2F0E94C114892B31F4CF5FC6309B
:10366000C1F780E0CF91089581E0FCCF85B78068F5
:1036700085BF85B7806885BF08951F921FB61F92CA
:1036800011248F939F93AF93BF9380917A028111FE
:1036900013C08091B7029091B802A091B902B09185
:1036A000BA024196A11DB11D8093B7029093B80252
:1036B000A093B902B093BA02BF91AF919F918F913D
:1036C0001F901FBE1F9018958091BF02843031F16A
:1036D0000E94990710927A0288E190E020E40FB6E8
:1036E000F894A895809360000FBE2093600083B784
:1036F000817F846083BF83B7816083BF789488951E
:1037000083B78E7F83BF0FB6F894A8958091600031
:10371000886180936000109260000FBE08950E943F
:10372000470B0E949E07089582E084BD93E095BDFB
:103730009AEF97BD80936E0008952FB7F89480910B
:10374000B7029091B802A091B902B091BA022FBF0E
:1037500008952FB7F8946091B7027091B8028091E4
:10376000B9029091BA022FBF08959C014FB7F89407
:103770008091B7029091B802A091B902B091BA02BB
:103780004FBF821B930B089578941F921FB61F9210
:1037900011248F939F93AF93BF938091B702909121
:1037A000B802A091B902B091BA020196A11DB11D53
:1037B0008093B7029093B802A093B902B093BA0273
:1037C000BF91AF919F918F911F901FBE1F90189531
:1037D00087E797E7909301088093000888E19AE0D3
:1037E0000FB6F894A895809360000FBE9093600088
:1037F000FFCF88E19AE00FB6F894A8958093600017
:103800000FBE90936000FFCF1092B9008CE08093C0
:10381000B8000895B0E0A0E0E0E1FCE10C942324BE
:10382000B82EEB010E949D1B6C01EE24E394F12C59
:10383000C431D10560F025E0E22EF12CCF3FDC074A
:1038400031F0CE0164E170E00E94EE237B0184EA56
:10385000A82E94E8992E1092BC00A092BC000E9461
:103860009D1B8C018091BC0087FF0DC08091B90029
:10387000887F8830F9F08091B900887F8031D1F05D
:103880000FEF1FEF08C0C8010E94B51BE816F9062C
:1038900048F70EEF1FEFCF3FDC07E9F2C6010E94A9
:1038A000B51BC817D907B8F6C801CDB7DEB7EBE02E
:1038B0000C943F24B092BB009092BC000E949D1BD0
:1038C0008C018091BC0087FF0AC08091B900887F7D
:1038D000883111F08034A1F610E000E0E5CFC80196
:1038E0000E94B51BE816F90660F7D3CF0F931F931C
:1038F000CF93DF93EB018093BB0084E88093BC00FF
:103900000E949D1B8C018091BC0087FF11C02091FB
:10391000B900287F81E090E0283211F490E080E047
:10392000919581959109DF91CF911F910F91089504
:10393000CF3FDC0741F3C8010E94B51BC817D90768
:1039400010F78EEF9FEFEFCF0F931F93CF93DF937F
:10395000EC0184EC8093BC000E949D1B8C01809143
:10396000BC0087FF08C08091BB0090E0DF91CF9141
:103970001F910F910895CF3FDC0789F3C8010E9482
:10398000B51BC817D90758F78EEF9FEFEFCF0F93EE
:103990001F93CF93DF93EC0184E88093BC000E94D7
:1039A0009D1B8C018091BC0087FF08C08091BB00EB
:1039B00090E0DF91CF911F910F910895CF3FDC07E9
:1039C00089F3C8010E94B51BC817D90758F78EEFB5
:1039D0009FEFEFCFB0E0A0E0E0EFFCE10C942624F5
:1039E000C62F6A017901B8010E940A1C97FD0CC01C
:1039F000B8018C2F0E94761CE601EC0CFD1CCE1544
:103A0000DF0511F097FF08C024E92093BC00CDB773
:103A1000DEB7E8E00C944224B80189910E94761C3C
:103A2000EECFB0E0A0E0E7E1FDE10C942624F82E13
:103A3000E62EEA016901B8010E940A1C97FD15C033
:103A4000B8018E2D0E94761C97FD0FC0B8018F2DF6
:103A500081600E940A1CF12CE12C21E0C21AD108DD
:103A6000EC14FD04E0F497FF0DC024E92093BC00A2
:103A70001816190614F490E080E0CDB7DEB7E8E040
:103A80000C944224C8010E94A41C97FD04C0FE01AE
:103A9000EE0DFF1D80832FEFE21AF20AE1CF97FDB2
:103AA000E4CFC8010E94C71C97FDDFCFCC0DDD1D00
:103AB0008883DBCF80919B0208959B01BA0190918E
:103AC000BF029430E9F48F708093E9009FEF8091FA
:103AD000E800915085FD06C085ED8A95F1F700005C
:103AE0009111F5CF8091E80085FF0AC050E040E0D9
:103AF000C9010E94671F8091E8008E778093E800DB
:103B0000089543E050E0BC0182E00E945D1D0895ED
:103B100046E050E0BC0182E00E945D1D0895CF9315
:103B2000DF93EC0180911201811111C048E050E057
:103B3000BE0181E00E945D1D80E2FE01ABE7B2E0C4
:103B400001900D928A95E1F7DF91CF9108958091D0
:103B50009D0287FF05C040E282E050E0BE01EACF4F
:103B600048E081E0FACF8091BE02811109C00E9435
:103B7000F7200E9454218091E20084608093E2004B
:103B800008951092BE0208950E940E1B0895609140
:103B9000BB0281E0611101C080E00E94051B089515
:103BA0009091BF0281E0943009F080E06091BB0207
:103BB0000E940B1B089542E061EC81E00E9473209B
:103BC00042E261EC82E00E9473209091BF0281E0AA
:103BD000943009F080E06091BB020E94FB1A0895C6
:103BE0008091C102833009F461C030F48130D1F199
:103BF000823009F49EC008958A3009F48AC08B305F
:103C000009F46FC0893009F050C08091C002813240
:103C100009F04BC08091C4029091C502029708F050
:103C200044C08091E800877F8093E8008091E8009D
:103C300082FF37C09091F3008091F200029731F437
:103C40008091F100813011F0863021F48091F100F3
:103C500080939B028091E8008B778093E8000E941C
:103C6000A72023C08091C002813AF9F48091E80036
:103C7000877F8093E8008091C4029091C502892BD0
:103C800061F460E28BE792E070E00E94B61F8091E1
:103C9000E8008B778093E800089560E090E080E092
:103CA000F3CF8091BF028111C1CF08958091C002EE
:103CB000813AD9F78091C4029091C502892BA9F766
:103CC0008091E800877F8093E8008091E80080FF82
:103CD000FCCF809112018093F1008091E8008E77F3
:103CE000BCCF8091C002813201F78091C4029091D3
:103CF000C502892BD1F68091E800877F8093E80088
:103D00000E94A7208091C202809312010E94470B5B
:103D100008958091C002813241F68091E800877F4A
:103D20008093E8000E94A7208091C30280939C02A8
:103D300008958091C002813A09F0B7CF8091E800E0
:103D4000877F8093E8008091E80080FFFCCF80911E
:103D50009C02C1CF84B7877F84BF0FB6F894A89523
:103D600080916000886180936000109260000FBEB7
:103D700080E890E00FB6F894809361009093610022
:103D80000FBE0E94141B08950E94F7200E94542128
:103D9000E2EEF0E080818460808378940E94D323F7
:103DA00008958AE091E00E94841908958091BF02ED
:103DB000853031F48091BF02853019F00E948F1B4D
:103DC00008950E94641B8091BD02882399F30E948C
:103DD000211B882379F30E94511F0E94470BEACFD1
:103DE00008959A014091C6025091C7020E94F91E9F
:103DF0000895492F55274330510519F168F4413092
:103E0000510509F444C04230510509F445C090E021
:103E100080E050E040E025C04132510549F1423296
:103E20005105A9F784E490E04BE658E0611571056F
:103E3000C1F086EB90E045EB57E06130710589F009
:103E4000E6CF99278130910581F0009729F00297FC
:103E5000F1F6ECE3F7E002C0E4E6F7E0849190E0ED
:103E6000AF01F901518340830895E0E5F7E0F6CF13
:103E700089E090E04AE757E06115710591F389E028
:103E800090E043E957E06130710559F3C0CF82E11A
:103E900090E043EA57E0E5CF8BE390E048E657E057
:103EA000E0CF80E189BD82E189BD09B400FEFDCF8C
:103EB0008091D8008F7D8093D8008091E00082604F
:103EC0008093E0008091E00081FDFCCF0895AF92E7
:103ED000BF92CF92DF92FF920F931F93CF93DF9306
:103EE0006C01EB018A010E94C620F82E811123C0CB
:103EF0000115110539F0F80180819181C81BD90B9A
:103F0000C80ED91EB12CA12C2097A9F08091E800F1
:103F100085FD22C08091E8008E778093E80001152E
:103F20001105A1F0F80180819181A80EB91EB1821E
:103F3000A08285E0F82E8F2DDF91CF911F910F91F8
:103F4000FF90DF90CF90BF90AF9008950E94C62061
:103F50008823D1F2F82EEFCFF60181916F01809383
:103F6000F1002197FFEFAF1ABF0ACECFFC0180917D
:103F7000C6029091C70286179707A0F061157105D8
:103F800029F49091E8009E779093E80090E0611505
:103F9000710551F4911108C08091E80082FF34C08E
:103FA00080E00895BC01F2CF8091BF028823C1F167
:103FB0008530C1F18091E80083FD30C08091E80038
:103FC00082FDEACF8091E80080FFE1CF8091F3008D
:103FD0002091F200382F6115710519F02830310554
:103FE00058F091E02830310509F090E02091E80088
:103FF0002E772093E800CBCF81918093F100615020
:1040000071092F5F3F4FE7CF8091BF02882341F0B6
:10401000853041F08091E80083FFBECF81E00895B4
:1040200082E0089583E00895FC018091C60290919A
:10403000C70286179707A0F06115710529F48091D2
:10404000E8008E778093E80090E06115710551F4E7
:10405000911108C08091E80082FF35C080E008958A
:10406000BC01F2CF8091BF028823C9F18530C9F12C
:104070008091E80083FD31C08091E80082FDEACFA5
:104080008091E80080FFE1CF8091F3002091F20061
:10409000382F6115710519F02830310558F091E07D
:1040A0002830310509F090E08091E8008E77809308
:1040B000E800CBCF84918093F10031966150710973
:1040C0002F5F3F4FE6CF8091BF02882341F08530BC
:1040D00041F08091E80083FFBDCF81E0089582E048
:1040E000089583E00895982F973028F08F7080937B
:1040F000E90081E008959093E900242F762F50E0A5
:10410000981731F07091EC002091ED005091F00083
:1041100021FD02C09F5FE8CF3091EB003E7F3093DE
:10412000EB003091ED003D7F3093ED003091EB00DE
:1041300031603093EB007093EC002093ED005093CE
:10414000F0002091EE0027FDE5CF80E008958091FA
:10415000C00287FF13C08091E80082FF06C08091F3
:10416000E8008B778093E80004C08091BF02811142
:10417000F2CF08958091BF028823D9F38091E8009F
:1041800080FFF8CF8091E8008E77ECCF2091E4009B
:104190003091E50095E6A9012091EC00822F817015
:1041A00020FF06C08091E80080FF06C080E00895EF
:1041B0002091E80022FD1AC08091BF02882389F077
:1041C000853089F08091EB0085FD0FC02091E400DF
:1041D0003091E50042175307F9F29150E1F684E07F
:1041E000089582E0089583E0089581E008950E9493
:1041F00066210E946E21E0EEF0E080818160808384
:10420000E8EDF0E080818F77808319BCA7EDB0E006
:104210008C918E7F8C9380818F7E80831092BE02E2
:1042200008950F931F93CF93DF930E9466210E94FE
:104230006E21C8EDD0E088818F778883888180687F
:10424000888388818F7D888319BC1092BF02109269
:10425000BB021092BD021092BC0200EE10E0F80109
:1042600080818B7F808388818160888342E060E0E9
:1042700080E00E947320E1EEF0E080818E7F8083F9
:10428000E2EEF0E0808181608083808188608083BD
:10429000F80180818E7F8083888180618883DF91AF
:1042A000CF911F910F910895E8EDF0E080818F7E0E
:1042B0008083E7EDF0E080818160808384E082BFCD
:1042C00081E08093BE020E9411210895E8EDF0E0A4
:1042D00080818E7F80831092E20008951092DA0030
:1042E0001092E10008951F920F920FB60F921124C1
:1042F0002F933F934F935F936F937F938F939F93EE
:10430000AF93BF93EF93FF938091E10082FF0BC0C7
:104310008091E20082FF07C08091E1008B7F809353
:10432000E1000E94D2238091DA0080FF19C08091C1
:10433000D80080FF15C08091DA008E7F8093DA006C
:104340008091D90080FF96C080E189BD82E189BD5E
:1043500009B400FEFDCF81E08093BF020E94B31D2F
:104360008091E10080FF19C08091E20080FF15C0BC
:104370008091E2008E7F8093E2008091E200806174
:104380008093E2008091D80080628093D80019BCAD
:1043900085E08093BF020E94C71D8091E10084FFE9
:1043A0002BC08091E20084FF27C080E189BD82E1BB
:1043B00089BD89B5982F917080FFFBCF8091D8007F
:1043C0008F7D8093D8008091E1008F7E8093E10003
:1043D0008091E2008F7E8093E2008091E200816014
:1043E0008093E2008091BB02882309F449C084E0F5
:1043F0008093BF020E94D01D8091E10083FF29C0FD
:104400008091E20083FF25C08091E100877F809347
:10441000E10082E08093BF021092BB028091E10034
:104420008E7F8093E1008091E2008E7F8093E20096
:104430008091E20080618093E20042E060E080E0F1
:104440000E9473208091F00088608093F0000E94A9
:10445000C41DFF91EF91BF91AF919F918F917F917B
:104460006F915F914F913F912F910F900FBE0F90E1
:104470001F90189519BC1092BF020E94C11D70CFE9
:104480008091E30087FD93E09093BF02B3CF1F922A
:104490000F920FB60F9211242F933F934F935F9378
:1044A0006F937F938F939F93AF93BF93CF93DF933C
:1044B000EF93FF93D091E900DF708091EC00C82F5B
:1044C000C17080FDC0E81092E9008091F000877F04
:1044D0008093F00078940E948B221092E9008091E2
:1044E000F00088608093F000CD2BCF70C093E9007E
:1044F000FF91EF91DF91CF91BF91AF919F918F91FC
:104500007F916F915F914F913F912F910F900FBECF
:104510000F901F901895AAE2B0E0E1E9F2E20C9446
:104520002B2480EC92E02091F100FC012193CF013B
:10453000F2E0883C9F07B9F70E94F01D8091E800E7
:1045400083FF1EC18091C0029091C1029A3008F091
:1045500017C1E92FF0E0EE50FB4D0C941624803883
:1045600099F0823809F00CC18091C4028F708730B5
:1045700008F006C18093E9008091EB0085FB882755
:1045800080F91092E90006C08091BC029091BD02B2
:10459000911182609091E800977F9093E80080935A
:1045A000F1001092F1008091E8008E77E5C0882339
:1045B00009F4D3C0823009F0E3C08091C2028111B6
:1045C000D6C08091C4028F702FEF280F263008F0DC
:1045D000D7C08093E9002091EB0020FFC8C0933042
:1045E00031F48091EB0080628093EB00C0C0909129
:1045F000EB0090619093EB0021E030E001C0220FCE
:104600008A95EAF72093EA001092EA008091EB0085
:104610008860EACF8111B4C01091C2021F778091E7
:10462000E3008078812B8093E3008091E800877F0E
:104630008093E8000E94A7208091E80080FFFCCFD3
:104640008091E30080688093E30082E0111183E0B1
:104650008093BF0295C08058823008F091C080914D
:10466000C2029091C3028C3D23E09207A1F583E042
:104670008A838AE289834FB7F894DE01139620E09B
:104680003EE051E2E32FF0E050935700E49120FF29
:1046900003C0E295EF703F5FEF708E2F90E0EA303D
:1046A000C0F0C7968D939D932F5F243159F74FBF6C
:1046B0008091E800877F8093E8006AE270E0CE0195
:1046C00001960E94B61F8091E8008B778093E800E6
:1046D00057C0C096E7CF6091C4027091C502AE0189
:1046E0004F5F5F4F0E94F11EBC01892B09F448C047
:1046F0009091E800977F9093E80089819A810E94C9
:104700001420E1CF8038E1F58091E800877F809325
:10471000E8008091BB028093F10045CF811130C049
:104720009091C202923060F58091E800877F80937B
:10473000E8009093BB020E94A7208091BB028823CF
:1047400011F084E005C08091E30087FDFACF81E09D
:104750008093BF020E94DB1D13C08091C202813092
:1047600079F481E0933009F080E08093BD021092EB
:10477000E9008091E800877F8093E8000E94A720ED
:104780008091E80083FF0AC08091E800877F8093D2
:10479000E8008091EB0080628093EB00AA96E3E052
:1047A0000C9447240895CF938091BF028823A1F0F1
:1047B000C091E900CF709091EC00892F817090FD3D
:1047C00080E8C82B1092E9008091E80083FD0E94E8
:1047D0008B22CF70C093E900CF910895AA1BBB1B19
:1047E00051E107C0AA1FBB1FA617B70710F0A61BF1
:1047F000B70B881F991F5A95A9F780959095BC0112
:10480000CD01089597FB072E16F4009407D077FD8D
:1048100009D00E94EE2307FC05D03EF490958195C7
:104820009F4F0895709561957F4F0895EE0FFF1F7C
:104830000590F491E02D09942F923F924F925F9250
:104840006F927F928F929F92AF92BF92CF92DF92A0
:10485000EF92FF920F931F93CF93DF93CDB7DEB705
:10486000CA1BDB0B0FB6F894DEBF0FBECDBF099499
:104870002A88398848885F846E847D848C849B84F0
:10488000AA84B984C884DF80EE80FD800C811B81FE
:10489000AA81B981CE0FD11D0FB6F894DEBF0FBE2D
:1048A000CDBFED010895FB01DC0104C08D910190A5
:1048B000801921F441505040C8F7881B990B089586
:1048C000FB01DC0102C001900D9241505040D8F72D
:1048D0000895F999FECF92BD81BDF89A992780B5C8
:1048E0000895A8E1B0E042E050E00C94AD24DC0172
:1048F000A40FB51F4150504048F0CB01840F951FC5
:104900002E910E94882441505040D0F70895262FC0
:10491000F999FECF92BD81BDF89A019700B40216B5
:1049200039F01FBA20BD0FB6F894FA9AF99A0FBE63
:1049300008950396272F0E9488240E948724252FFC
:104940000E948824242F0C9488240196272F0E94EB
:1049500088240C948724DC01CB01FC01F999FECF5B
:1049600006C0F2BDE1BDF89A319600B40D924150F7
:104970005040B8F70895F894FFCF400940099009D6
:104980009009F509110A6F096F09160A870A960A34
:10499000960A2E18A2183618001804183A18081883
:1049A0003E184A1814189B1818184E181C1852183C
:1049B0007A1820185618811826185C1864180C18D4
:1049C0004218101846182A18601870188A18991872
:1049D000FA173218A9185D1963194C195719691972
:1049E0006F197519AF22D722C023D722C0230A23FB
:0849F0002B23C02382238E2338
:1049F8002602280850011E0A14015A1D8F1D881D01
:104A0800811D01E200E900EA00B500B600B700CD5B
:104A1800008301CC008A019201940121022302241F
:104A2800022502260227022A02B300B4006F007092
:104A3800009F01CB019F02A002818283E200E9006E
:104A4800EA00B500B600B700CD008301CC008A01AA
:104A58009201940121022302240225022602270240
:104A68002A02B300B4006F0070009F01CB019F02BF
:064A7800A0028182830010
:00000001FF
