:100000000C9456040C9473040C9473040C947304B1
:100010000C9473040C9473040C9473040C94730484
:100020000C9473040C9473040C943B210C940F22D5
:100030000C945B1C0C9473040C9473040C94730464
:100040000C9473040C9473040C9473040C94730454
:100050000C9473040C94E21C0C9473040C947304BD
:100060000C9473040C9473040C9473040C94730434
:100070000C9473040C9473040C9473040C94730424
:100080000C9473040C9473040C9473040C94730414
:100090000C9473040C9473040C9473040C94730404
:1000A0000C9473040C9473040C94730435001E00B8
:1000B0001F0020002100220023002400250026002C
:1000C00027002D002E0029002B0014001A00080024
:1000D00015001700300031001C0018000C00120041
:1000E00013006400390004001600070009000A002C
:1000F000000000000B000D000E000F003300870011
:10010000E1001D001B0006001900050062520007F7
:1001100011001000360037003800E500E000815281
:10012000E20065528352000000000000000084528B
:10013000865234003E0144000000E2002A002C00F8
:100140004C005000510052004F0046002800E300D0
:10015000A152000001003A003B003C003D003E007F
:100160003F004000410042004300440045000100C0
:1001700001001E021F022F023002310261520100F3
:100180005200240025002600250201000100200263
:100190002102260227023500000000005100210044
:1001A000220023002E0201000100220223022F0060
:1001B000300035020100010024021E001F00200053
:1001C00031000100010001000100010001000000F8
:1001D0000000000000000100370027002E00010091
:1001E0000000010001000100010001000100010008
:1001F00001000100010001000100000001001E00DB
:100200001F002000210022002300240025002600DA
:1002100027002D002D000100010014001A00080025
:100220001500010000000100000000005200000065
:100230000000010001000400160007000900010091
:10024000000000000000500051004F0000000100BD
:100250000100010001000100010001000100010096
:10026000000000000000000000000100010001008B
:10027000010001000100000000000000000001007A
:100280000100010001000100000001000100010067
:100290000100010001000100010001000100010056
:1002A000010000000000000000000000000000004D
:1002B000000000000000000000000000000000003E
:1002C000000000000000000000000000000000002E
:1002D00000000000000035022F00000000000000B8
:1002E000000000000000000000000000000000000E
:1002F0000000350034000000010000000000000094
:1003000000000000000000000000000000000000ED
:1003100000000000000000000000000001000000DC
:1003200000000000000000000000000000000000CD
:1003300000000000000000000000000000000000BD
:1003400000000000000000000000000000001E028D
:100350001F022002210222022402000000000000ED
:1003600000000000000001000000380236023702E1
:100370003002310200000100000000000000000017
:100380000000000000002D0226022702300031008C
:10039000000000000000000000000000000000005D
:1003A000000000000000000000000000000000004D
:1003B000000000000000000000000000000000003D
:1003C000000000000000000000000000000001002C
:1003D000000000000000000000000000000000001D
:1003E000000000000000000000000000000000000D
:1003F0000000000001001E001F002000210022005C
:1004000023000000000000000000000000000100C8
:10041000010014001A000800150017000000000079
:1004200000000000000000000000000001000400C7
:100430001600070009000A0000000000000000008C
:10044000000000000000000001001D001B0006006D
:10045000190005000000000000000000000000007E
:100460000000000001000000010001000000000089
:10047000000000000000000000000000000000007C
:100480000000010001000100010001000100000066
:10049000000000000000000000000000010001005A
:1004A0000100010001000100010001000100010044
:1004B0000100010001000100010001000100010034
:1004C0000100010001000100010001000100010024
:1004D0000100010001000100010001000100010014
:1004E0000000000001000100010001000100010006
:1004F000E200010001000100010001000100010013
:1005000001000100010001000100010001000100E3
:10051000E1000100010000000000000000000100F7
:1005200001000100010001000000010001000100C4
:1005300001000100010001000100010001000100B3
:1005400001000000010001000100010001000100A4
:100550000100010001000100010001000100010093
:100560000100010001000100010001000100010083
:100570000100010001000100010001000100010073
:100580000100010001000100000000000100010065
:100590000100010001000100010001000100010053
:1005A0000100010001000100010001000100010043
:1005B0000100010001000100010001000100000034
:1005C0000000000000000100010001000100010026
:1005D0000000010001000100010001000100010014
:1005E0000100010001000100010000000100010004
:1005F00001000100010001000100010001000100F3
:1006000001000100010001000100010001000100E2
:1006100001000100010001000100010001000100D2
:1006200001000100010001000100010001000100C2
:1006300000000000010001000100010001000100B4
:1006400001000100010001000100010001000100A2
:100650000100010001000100010001000100010092
:100660000100010001000000000000000000010086
:100670000100010001000100000001000100010073
:100680000100010001000100010001000100010062
:100690000100000000000000000000000000000059
:1006A000000000000000000000000000000000004A
:1006B000000000000000000000000000000000003A
:1006C000000000000000000000000000000000002A
:1006D000000000000000000000000000000000001A
:1006E000000000000000000000000000000000000A
:1006F00000000000000000000000000000000000FA
:1007000000000000000000000000000000000000E9
:1007100000000000000000000100000000000000D8
:1007200000000000000000000000000000000000C9
:10073000000000000000000000000000120345005F
:10074000720067006F0064006F006E0065000000BB
:1007500012034B002E0054002E0045002E004300D3
:100760002E0000000403090409023B00020100A05E
:10077000FA0904000001030101000921110100012F
:10078000224000070581030800010904010001035C
:1007900000000009211101000122B60007058203B3
:1007A00020000112010002000000080912282301A4
:1007B000000102000105010902A10185020901A150
:1007C0000005091901290815002501950875018101
:1007D000020501093009311581257F9502750881CF
:1007E0000609381581257F950175088106050C0AD3
:1007F00038021581257F950175088106C0C0050165
:100800000980A101850319012AB700150126B70047
:10081000950175108100C0050C0901A1018504191D
:10082000012AA002150126A002950175108100C0C1
:1008300005010906A1018506050719E029E715004C
:1008400025019508750181020507190029EF15009A
:10085000250195F075018102050819012905950505
:1008600075019102950175039101C005010906A169
:1008700001050719E029E715002501950875018193
:10088000029501750881010507190029FF15002649
:10089000FF009506750881000508190129059505D1
:1008A00075019102950175039101C00011241FBECD
:1008B000CFEFDAE0DEBFCDBF11E0A0E0B1E0E8E6C7
:1008C000F9E402C005900D92A638B107D9F722E0ED
:1008D000A6E8B1E001C01D92AE3BB207E1F70E946D
:1008E0002B150C9473240C940000809188018111C5
:1008F0000EC00E946A192FEF83ED90E321508040D3
:100900009040E1F700C0000081E0809388010895E5
:10091000A1E0B0E0EEE8F4E00C94F0234983F82E77
:10092000FF0C81E09DE0E92E611103C080E02CE026
:10093000E22E04E610E021E030E0AE014F5F5F4FB1
:10094000682F8F2D0E94501A892B61F421E030E02E
:10095000AE014F5F5F4F6E2D8F2D0E94501A21E028
:10096000892B09F020E0822F2196E6E00C940C24DC
:100970000F931F93880F61110FC062E104E610E02E
:1009800021E030E00E94771A21E0892B09F020E075
:10099000822F1F910F91089563E1F0CF80918B0119
:1009A00081110CC04FEF61E080E20E94880491E069
:1009B000892790918B01980F90938B010895CF9385
:1009C0004FEF60E080E20E948804C1E08C279091A4
:1009D0008B01980F90938B014FEF61E080E20E94B2
:1009E00088048C27C0918B01C80FC0938B01CF91D5
:1009F000089580E20E9475042198299822982A98E7
:100A000084988C9885988D9886988E9887988F98DA
:100A100029982A988C988D988E988F980E94CE0449
:100A20006E98769A52985A9A53985B9A54985C9A10
:100A300057985F9A3E98469A24982C9A0E94DF0411
:100A40000895A1E0B0E0E7E2F5E00C94E4238C0126
:100A500080918B01882371F08091890190918A01A6
:100A60000196811520E2920708F0A6C090938A01B2
:100A7000809389014801512C412C00E0142DF40190
:100A8000219031904F01129212925F01133009F4BC
:100A9000ACC008F09CC0113009F4A1C0123009F4B8
:100AA000A1C0849A8C9880918B0192012F5F3F4F57
:100AB0002901882309F49FC08FE891E00197F1F79D
:100AC00000C0000080918B01712C612C81111FC02E
:100AD0009FEF9983AE014F5F5F4F60E080E20E941D
:100AE000B80491E0892790918B01980F90938B0126
:100AF000898180950E948E07982F96959C778370A8
:100B0000892B782E7594682E6794662467944B9988
:100B100085C080E4C82ED12C4A9983C0A0E2B0E001
:100B20004C9982C0E0E1F0E0369981C068E070E065
:100B30004F9980C044E050E066997FC022E030E0E9
:100B400083B182958F7091E0892780FBEE24E0F8D5
:100B5000F12CC701862997298C299D298A2B9B2B4B
:100B60008E2B9F2B682B792B462B572B242B352B29
:100B7000F50131832083133009F473C008F060C09D
:100B8000113009F466C0123009F467C084988C985B
:100B90008C9881E0F501208131812215330509F41B
:100BA00080E0082BF6E04F16510409F067CF802F44
:100BB0002196E2E10C94002410928A01109289019E
:100BC00010928B010E94CE040E94DF0453CF143098
:100BD00079F0153009F065CF229A2A9864CF859A6A
:100BE0008D9861CF869A8E985ECF879A8F985BCFCB
:100BF000219A299858CF41E050E001C0440F2A952E
:100C0000EAF7409561E080E20E94880491E089273C
:100C100090918B01980F90938B0154CFD12CC12CC4
:100C20007BCFB0E0A0E07CCFF0E0E0E07DCF70E0F3
:100C300060E07ECF50E040E07FCF30E020E080CF2A
:100C4000143099F0153009F0A1CF22982A982A98EB
:100C5000A0CF85988D988D989CCF86988E988E98E9
:100C600098CF87988F988F9894CF21982998299812
:100C700090CF259A2D980895269A2E980895239A14
:100C80002B980895559A5D9A08950E9439060E94FE
:100C90003C060E943F060E944206559A5D982FEF3F
:100CA00080E792E0215080409040E1F700C00000D2
:100CB000259A2D9A2FEF80E792E0215080409040B6
:100CC000E1F700C00000269A2E9A2FEF80E792E00D
:100CD000215080409040E1F700C00000239A2B9AF9
:100CE0002FEF80E792E0215080409040E1F700C074
:100CF00000000E9439062FEF80E792E021508040EB
:100D00009040E1F700C000000E943C062FEF80E712
:100D100092E0215080409040E1F700C000000E9426
:100D20003F062FEF80E792E0215080409040E1F7AE
:100D300000C000000E9442060E9439060E943C0644
:100D40000E943F060E9442060E94B71108958A3011
:100D5000B8F46630A8F44E3098F450E09EE0699FF5
:100D6000400D511D1124FA0194E5899FE00DF11DFC
:100D70001124EE0FFF1FE455FF4F859194910895C4
:100D800081E090E008950E94A706089581E008950B
:100D900081E008950E94C806089508950E94CD0636
:100DA0000895A5E0B0E0E7EDF6E00C94F323498365
:100DB0005A833091910189819A81311119C066233A
:100DC00099F0222389F00E949F0C182F682F8981A7
:100DD0009A810E947B0C69817A81812F0E94711314
:100DE0002596E3E00C940F240E948D0C182FF3CF6E
:100DF0000E949F0C69817A81F1CFFC01262F4081EE
:100E000051816281738184810E94D106089581E0BD
:100E10000895CF93DF93EC0160E00E94FD06BE01D0
:100E20000E94CE06DF91CF91089508950E944A0B4B
:100E30000E9415072FEF84E39CE0215080409040F2
:100E4000E1F700C0000008950E9416070E94061DE9
:100E500008950E9416070E94171D08950F931F936F
:100E6000CF93DF938C0161E00E94FD06EC01B80195
:100E70000E94CA06811106C080E0DF91CF911F91C8
:100E80000F910895B801CE010E9426198823A1F37D
:100E9000B801CE010E94BC17882371F3B801CE01BE
:100EA0000E949818882341F3F8018281882361F019
:100EB000C330FCE7DF07E9F058F4C115ECE7DE07C3
:100EC000A9F0C130DC47B9F0C8010E94C606D5CFF1
:100ED000CB358CE7D807A9F0CC35ECE7DE0771F00D
:100EE000CA35DC4789F70E94D010EECF0E94240754
:100EF000C3CF0E94D8100E942907BECF0E94C610FF
:100F0000E3CF0E94D410E0CF0E94371C0E94D80784
:100F100008950E94DC070E943C1C0895829590E091
:100F20009C01220F331F220F331F2C7C9595879530
:100F3000959587958373282B30E0C901880F991FF9
:100F40008A7A359527952575822B0895089581E035
:100F5000089580FF08C02D9A81FF07C02E9A82FF56
:100F600006C02B9A08952D98F7CF2E98F8CF2B987E
:100F70000895CF93DF93D82F0E94A707C82F882307
:100F800019F08D2F0E94A9078C2FDF91CF91089522
:100F9000259A2D98269A2E98239A2B980895CF93C8
:100FA000C82F0E94A6078C2F0E94B907CF910895E1
:100FB00080E00E94CF0708950E94CA1A0E94CF07BE
:100FC0000895CF930E94CA1AC82F80918C018C1764
:100FD00079F0C0938C010E94C71C60938D017093BF
:100FE0008E0180938F01909390018C2F0E94CF07E8
:100FF000CF910895ABE0B0E0E0E0F8E00C94F4238A
:101000004F83588769877A878B8761110E941110F7
:101010001E821D8285E0FE013796DE011196019049
:101020000D928A95E1F78C819D81892B61F449812C
:101030005A816B817C818D819E810E94390F2B9614
:10104000E2E00C94102489819A8189238F3F79F3FF
:10105000CE0101960E9407078111E9CFF0CFFC0174
:10106000808191810E94D10C0895662329F00E940D
:10107000AF150E94821608950E940916FACFCF93E9
:10108000C82F8823B9F08CEF8C0F813AA8F46C2F0D
:1010900080910001909101010E945D1B882329F03D
:1010A0008C2F0E94D10F0E9432108C2F0E94C90FEA
:1010B0000E943210CF91089580E28C0F883048F45E
:1010C000C77081E001C0880FCA95EAF70E94F40F4B
:1010D000EFCFEBE5EC0FE33040F4F0E0E75BFE4FE1
:1010E000808190E00E94FF1AE5CFE8E5EC0FEB313C
:1010F00050F4F0E0EE0FFF1FED5EFE4F8081918116
:101100000E94241BD7CF83E38C0F833198F661E0D4
:101110008C2F0E943508CECF882381F19CEF980F49
:10112000913A28F40E94D10F0E943210089590E263
:10113000980F983050F4877091E001C0990F8A950C
:10114000EAF7892F0E94FA0FEFCF9BE5980F9330B3
:1011500028F490E080E00E94FF1A089598E5980F27
:101160009B3128F490E080E00E94241B089593E3D3
:10117000980F933118F460E00E94350808951F938A
:10118000CF93DF93182FEB010E943F08209739F48B
:10119000812F0E948C08DF91CF911F9108958FE9D4
:1011A0009FE00197F1F700C000002197EFCF70E0BA
:1011B00060E0893311F460E570E00E94BF08089593
:1011C000882321F00E94F40F0E9432100895882392
:1011D00021F00E94FA0F0E9432100895B0E0A0E0C2
:1011E000E4EFF8E00C94ED236C01D62FC72FFC013F
:1011F0001281058102950F700E94EA0FE82E882364
:10120000E9F0E12E1123D1F08C2F807F803451F052
:1012100080E28D0F8830F8F0011104C08C2F807EA1
:101220008032C9F08091940282FF15C082E00E9452
:1012300095100E94EA0F91E0E82EE926BC2EB294A8
:101240009FE0B922FBE0FB15B8F1EB2DF0E0EB5885
:10125000FB4D0C94DE23E12CF1CF0C2F0F70C07FDF
:1012600011F00295007F112399F0002359F080E2DC
:101270008D0F883010F0D11107C0802F0E94F40F1D
:101280000E9432108D2F63C0802F0E940410F8CF6F
:101290008D2F0E948C08002379F080E28D0F88301A
:1012A00010F0D11104C0802F0E94FA0F03C0802FCC
:1012B0000E940A100E9432102B2D2850330B24302C
:1012C000310520F40E94CA1A0E94CF07EE2089F04F
:1012D0000E94E60F80FD0DC0F60112820E94E00F11
:1012E0000E94D90BC6010E940A0B0E94E00F0E94C7
:1012F000E90BCDB7DEB7E9E00C9409242C2F2F7051
:10130000F22EC07FC03219F0F29480EFF822DD2374
:1013100081F0D13009F449C0112309F451C00023F0
:1013200009F448C0F601858180FFACCF8F708583BA
:1013300041C08091940282FD15C0112359F0FF2015
:1013400029F08F2D0E94F40F0E94321080E00E943D
:101350003F08B2CF80E00E948C08FF2009F4ACCF98
:101360008F2DA2CF112381F0011106C00E9414100D
:101370008F290E94E008A0CF0130C1F70E9414100D
:101380008F290E941B1098CF011106C00E942810BF
:101390008F2D0E94E70890CF013009F48DCF8F2D5B
:1013A0000E94E7080E94281087CF112329F00630F9
:1013B00008F082CF8F2DDDCF053008F07DCFE8CF4C
:1013C000002331F3D93349F4FFEF27EE33E0F15036
:1013D00020403040E1F700C000008D2F0E948C08B3
:1013E0006BCF8C2F86958695837069F0813009F0DC
:1013F00063CF8D2F9C2F9370111102C080E090E07D
:101400000E94241B59CF8D2F9C2F9370111102C065
:1014100080E090E00E94FF1A4FCF612F8D2F0E9435
:1014200035084ACF8C2F8370A1F5111145CF4D2F70
:10143000429546954770440F440F2D2F2F7030E092
:10144000042E02C0220F331F0A94E2F790E080E0DE
:10145000D4FF09C08FE090E002C0880F991F4A9521
:10146000E2F780959095C695C695C370822B932B15
:10147000C23049F058F4C13019F00E94A90B1CCFBA
:101480000E94A00B19CF0E94B20B16CF0E949D0B99
:1014900013CF8695112311F08C2F8170882309F4C6
:1014A0000BCF4D2F429546954770440F440F2D2F7B
:1014B0002F7030E0042E02C0220F331F0A94E2F78F
:1014C00090E080E0D4FF09C08FE090E002C0880F78
:1014D000991F4A95E2F780959095C695C695C37079
:1014E000822B932BC23049F058F4C13019F00E947E
:1014F000140CE2CE0E940B0CDFCE0E941D0CDCCE41
:101500000E94C10BD9CECF70112329F08C2F0E94DD
:10151000D90B8D2F2ECF8D2F0E94E7088C2F0E9484
:10152000E90BCACED23F41F160F4D03FB9F0D13FD0
:1015300081F0112309F446C00111A4CE8C2F8F71C4
:101540001FC0D33F01F1D43FA1F78091940282FDE7
:1015500024C08C2F8F71112311F312C0112341F07D
:10156000053008F0A9CE8C2F8F710E94FB0BA4CE02
:10157000063008F0A1CEF7CF8C2F8F711111CFCF8D
:101580000E94D90B99CE112329F08C2F8F710E94C4
:10159000CD0B92CE0E94C80B8FCE112349F0CF7194
:1015A0008C2F0E94D90B63E08C2F0E94771084CE81
:1015B00081E00E949510023008F47ECE82E00E9405
:1015C00095107ACE002359F0D93309F006CF8FEF6A
:1015D00097EEE3E081509040E040E1F7FCCE8C2FA5
:1015E0008F719DCF0F931F93CF93DF93EC01688191
:1015F00079818A810E94DC0C8C010E94260C0E9459
:101600009C0BB801CE010E94EE08DF91CF911F9193
:101610000F910895CF93DF93EC018B819C81892BEF
:1016200029F08881998189238F3F51F4DF91CF91EF
:101630000895CE010E94F20ACE010E940907F6CF5A
:10164000CE010E942E078111F4CF0E94EA0F882359
:1016500069F38A81882351F38091940282FFE6CF57
:1016600082E00E949510E2CF90E080E00E94FF1A95
:1016700090E080E00E94241B0E9411100E94321012
:101680000E949E160E94821608950E94D90F0E9401
:10169000340B08950E9401100E94450B0895929505
:1016A0009F70963091F058F4925F9F70923058F48A
:1016B000803F19F030F4883E30F481E008959A5F5D
:1016C000F4CF843FD1F380E00895883EB0F3813FAA
:1016D000D1F7F3CFFC0183819481892B29F080819C
:1016E000918189238F3F11F480E008958081918159
:1016F0000E94D10C0E944F0B0895A5E0B0E0E3E8F2
:10170000FBE00C94F4232596E2E00C941024A6E070
:10171000B0E0EDE8FBE00C94F4232696E2E00C94B4
:10172000102408950E94910B08950E94920B9093AB
:10173000C1018093C001089508950E94950B0895FA
:101740002091C0013091C101822B932B0E94950BF7
:1017500008952091C0013091C101822393230E94FA
:10176000950B08952091C0013091C10182279327E4
:101770000E94950B08950E94910B08950E94BB0B47
:1017800008950E94BE0B9093BF018093BE010895FF
:1017900090E080E00E94C10B089521E030E0A901B3
:1017A00002C0440F551F8A95E2F7CA010E94C10B7F
:1017B000089521E030E002C0220F331F8A95E2F73E
:1017C0008091BE019091BF01822B932B0E94C10B8F
:1017D000089521E030E002C0220F331F8A95E2F71E
:1017E000209530958091BE019091BF018223932373
:1017F0000E94C10B089521E030E002C0220F331F88
:101800008A95E2F78091BE019091BF0182279327CC
:101810000E94C10B08952091BE013091BF01822B1F
:10182000932B0E94C10B08952091BE013091BF01FE
:10183000822393230E94C10B08952091BE01309111
:10184000BF01822793270E94C10B08950895262F78
:10185000277091E001C0990F2A95EAF723E0769569
:1018600067952A95E1F7660F771F660F771FFA01D4
:10187000E60FF71F50E040E0682F70E08191DF0134
:1018800011979B01042E02C0369527950A94E2F722
:10189000217021952827292328272C934F5F5F4FFC
:1018A0004430510559F70895A82FA77023E0969565
:1018B00087952A95E1F7880F991F880F991FFB01DB
:1018C000E80FF91F50E040E080E0219130E00A2E5F
:1018D00002C0369527950A94E2F721703327042E2B
:1018E00001C0220F0A94EAF7822B4F5F5F4F44300A
:1018F000510559F70895262F963070F48E3060F414
:10190000682F70E08EE0989F600D711D112442E9F0
:1019100051E0822F0E94270C0895292F963068F4F9
:101920008E3058F490E062E971E03EE0239F800D34
:10193000911D11240E94540C089580E00895B0E098
:10194000A0E0E5EAFCE00C94ED237C010091BE01EF
:101950001091BF018091C0019091C101082B192BFA
:10196000CFE0D0E0CC24C394D12CBC2EC6010C2EE9
:1019700002C0880F991F0A94E2F780239123892BD4
:1019800049F4219790F7B12C8B2DCDB7DEB7E9E064
:101990000C940924B7018C2F0E947D13019789F3C1
:1019A000F3CFCF93DF93EC010E949F0CBE010E9406
:1019B0007D13DF91CF9108951F93CF93DF93EB01B8
:1019C00090919101992339F0CB010E94D10CDF91C4
:1019D000CF911F910895882369F0CB010E949F0C3D
:1019E000182F682FCE010E947B0CBE01812F0E9410
:1019F0007D13EDCFCB010E948D0C182FF6CF1F93D6
:101A0000CF93DF93C091C20116E08091C3018C1384
:101A100004C0DF91CF911F910895D0E01C9FF00189
:101A20001D9FF00D1124EC53FE4F408151816281C6
:101A30007381848195810E94870B2196C770E5CFC1
:101A40004091F4015091F5016091F6017091F70118
:101A50008091F8019091F9010E94870B08952091DF
:101A6000C2019091C30156E0291302C080E008959D
:101A700030E0529FF001539FF00D1124EC53FE4FC4
:101A80007181761306C07081781303C0728174135C
:101A900004C02F5F3F4F2770E7CF81E008951F9369
:101AA000CF93DF938091F901807F09F04BC0809143
:101AB000F601882309F446C08091C201C091C30198
:101AC0004091F4015091F5016091F7017091F80196
:101AD000D42FD52316E0C817A9F190E06115710540
:101AE000A9F1DF3F99F1189FF001199FF00D112422
:101AF000DF01AC53BE4F11962C911197251326C0D0
:101B00002C91241323C012962C91129721111EC0E0
:101B100013962D913C91261B370B283C3105B0F4D0
:101B20008091F9018F7080618093F901E753FE4F36
:101B300080818F708061808384EF91E00E940A0B26
:101B40000E94FF0CDF91CF911F910895019687703D
:101B5000C2CFA1E1B0E0EFEAFDE00C94EA238C01F2
:101B600085E0F801DE011D9601900D928A95E1F75E
:101B7000F801F28084EFA82E81E0B82E4091F701A1
:101B80005091F8014115510509F45AC19091F401A1
:101B90002091F501892F82238F3F09F451C1C08024
:101BA000D18083809480E090F601B401641B750BB2
:101BB000EE2009F4F6C08091F901382F307F683C9F
:101BC000710508F0AFC031117AC0EF2C2D1116C08D
:101BD0009C1114C0F11012C08F7080618093F901C4
:101BE0000E94200DC5010E940A0B8091F901F801A5
:101BF00085838E2D6196ECE00C940624811491046B
:101C0000C9F18C2D8D218F3FA9F181E08F2580FFB7
:101C100005C04F2D6D2D8C2D0E942F0D8114910428
:101C200059F18C2D8D218F3F39F181E08F25F82FCF
:101C3000F170BF2E80FF39C04F2D6D2D8C2D0E946D
:101C40002F0DA82E811131C0CD86DE868D859E8513
:101C50000E94D10C292F22952F70243078F49F7088
:101C60002230A8F09923B9F0F8019581907F99F47A
:101C7000EA2CBFCF80E0CBCF80E0D9CF2A5F2F7096
:101C8000223068F0C8010E940A0BAB2CF1CF9923D7
:101C900011F0882369F3805E883050F3F3CF803FE2
:101CA00038F3815F833070F7E3CFFF2009F4A1CFD1
:101CB0008091F90181608093F901E12C9ACF2D1177
:101CC00005C09C1103C0FF2009F486C0C8010E9412
:101CD0006A0B882319F1FF2009F18091F901803204
:101CE00070F02091F4013091F50138872F83198627
:101CF0009B868A868C87CE0107960E940A0B86E017
:101D0000F801A4EFB1E001900D928A95E1F70E94ED
:101D10004F0D0E94200DEE24E3946BCFC8010E946A
:101D20000A0BF9CF311114C0782D998A888AA6013F
:101D30006F2D89890E947D0B84EF91E00E940A0B30
:101D400086E0F50111928A95E9F70E94200DB5CF42
:101D50002D110EC09C110CC0F1100AC08583C80162
:101D60000E940A0B86E0F50111928A95E9F741CFAE
:101D7000C8010E946A0B882389F2FF2079F28091C2
:101D8000F901803208F4BBCF2091F4013091F501C4
:101D90003A8329831B829D828C828E83CE01019699
:101DA000ACCF683C710508F03DC0EF2CFF2009F472
:101DB000B5CF2D1129C09C1127C08091F90180FD5C
:101DC0001AC0982F907FB9F08583903F31F0982FFB
:101DD000907F905F8F70892B8583C8010E940A0BCA
:101DE00086E0F801A4EFB1E001900D928A95E1F749
:101DF0000E94200DFECE86E0F801A4EFB1E0019034
:101E00000D928A95E1F7F5CEC8010E946A0B811107
:101E100076CF8091F90181608093F901C8010E9419
:101E20000A0BE7CE782D998A888AA6016F2D8989B9
:101E30000E947D0B86E0F50111928A95E9F7D8CFD3
:101E4000FF2009F46BCFC8010E946A0BE82E88239B
:101E500009F464CF86E0F801A4EFB1E001900D929F
:101E60008A95E1F784EF91E00E942F080E944F0DC0
:101E7000BFCFACE0B0E0EFE3FFE00C94F3234F837F
:101E8000588769877A878B879C87CE0107960E943F
:101E9000A90D8823B1F08A859B85892B39F04F8164
:101EA0005885842F85238F3F09F06CC016E0809100
:101EB000C2019091C301891343C02C96E3E00C94B6
:101EC0000F2486E0FE013796DE01119601900D92F7
:101ED0008A95E1F78A859B85892B41F38F819885C7
:101EE00089238F3F19F32091C30130E0C901019686
:101EF000877099274091C2014817190671F40E9412
:101F00004A0B1092C3011092C20186E0E4EFF1E0A7
:101F1000DF011D928A95E9F7C9CF96E0929FD00123
:101F2000939FB00D1124AC53BE4FFE01319601902A
:101F30000D929A95E1F78093C3010E94FF0CB6CFF2
:101F4000819FC00111248C539E4F0E94A90D8823AC
:101F500009F4B3CFE091C2011E9FF0011124EC53AC
:101F6000FE4F4081518162817381848195810E94FD
:101F7000870B8091C20190E001968770992780932A
:101F8000C20195CF69857A858B859C850E94870BD8
:101F90008DCF682F80910001909101010E94DD1B7F
:101FA0000895682F80910001909101010E94EB1B20
:101FB000089580910001909101010E94F91B0895FC
:101FC00080911A02859585958595089580911A02CC
:101FD0008770089590911A02977081E009F480E06B
:101FE000089580913D02089590913D02892B809340
:101FF0003D020895809590913D02982390933D0273
:10200000089510923D02089590913C02892B80938F
:102010003C020895809590913C02982390933C0255
:10202000089510923C02089580911B02089508952E
:102030000E94171008959091940292FF08C0909109
:102040001B02981721F080931B020E94181008951C
:1020500080911B02882329F010921B0280E00E94CD
:1020600018100895CF93DF93E0910001F0910101E2
:1020700080913D028083E0910001F0910101808117
:1020800090913C02892B808390911B02992381F0CF
:10209000E0910001F09101018081892B8083809182
:1020A0000001909101010E94491B81110E9428109A
:1020B000C0910001D091010140E250E06AEF71E06F
:1020C000CE010E941B24892B59F080E2FE01AAEF69
:1020D000B1E001900D928A95E1F7CE010E94D71AE6
:1020E000DF91CF91089508950E9473100895909103
:1020F000940292FF11C098E0899F90011124622BF5
:1021000060931A020E94D90B80911A0285958595D9
:1021100085950E94741008950E94D90B089510921D
:102120001A0280E00E947410089590911A0280951E
:10213000892380931A02282F277091F4282F082EC4
:10214000000C330B9217130659F09091940292FFF2
:1021500007C08595859585950E94E90B0E948F1093
:1021600008959091940292FB222720F9281769F094
:1021700080FB92F990939402809193029091940243
:102180000E94F91082E00E949510089580919402B7
:1021900082FB882780F991E089270E94B110089579
:1021A00081E00E94B110089580E00E94B11008956E
:1021B0006FEF7FEF90E080E00E945D24089590E053
:1021C00080E00E94392421E0873E9E4F09F020E004
:1021D000822F089582E090E00E943124089583E0E8
:1021E00090E00E943124089584E090E00E94392418
:1021F0000895BC0184E090E00E945D240895AB0145
:10220000BC018FE090E00E9451240895AB01BC0115
:1022100083E190E00E945124089560E070E0CB01DA
:102220000E940611089560E070E0CB010E94FF104B
:102230000E940D11089567EE7EEF90E080E00E940D
:102240005D2460E082E090E00E943F2460E083E053
:1022500090E00E943F241092C1011092C00160E002
:1022600074E184E090E00E945D2460E086E090E00C
:102270000E943F246FEF87E090E00E943F2440E0FF
:1022800050E0BA0188E090E00E94512460E08DE0C7
:1022900090E00E943F2440E050E0BA0188E190E0E5
:1022A0000E94512460E087E190E00E943F2440E0DA
:1022B00050E0BA018CE190E00E94512470E060E0AF
:1022C00080E290E00E945D2440E050E0BA0188E1A5
:1022D00090E00E9451240E94131108950E941B1146
:1022E0000895682F8EE090E00E943F240895A5E0B5
:1022F000B0E0EDE7F1E10C94F2230E94BB1C8C01ED
:1023000080913E0290913F0280179107A1F08FEFDC
:1023100089838A831B820E94BB1C8160782F9D83E6
:102320008C8349815A816B818D810E94FA071093B9
:102330003F0200933E022596E4E00C940E240E9496
:10234000C71C609350027093510280935202909385
:10235000530260934C0270934D0280934E0290930F
:102360004F020895089508950E94B31108950895A5
:1023700081E0089587E694E10E94C01A0E94B2119C
:102380000E94B41108950E94B81108950E94C311CB
:102390000895089508950E94C9110E94CA110895D0
:1023A0000E9486140E94C80708950E94B21C0E94D1
:1023B000B6140E94D0110E9445060895A5E0B0E031
:1023C000E4EEF1E10C94E9230E94B81181110AC0F6
:1023D0000E9477110E94C0160E94E1072596EDE049
:1023E0000C9405240E94CA1420E4822E22E0922E2E
:1023F000640110E0F601E190F1906F01812F0E94DD
:10240000AC141F5F163009F449C0E816F90691F3C1
:102410008091540281FD0E94B5140E94C611782E4D
:1024200010E0812F0E94AC147C01F401A190B190C6
:102430004F018A159B0561F100E0CC24C394D12C97
:10244000AE24BF24C5018C219D21892BC1F07720AA
:10245000B1F009831A8321E0C7018C219D21892BCA
:1024600009F420E02B830E94BB1C8160782F9D83A0
:102470008C8349815A816B818D810E94FA070F5F9D
:10248000CC0CDD1C0E30F1F6F4013297F182E082C3
:102490001F5F163031F60E949F119CCFE816F90697
:1024A00009F0B6CF95CF1F93CF93DF930E9482138D
:1024B000EC01C11580E5D807F0F5C11580E4D80717
:1024C00008F09CC0C03ED10520F5CD3CD10508F0F8
:1024D00082C0C83AD10578F4C53AD10508F073C076
:1024E000C130D10519F1209709F1C430D105F0F4BC
:1024F000D0E0C0E01BC0C33CD105D0F7C85AD0E043
:10250000CC0FDD1FC45BDE4F0990D881C02DD46491
:102510000DC0C11580E2D80708F0D1C0C11581E017
:10252000D80708F05AC0C83ED10510F7CE01DF9198
:10253000CF911F910895C03682E5D80718F5C034B1
:1025400082E5D80708F06BC0C03282E5D80708F0F2
:102550005FC0C11582E5D80708F497C02C2F2695D7
:10256000269580E2289F900111248C2F8370C1E072
:10257000D0E002C0CC0FDD1F8A95E2F7C22BD32B2F
:10258000DD68D4CFC03A82E5D80760F4C03882E570
:10259000D80708F459C0CF71D0E0DC2FCC27C46F26
:1025A000D06AC4CFC03C82E5D80708F462C0C03E00
:1025B00082E5D80708F09CCFDC2FCC27CC27DF7131
:1025C000C06FD06AB3CFC55AD0E0CE57DE4FC881B6
:1025D000D0E0D064ABCFD065A9CF8D2F0E9424145A
:1025E000182FCE0199270E948213C12FD0E0DC2F33
:1025F000CC27CC27DF71C82BD92B98CFCE019927B8
:102600000E948213CC27DF70C82BD92BD06A8ECFC3
:10261000CF71D0E0DC2FCC27C16FD06A87CF2C2FB1
:1026200026952695277080E2289F900111248C2FF3
:102630008370C1E0D0E002C0CC0FDD1F8A95E2F7C5
:10264000C22BD32BDC6872CF2C2F269526952770B2
:1026500080E2289F900111248C2F8370C1E0D0E08C
:1026600002C0CC0FDD1F8A95E2F7C22BD32BDA68AC
:102670005DCF8C2F8F710E942414C82FD0E0DC2FE7
:10268000CC27CC27DF71D06251CF8C2F8F710E9465
:10269000241455E0D695C7955A95E1F7CF70D0E050
:1026A000DC2FCC27282F30E084FF05C044E0220F28
:1026B000331F4A95E1F7C22BD32BD06937CF8D2F2B
:1026C0008F710E942414182FCE0199270E94821323
:1026D000C12FD0E0DC2FCC27CC27DF71C82BD92B22
:1026E000D2CF462F763030F46E3020F4672F0E9420
:1026F000C306089590E080E008950E9471130E943F
:102700005312089582389105B9F1B0F481339105DF
:1027100009F47DC048F48932910509F46DC08A320C
:10272000910509F47BC008958533910509F45FC0D4
:102730008933910509F10895833E9105D9F138F463
:10274000803E910529F1823E910579F10895863EFA
:102750009105D9F1873E910509F43EC0843E91056B
:1027600041F52091940221FF24C08091930284FDC1
:1027700019C087EE90E0089520919302237009F02C
:102780005AC02091940223FF14C089E290E008957A
:102790002091930220FD38C03091940230FF09C08F
:1027A00024FF43C090E080E008952091930222FD31
:1027B000F7CF08952091930222FD3AC03091940200
:1027C00030FD39C024FFF5CFEDCF2091930223FFD8
:1027D000F0CF24FDE7CFCDCF2091930223FD2EC073
:1027E0003091940231FFEECF84EE90E00895209175
:1027F000930225FFDECFC9CF2091930225FD21C092
:102800002091940223FFD5CF89E390E0D2CF20918D
:10281000930226FFCECF8AE290E0089520919302A2
:1028200026FFC7CF81E390E0089583EE90E00895FE
:1028300082EE90E0089580EE90E0089586EE90E0BC
:10284000089585E390E008959091930292FF06C069
:10285000282F28712830F9F4877F846093FF06C001
:10286000282F28712831F1F4877E84612091940209
:1028700020FF06C0382F38713830D9F4877F816047
:1028800021FF06C0282F28712831D1F4877E81616D
:1028900094FD877E0895282F24712430F9F68B7FCC
:1028A0008860DCCF282F2471243101F78B7E88616A
:1028B000DDCF382F3171313019F78E7F8860E0CF4E
:1028C000282F2171213121F78E7E8861E1CF80E0B0
:1028D00008950E94D81008950E94CA142FEF86E729
:1028E00091E0215080409040E1F700C000000E943C
:1028F000CA1480E00E94AC1480FF04C00E946914D6
:102900000E94061D08950E946C1408950E94DF1015
:10291000811102C00E946E110E94EA10809354023D
:102920000E94F41090939402809393020E94831467
:102930000E94EF1090E00E949D0B8091BE0190914B
:10294000BF010E94BE0B089508950E94A41408952B
:1029500008950E94A8140895E82FF0E0EE0FFF1FDD
:10296000EF55FD4F80819181089508950E94F904EB
:10297000E5E9F2E0A1EAB2E0119211921D921D92F6
:1029800082E0E13AF807C1F786E00E94DD140E9478
:10299000A5140895CF9385E992E00E942105282F80
:1029A00046E061EA72E085E992E00E94DE14C82FF9
:1029B0000E94A9148C2FCF9108950895CF92DF9291
:1029C000EF92FF921F93CF93DF936C017B01C42F93
:1029D000222349F081E0809357020E94BB1C909310
:1029E0005602809355021091570211110AC010E04F
:1029F000812FDF91CF911F91FF90EF90DF90CF90CB
:102A0000089580915502909156020E94D31C05971B
:102A100070F3D0E0CC0FDD1FAE01B601C7010E94FC
:102A20001B24892B41F0AE01B601C7010E94282466
:102A300010925702DDCF10E0FBCF0E948C1E0E9447
:102A4000D5110E94991E08950E949E1E0E94DE11BB
:102A50000E94B81E08950E94541C0E94721E0E947B
:102A6000BA110E941D150E9424150E94CB11FBCFA4
:102A700080915E0280FF0DC06091070170E0660FDB
:102A8000771F6038710570F56115710569F1862F42
:102A9000089581FF07C06091070184E0689FB0013D
:102AA0001124EFCF6091070182FD0AC080915D0281
:102AB0008823A9F02091060160910701821710F088
:102AC00088E0ECCF869FC001112433E0880F991F66
:102AD0003A95E1F7622F70E00E94CA23D2CF68E0F6
:102AE00070E0D5CF8FE7089581E0089580915E0270
:102AF00080FF0CC06091030170E075956795759536
:102B000067956115710549F1862F089581FF06C00B
:102B10006091030170E075956795F3CF60910301B3
:102B200082FD0BC090915C029923A1F0609102019B
:102B300080910301961738F0682F70E060387105B6
:102B400000F38FE70895899FC001112470E00E946F
:102B5000CA23F4CF61E070E0D7CF81E008958D3CC7
:102B600031F40E94381581958093620208958E3C5D
:102B700019F40E943815F8CF8F3C31F40E943815B3
:102B80008195809361020895803D19F40E94381563
:102B9000F8CF893D29F40E94761580936302089549
:102BA0008A3D21F40E9476158195F7CF8B3D31F453
:102BB0000E94761581958093640208958C3D19F4E6
:102BC0000E947615F8CF9FE2980F983070F4815DDF
:102BD000990B21E030E001C0220F8A95EAF780913D
:102BE0006002822B8093600208958D3D31F48091C4
:102BF0005E02816080935E0208958E3D21F4809193
:102C00005E028260F7CF8F3DB9F780915E028460EB
:102C1000F1CF409161028D3C59F48091620287FFAF
:102C20000DC01092620241110BC010925D0208C0EB
:102C30008E3C81F48091620218169CF3442381F04B
:102C40008091630290916402892B09F05AC010921E
:102C50005C0208958F3C49F447FFF0CF1092610267
:102C6000809162028111ECCFE0CF803D19F41416FF
:102C7000ACF3E4CF90916302893D29F41916F4F680
:102C800010926302DBCF8A3D19F497FFD7CFF8CFBC
:102C9000909164028B3D29F497FFD0CF109264028B
:102CA000CDCF8C3D19F41916CCF3C8CF9FE2980F05
:102CB000983090F4815D990B21E030E0B90102C0B9
:102CC000660F771F8A95E2F7CB018095909160029D
:102CD000892380936002B2CF8D3D31F480915E02F2
:102CE0008E7F80935E02AACF8E3D21F480915E029A
:102CF0008D7FF7CF8F3D09F0A1CF80915E028B7F52
:102D0000F0CF08950E94BB1C9C01909161028091BC
:102D10006202982B21F030935B0220935A0290912B
:102D2000630280916402982B21F030935902209322
:102D300058028FE592E00E94F11A089586E0EFE5CF
:102D4000F2E0DF011D928A95E9F710925D02109280
:102D50005C0210925E020895FC01828181110EC016
:102D6000838181110BC08481811108C091E085812C
:102D7000811101C090E0892F8170089581E0FCCF1E
:102D8000A6E0B0E0E6ECF6E10C94F32386E0EFE594
:102D9000F2E0DE01119601900D928A95E1F7109212
:102DA00061021092620210926302109264028B819F
:102DB0009C81892B89F080915A0290915B020E943C
:102DC000D31CAC0190915D029923C9F18091080157
:102DD0008417150608F440C08D819E81892B91F0DF
:102DE00080915802909159020E94D31CAC0190919D
:102DF0005C02992309F471C08091040184171506BF
:102E000008F479C0BE016F5F7F4F8FE592E00E94AA
:102E10000B1C811105C08FE592E00E94AC16811158
:102E20000E94821686E0FE013196AFE5B2E0019085
:102E30000D928A95E1F72696E3E00C940F242091F9
:102E400009018AE0289F900111242417350720F6F4
:102E50009F5F90935D0202C09F3FD1F71B811123BA
:102E600059F00E9438159FEF11160CF491E0899FDC
:102E7000802D1124809361021C81112359F00E943E
:102E800038159FEF11160CF491E0899F802D1124C5
:102E90008093620230916102332309F49DCF209127
:102EA0006202222309F498CF45EB3403C0011124B8
:102EB000992359F09093610245EB2403900111246A
:102EC000332339F03093620287CF81E0809361022F
:102ED000F3CF81E0809362027FCF209105018AE0E9
:102EE000289F900111242417350708F08BCF9F5F8E
:102EF00090935C0202C09F3FD1F71D81112359F0CE
:102F00000E9476159FEF11160CF491E0899F802D99
:102F10001124809363021E81112359F00E947615BB
:102F20009FEF11160CF491E0899F802D112480935E
:102F3000640230916302332309F464CF2091640268
:102F4000222309F45FCF45EB3403C00111249923F8
:102F500059F09093630245EB24039001112433232D
:102F600039F0309364024ECF81E080936302F3CF57
:102F700081E08093640246CFCF93DF93EC01FB01A5
:102F80008281882309F4D2C09E0130572332310553
:102F900008F0B2C00E94F4109093940280939302C0
:102FA000FE01E150F047E232F10520F4EF57FB4D0E
:102FB0000C94DE238091930281608093930293C0EE
:102FC000809194028860809394028DC080919302D6
:102FD0008260F3CF809193028460EFCF809193025F
:102FE0008860EBCF809194028160EDCF8091940254
:102FF0008260E9CF809193028061DFCF809193025C
:103000008062DBCF809193028064D7CF0E944A0B0D
:10301000809193028068D1CF809193028C60CDCF54
:10302000809194028360CFCF809193028E7FC5CF31
:1030300080919402877FC7CF809193028D7FBDCF0F
:10304000809193028B7FB9CF80919302877FB5CF18
:10305000809194028E7FB7CF809194028D7FB3CF01
:10306000809193028F7EA9CF809193028F7DA5CF0F
:10307000809193028F7BA1CF0E944A0B8091930293
:103080008F779BCF80919302837F97CF809194021B
:103090008C7F99CF8091930282FB992790F921E050
:1030A000922790FB82F990FB83F987CF809194025D
:1030B000982F909591708E7F892B90FB81F983CF0B
:1030C00090919302892F8F7B96FF806476CF0E9428
:1030D0004A0B90919302892F97FB87F980586DCF07
:1030E00081E00E94711180919302909194020E945C
:1030F000F9100E944A0B80E0DF91CF91089580E0A3
:10310000F0CF90919302892F8F7E94FF806155CFED
:1031100090919302892F8E7F90FF81604ECF909186
:103120009402892F877F93FF88604DCF81E0E4CFA1
:10313000CF93DF93EB0186319C4711F50E94F10F8D
:103140009A81992399F08A7A91E009F490E090931A
:103150006502811109C089E20E94C90F0E943210E4
:1031600080E0DF91CF91089585E3F6CF80916502ED
:10317000811104C089E20E94D10FF0CF85E3FBCF1B
:1031800081E0EFCF0F931F93CF93DF93C42FD22F04
:10319000FC0182818823C9F0409368020E94BB1C15
:1031A000909367028093660280E28C0F883040F42F
:1031B000C77081E001C0880FCA95EAF70E94E00855
:1031C000DF91CF911F910F91089510916802141310
:1031D00032C080916602909167020E94D31C883CA5
:1031E000910548F5C0E2CD0F1D17B9F080E2810FBF
:1031F000883040F4177081E001C0880F1A95EAF713
:103200000E94E708C83048F481E09D2F977001C004
:10321000880F9A95EAF70E94E008802F0E94D7084D
:10322000C83070F6D77081E001C0880FDA95EAF7F0
:103230000E94E708C5CF80E28C0F883008F6C7707F
:1032400081E001C0880FCA95EAF7F2CF0F93DB0146
:1032500088519C4787309105A0F5FC01ED55FB4D49
:103260000C94DE2306E221EE41EE6AE17CE7CD011B
:103270000E94C21880E00F91089507E225EE45EE06
:103280006BE17CE7F4CF06E221EE40EE68E17CE7FB
:10329000EECF07E225EE44EE69E17CE7E8CF06E2F7
:1032A00021EE42EE6CE17CE7E2CF07E225EE46EE4E
:1032B0006DE17CE7DCCF08E221E045EE6EE17CE7E2
:1032C000D6CF12968C91882319F010926802D3CF32
:1032D00081E0D1CF1092B9008CE08093B8000895BE
:1032E000B0E0A0E0E6E7F9E10C94EB23B82EEB01A7
:1032F0000E94BB1C6C01EE24E394F12CC431D10577
:1033000060F025E0E22EF12CCF3FDC0731F0CE015A
:1033100064E170E00E94B6237B0184EAA82E94E861
:10332000992E1092BC00A092BC000E94BB1C8C0184
:103330008091BC0087FF0DC08091B900887F8830E4
:10334000F9F08091B900887F8031D1F00FEF1FEF45
:1033500008C0C8010E94D31CE816F90648F70EEF12
:103360001FEFCF3FDC07E9F2C6010E94D31CC8174C
:10337000D907B8F6C801CDB7DEB7EBE00C94072447
:10338000B092BB009092BC000E94BB1C8C0180914B
:10339000BC0087FF0AC08091B900887F883111F096
:1033A0008034A1F610E000E0E5CFC8010E94D31CF4
:1033B000E816F90660F7D3CF0F931F93CF93DF93EF
:1033C000EB018093BB0084E88093BC000E94BB1C8F
:1033D0008C018091BC0087FF11C02091B900287F2B
:1033E00081E090E0283211F490E080E091958195A1
:1033F0009109DF91CF911F910F910895CF3FDC0785
:1034000041F3C8010E94D31CC817D90710F78EEFEB
:103410009FEFEFCF0F931F93CF93DF93EC0184ECDB
:103420008093BC000E94BB1C8C018091BC0087FF74
:1034300008C08091BB0090E0DF91CF911F910F9168
:103440000895CF3FDC0789F3C8010E94D31CC81739
:10345000D90758F78EEF9FEFEFCF0F931F93CF93BE
:10346000DF93EC0184E88093BC000E94BB1C8C01BC
:103470008091BC0087FF08C08091BB0090E0DF9185
:10348000CF911F910F910895CF3FDC0789F3C801B9
:103490000E94D31CC817D90758F78EEF9FEFEFCFC4
:1034A000B0E0A0E0E6E5FAE10C94EE23C62F6A0155
:1034B0007901B8010E94701997FD0CC0B8018C2FDA
:1034C0000E94DC19E601EC0CFD1CCE15DF0511F0A5
:1034D00097FF08C024E92093BC00CDB7DEB7E8E031
:1034E0000C940A24B80189910E94DC19EECFB0E057
:1034F000A0E0EDE7FAE10C94EE23F82EE62EEA01C7
:103500006901B8010E94701997FD15C0B8018E2D90
:103510000E94DC1997FD0FC0B8018F2D81600E94B9
:103520007019F12CE12C21E0C21AD108EC14FD0431
:10353000E0F497FF0DC024E92093BC00181619068B
:1035400014F490E080E0CDB7DEB7E8E00C940A24F4
:10355000C8010E940A1A97FD04C0FE01EE0DFF1D6E
:1035600080832FEFE21AF20AE1CF97FDE4CFC80182
:103570000E942D1A97FDDFCFCC0DDD1D8883DBCF98
:103580009093870180938601089590936E028093B3
:103590006D020895E0916D02F0916E02309729F06E
:1035A0000190F081E02D0995089580E00895E09163
:1035B0006D02F0916E02309799F020911201222352
:1035C00059F02091930227FF07C0DC012C9111963E
:1035D0002C93119726E02C930280F381E02D09951E
:1035E0000895E0916D02F0916E02309739F022E07B
:1035F000DC012C930480F581E02D09950895A3E06A
:10360000B0E0E5E0FBE10C94F42320916B023091F3
:103610006C0228173907A1F090936C0280936B021B
:10362000E0916D02F0916E02309751F023E0298312
:103630009B838A830680F781E02DCE010196099550
:103640002396E2E00C941024A3E0B0E0EAE2FBE170
:103650000C94F4232091690230916A0228173907EB
:10366000A1F090936A0280936902E0916D02F0915B
:103670006E02309751F024E029839B838A83068071
:10368000F781E02DCE01019609952396E2E00C9496
:103690001024FC01329680911201882321F0809140
:1036A00093029EE187FF96E080E0915008F4089530
:1036B00021912223D1F38F5FF8CF662301F120916E
:1036C00012012223F1F02091930227FF1AC0462F06
:1036D0004695469546954E3190F4677021E030E06E
:1036E00002C0220F331F6A95E2F7840F911DFC017F
:1036F000828190E02823392381E0232B69F480E044
:103700000895FC01329608962191261721F0E817BA
:10371000F907D1F7F4CF81E008959C01FC013296BE
:103720009FEF80E04191461751F09F3F19F44111FE
:1037300001C0982F8F5F8630A9F79F3F09F4089545
:10374000290F311D97FD3A95F90162830895FC0117
:10375000329608962191261303C0DF0111971C921F
:10376000E817F907B9F70895E62FE695E695E69587
:10377000EE3168F4E80FF92FF11D677021E030E0B9
:1037800001C0220F6A95EAF78281822B8283089515
:10379000E62FE695E695E695EE3170F4E80FF92F01
:1037A000F11D677021E030E001C0220F6A95EAF751
:1037B00020958281282322830895209112012223BB
:1037C00039F02091930227FF03C00E94B41B089593
:1037D0000E948D1B089520911201222339F020911F
:1037E000930227FF03C00E94C81B08950E94A71BD5
:1037F0000895FC01329680911201882351F0809146
:10380000930287FF06C08EE1DF011D928A95E9F7DA
:10381000089586E0F9CF46E050E00E941B2421E0A5
:10382000892B09F420E0822F089508950E94151C29
:103830000895811106C081E080936F020E94161CDA
:10384000089582E0F9CF83E080936F020E94161CF6
:1038500008950E94191C089581E080936F020E94D0
:10386000161C08950E942C1C0895089508950E9426
:10387000361C0895089508950E94351C0895CF932D
:103880000E943A1C0E94CA140E943B1CC0E08C2F6C
:103890000E94AC14892B31F4CF5FC630C1F780E0B1
:1038A000CF91089581E0FCCF85B7806885BF85B74B
:1038B000806885BF08951F921FB61F9211248F93B1
:1038C0009F93AF93BF9380917002811113C0809139
:1038D000AD029091AE02A091AF02B091B0024196BC
:1038E000A11DB11D8093AD029093AE02A093AF02D3
:1038F000B093B002BF91AF919F918F911F901FBE67
:103900001F9018958091B502843031F10E94840790
:103910001092700288E190E020E40FB6F894A89528
:10392000809360000FBE2093600083B7817F846026
:1039300083BF83B7816083BF7894889583B78E7F78
:1039400083BF0FB6F894A89580916000886180933A
:103950006000109260000FBE08950E944A0B0E9402
:103960008907089582E084BD93E095BD9AEF97BDE5
:1039700080936E0008952FB7F8948091AD029091D6
:10398000AE02A091AF02B091B0022FBF08952FB741
:10399000F8946091AD027091AE028091AF02909167
:1039A000B0022FBF08959C014FB7F8948091AD02EB
:1039B0009091AE02A091AF02B091B0024FBF821BB6
:1039C000930B089578941F921FB61F9211248F9322
:1039D0009F93AF93BF938091AD029091AE02A0915F
:1039E000AF02B091B0020196A11DB11D8093AD024E
:1039F0009093AE02A093AF02B093B002BF91AF918B
:103A00009F918F911F901FBE1F90189587E797E792
:103A1000909301088093000888E19AE00FB6F8942B
:103A2000A895809360000FBE90936000FFCF88E15F
:103A30009AE00FB6F894A895809360000FBE90931B
:103A40006000FFCF8091910208959B01BA0190918F
:103A5000B5029430E9F48F708093E9009FEF809174
:103A6000E800915085FD06C085ED8A95F1F70000CC
:103A70009111F5CF8091E80085FF0AC050E040E049
:103A8000C9010E942F1F8091E8008E778093E80083
:103A9000089543E050E0BC0182E00E94251D089596
:103AA00046E050E0BC0182E00E94251D0895CF93BE
:103AB000DF93EC0180911201811111C048E050E0C8
:103AC000BE0181E00E94251D80E2FE01A1E7B2E077
:103AD00001900D928A95E1F7DF91CF910895809141
:103AE000930287FF05C040E282E050E0BE01EACFCA
:103AF00048E081E0FACF8091B402811109C00E94B0
:103B0000BF200E941C218091E20084608093E2002B
:103B100008951092B40208950E942C1C089560919B
:103B2000B10281E0611101C080E00E94231C089570
:103B30009091B50281E0943009F080E06091B1028B
:103B40000E94291C089542E061EC81E00E943B2024
:103B500042E261EC82E00E943B209091B50281E05C
:103B6000943009F080E06091B1020E94191C089520
:103B70008091B702833009F461C030F48130D1F113
:103B8000823009F49EC008958A3009F48AC08B30CF
:103B900009F46FC0893009F050C08091B6028132BB
:103BA00009F04BC08091BA029091BB02029708F0D5
:103BB00044C08091E800877F8093E8008091E8000E
:103BC00082FF37C09091F3008091F200029731F4A8
:103BD0008091F100813011F0863021F48091F10064
:103BE000809391028091E8008B778093E8000E9497
:103BF0006F2023C08091B602813AF9F48091E800E9
:103C0000877F8093E8008091BA029091BB02892B54
:103C100061F460E281E792E070E00E947E1F809193
:103C2000E8008B778093E800089560E090E080E002
:103C3000F3CF8091B5028111C1CF08958091B60272
:103C4000813AD9F78091BA029091BB02892BA9F7EA
:103C50008091E800877F8093E8008091E80080FFF2
:103C6000FCCF809112018093F1008091E8008E7763
:103C7000BCCF8091B602813201F78091BA02909157
:103C8000BB02892BD1F68091E800877F8093E80002
:103C90000E946F208091B802809312010E944A0B0B
:103CA00008958091B602813241F68091E800877FC5
:103CB0008093E8000E946F208091B9028093920265
:103CC00008958091B602813A09F0B7CF8091E8005B
:103CD000877F8093E8008091E80080FFFCCF80918F
:103CE0009202C1CF84B7877F84BF0FB6F894A8959E
:103CF00080916000886180936000109260000FBE28
:103D000080E890E00FB6F894809361009093610092
:103D10000FBE0E94321C08950E94BF200E941C21E9
:103D2000E2EEF0E080818460808378940E949B239F
:103D300008958AE091E00E94C51A08958091B50225
:103D4000853031F48091B502853019F00E94AD1CA8
:103D500008950E94821C8091B302882399F30E94E7
:103D60003F1C882379F30E94191F0E944A0BEACF57
:103D700008959A014091BC025091BD020E94C11E5B
:103D80000895492F55274330510519F168F4413002
:103D9000510509F444C04230510509F445C090E092
:103DA00080E050E040E025C04132510549F1423207
:103DB0005105A9F780E490E04BE658E061157105E4
:103DC000C1F086EB90E045EB57E06130710589F07A
:103DD000E6CF99278130910581F0009729F002976D
:103DE000F1F6ECE3F7E002C0E4E6F7E0849190E05E
:103DF000AF01F901518340830895E0E5F7E0F6CF84
:103E000089E090E04AE757E06115710591F389E098
:103E100090E043E957E06130710559F3C0CF82E18A
:103E200090E043EA57E0E5CF8BE390E048E657E0C7
:103E3000E0CF80E189BD82E189BD09B400FEFDCFFC
:103E40008091D8008F7D8093D8008091E0008260BF
:103E50008093E0008091E00081FDFCCF0895AF9257
:103E6000BF92CF92DF92FF920F931F93CF93DF9376
:103E70006C01EB018A010E948E20F82E811123C073
:103E80000115110539F0F80180819181C81BD90B0A
:103E9000C80ED91EB12CA12C2097A9F08091E80062
:103EA00085FD22C08091E8008E778093E80001159F
:103EB0001105A1F0F80180819181A80EB91EB1828F
:103EC000A08285E0F82E8F2DDF91CF911F910F9169
:103ED000FF90DF90CF90BF90AF9008950E948E200A
:103EE0008823D1F2F82EEFCFF60181916F018093F4
:103EF000F1002197FFEFAF1ABF0ACECFFC018091EE
:103F0000BC029091BD0286179707A0F0611571055C
:103F100029F49091E8009E779093E80090E0611575
:103F2000710551F4911108C08091E80082FF34C0FE
:103F300080E00895BC01F2CF8091B5028823C1F1E1
:103F40008530C1F18091E80083FD30C08091E800A8
:103F500082FDEACF8091E80080FFE1CF8091F300FD
:103F60002091F200382F6115710519F028303105C4
:103F700058F091E02830310509F090E02091E800F8
:103F80002E772093E800CBCF81918093F100615090
:103F900071092F5F3F4FE7CF8091B502882341F031
:103FA000853041F08091E80083FFBECF81E0089525
:103FB00082E0089583E00895FC018091BC02909115
:103FC000BD0286179707A0F06115710529F480914D
:103FD000E8008E778093E80090E06115710551F458
:103FE000911108C08091E80082FF35C080E00895FB
:103FF000BC01F2CF8091B5028823C9F18530C9F1A7
:104000008091E80083FD31C08091E80082FDEACF15
:104010008091E80080FFE1CF8091F3002091F200D1
:10402000382F6115710519F02830310558F091E0ED
:104030002830310509F090E08091E8008E77809378
:10404000E800CBCF84918093F100319661507109E3
:104050002F5F3F4FE6CF8091B502882341F0853036
:1040600041F08091E80083FFBDCF81E0089582E0B8
:10407000089583E00895982F973028F08F708093EB
:10408000E90081E008959093E900242F762F50E015
:10409000981731F07091EC002091ED005091F000F4
:1040A00021FD02C09F5FE8CF3091EB003E7F30934F
:1040B000EB003091ED003D7F3093ED003091EB004F
:1040C00031603093EB007093EC002093ED0050933F
:1040D000F0002091EE0027FDE5CF80E0089580916B
:1040E000B60287FF13C08091E80082FF06C080916E
:1040F000E8008B778093E80004C08091B5028111BD
:10410000F2CF08958091B5028823D9F38091E80019
:1041100080FFF8CF8091E8008E77ECCF2091E4000B
:104120003091E50095E6A9012091EC00822F817085
:1041300020FF06C08091E80080FF06C080E008955F
:104140002091E80022FD1AC08091B502882389F0F1
:10415000853089F08091EB0085FD0FC02091E4004F
:104160003091E50042175307F9F29150E1F684E0EF
:10417000089582E0089583E0089581E008950E9403
:104180002E210E943621E0EEF0E080818160808364
:10419000E8EDF0E080818F77808319BCA7EDB0E077
:1041A0008C918E7F8C9380818F7E80831092B4025D
:1041B00008950F931F93CF93DF930E942E210E94A7
:1041C0003621C8EDD0E088818F7788838881806828
:1041D000888388818F7D888319BC1092B5021092E4
:1041E000B1021092B3021092B20200EE10E0F80198
:1041F00080818B7F808388818160888342E060E05A
:1042000080E00E943B20E1EEF0E080818E7F8083A1
:10421000E2EEF0E08081816080838081886080832D
:10422000F80180818E7F8083888180618883DF911F
:10423000CF911F910F910895E8EDF0E080818F7E7E
:104240008083E7EDF0E080818160808384E082BF3D
:1042500081E08093B4020E94D9200895E8EDF0E057
:1042600080818E7F80831092E20008951092DA00A0
:104270001092E10008951F920F920FB60F92112431
:104280002F933F934F935F936F937F938F939F935E
:10429000AF93BF93EF93FF938091E10082FF0BC038
:1042A0008091E20082FF07C08091E1008B7F8093C4
:1042B000E1000E949A238091DA0080FF19C080916A
:1042C000D80080FF15C08091DA008E7F8093DA00DD
:1042D0008091D90080FF96C080E189BD82E189BDCF
:1042E00009B400FEFDCF81E08093B5020E947B1DE2
:1042F0008091E10080FF19C08091E20080FF15C02D
:104300008091E2008E7F8093E2008091E2008061E4
:104310008093E2008091D80080628093D80019BC1D
:1043200085E08093B5020E948F1D8091E10084FF9B
:104330002BC08091E20084FF27C080E189BD82E12B
:1043400089BD89B5982F917080FFFBCF8091D800EF
:104350008F7D8093D8008091E1008F7E8093E10073
:104360008091E2008F7E8093E2008091E200816084
:104370008093E2008091B102882309F449C084E06F
:104380008093B5020E94981D8091E10083FF29C0AF
:104390008091E20083FF25C08091E100877F8093B8
:1043A000E10082E08093B5021092B1028091E100B9
:1043B0008E7F8093E1008091E2008E7F8093E20007
:1043C0008091E20080618093E20042E060E080E062
:1043D0000E943B208091F00088608093F0000E9452
:1043E0008C1DFF91EF91BF91AF919F918F917F9124
:1043F0006F915F914F913F912F910F900FBE0F9052
:104400001F90189519BC1092B5020E94891D70CF9B
:104410008091E30087FD93E09093B502B3CF1F92A4
:104420000F920FB60F9211242F933F934F935F93E8
:104430006F937F938F939F93AF93BF93CF93DF93AC
:10444000EF93FF93D091E900DF708091EC00C82FCB
:10445000C17080FDC0E81092E9008091F000877F74
:104460008093F00078940E9453221092E90080918A
:10447000F00088608093F000CD2BCF70C093E900EE
:10448000FF91EF91DF91CF91BF91AF919F918F916C
:104490007F916F915F914F913F912F910F900FBE40
:1044A0000F901F901895AAE2B0E0E9E5F2E20C94B3
:1044B000F32386EB92E02091F100FC012193CF01E0
:1044C000F2E08E3B9F07B9F70E94B81D8091E8008B
:1044D00083FF1EC18091B6029091B7029A3008F016
:1044E00017C1E92FF0E0E655FB4D0C94DE23803830
:1044F00099F0823809F00CC18091BA028F70873030
:1045000008F006C18093E9008091EB0085FB8827C5
:1045100080F91092E90006C08091B2029091B30236
:10452000911182609091E800977F9093E8008093CA
:10453000F1001092F1008091E8008E77E5C08823A9
:1045400009F4D3C0823009F0E3C08091B802811130
:10455000D6C08091BA028F702FEF280F263008F056
:10456000D7C08093E9002091EB0020FFC8C09330B2
:1045700031F48091EB0080628093EB00C0C0909199
:10458000EB0090619093EB0021E030E001C0220F3E
:104590008A95EAF72093EA001092EA008091EB00F6
:1045A0008860EACF8111B4C01091B8021F77809162
:1045B000E3008078812B8093E3008091E800877F7F
:1045C0008093E8000E946F208091E80080FFFCCF7C
:1045D0008091E30080688093E30082E0111183E022
:1045E0008093B50295C08058823008F091C08091C8
:1045F000B8029091B9028C3D23E09207A1F583E0C7
:104600008A838AE289834FB7F894DE01139620E00B
:104610003EE051E2E32FF0E050935700E49120FF99
:1046200003C0E295EF703F5FEF708E2F90E0EA30AD
:10463000C0F0C7968D939D932F5F243159F74FBFDC
:104640008091E800877F8093E8006AE270E0CE0105
:1046500001960E947E1F8091E8008B778093E8008E
:1046600057C0C096E7CF6091BA027091BB02AE010D
:104670004F5F5F4F0E94B91EBC01892B09F448C0EF
:104680009091E800977F9093E80089819A810E9439
:10469000DC1FE1CF8038E1F58091E800877F8093CF
:1046A000E8008091B1028093F10045CF811130C0C4
:1046B0009091B802923060F58091E800877F8093F6
:1046C000E8009093B1020E946F208091B10288238C
:1046D00011F084E005C08091E30087FDFACF81E00E
:1046E0008093B5020E94A31D13C08091B80281304F
:1046F00079F481E0933009F080E08093B302109266
:10470000E9008091E800877F8093E8000E946F2095
:104710008091E80083FF0AC08091E800877F809342
:10472000E8008091EB0080628093EB00AA96E3E0C2
:104730000C940F240895CF938091B5028823A1F0A3
:10474000C091E900CF709091EC00892F817090FDAD
:1047500080E8C82B1092E9008091E80083FD0E9458
:104760005322CF70C093E900CF910895AA1BBB1BC1
:1047700051E107C0AA1FBB1FA617B70710F0A61B61
:10478000B70B881F991F5A95A9F780959095BC0182
:10479000CD01089597FB072E16F4009407D077FDFE
:1047A00009D00E94B62307FC05D03EF49095819570
:1047B0009F4F0895709561957F4F0895EE0FFF1FED
:1047C0000590F491E02D09942F923F924F925F92C1
:1047D0006F927F928F929F92AF92BF92CF92DF9211
:1047E000EF92FF920F931F93CF93DF93CDB7DEB776
:1047F000CA1BDB0B0FB6F894DEBF0FBECDBF09940A
:104800002A88398848885F846E847D848C849B8460
:10481000AA84B984C884DF80EE80FD800C811B816E
:10482000AA81B981CE0FD11D0FB6F894DEBF0FBE9D
:10483000CDBFED010895FB01DC0104C08D91019015
:10484000801921F441505040C8F7881B990B0895F6
:10485000FB01DC0102C001900D9241505040D8F79D
:104860000895F999FECF92BD81BDF89A992780B538
:104870000895A8E1B0E042E050E00C946524262FB2
:10488000F999FECF92BD81BDF89A019700B4021646
:1048900039F01FBA20BD0FB6F894FA9AF99A0FBEF4
:1048A00008950396272F0E9440240E943F24252F1D
:1048B0000E944024242F0C9440240196272F0E940C
:1048C00040240C943F24DC01CB01FC01F999FECF7C
:1048D00006C0F2BDE1BDF89A319600B40D92415088
:1048E0005040B8F70895F894FFCF2D092D097E099F
:1048F0007E09F1090D0A5C095C09120A830A920A11
:10490000920A141888181C18E617EA172018EE17D0
:1049100024183018FA178118FE173418021838189E
:10492000601806183C1867180C1842184A18F21735
:104930002818F6172C1810184618561870187F18D3
:10494000E01718188F184319491932193D194F19D2
:1049500055195B1977229F2288239F228823D22210
:08496000F32288234A235623A9
:104968001C02280850011E0A1401221D571D501D43
:10497800491D01E200E900EA00B500B600B700CD24
:10498800008301CC008A01920194012102230224B0
:10499800022502260227022A02B300B4006F007023
:1049A800009F01CB019F02A002818283E200E900FF
:1049B800EA00B500B600B700CD008301CC008A013B
:1049C80092019401210223022402250226022702D1
:1049D8002A02B300B4006F0070009F01CB019F0250
:0649E800A00281828300A1
:00000001FF
